:020000040800F2
:100000000050002021020008093500080D350008C5
:1000100011350008153500081935000800000000EA
:100020000000000000000000000000001D35000876
:10003000213500080000000025350008293500089A
:10004000852C0008852C0008852C0008852C0008CC
:10005000852C0008852C0008852C0008852C0008BC
:10006000852C0008852C0008852C0008852C0008AC
:10007000852C0008852C0008852C0008852C00089C
:10008000852C0008852C0008852C0008852C00088C
:1000900031350008852C0008852C0008852C0008C7
:1000A000852C0008852C0008852C0008852C00086C
:1000B000852C000841350008852C0008852C000897
:1000C000852C0008852C0008852C0008852C00084C
:1000D000852C0008852C0008852C0008852C00083C
:1000E000852C0008852C0008852C000800000000E5
:1000F0000000000000000000000000000000000000
:1001000000000000000000005FF808F100B583B0B7
:1001100002F020FD304B314A1360314A1360314BFD
:10012000314A03E011681960043304322F498B42CD
:10013000F8D32A4B1A682E4B9A4204D1284B1A68DE
:100140002C4B9A4200D0FEE7234B2B4A13602B4ADC
:1001500013602B4B02E000221A600433294A9342B9
:10016000F9D3254B1B6813B9244B1B6803B1FEE779
:1001700002F0FCFC694601A802F096FC224C234BDD
:100180001C1BA410002504E01F4B53F82530984792
:100190000135AC42F8DC1E4C1E4B1C1BA410002584
:1001A00004E01B4B53F8253098470135AC42F8DC8E
:1001B0000099019802F0E0FE0546174C174B1C1BF6
:1001C000A41004E0013C144B53F824309847002C51
:1001D000F8DC284602F044FCBABADECA000000206F
:1001E000440300200000002070790008480300202C
:1001F000785634123254769848030020181700209D
:10020000480300201C17002078030008780300082A
:1002100078030008780300087803000878030008D2
:1002200008B5FFF773FF00BF00BEFEE71EF0040F26
:100230000CBFEFF30880EFF309807146414A104785
:100240002DE9F04182B004468846134B5E6B9F6BEC
:100250009D6A1B6B13F0020F0DD00F4BDB6A002B56
:1002600009DA4BF6AB6102F0FDFC20B14FF0004221
:10027000094BDA620CE0094802F01EFCCDF8008060
:100280003B4632462946204602F074FC00BEFEE79B
:1002900002B0BDE8F08100BF00ED00E07C76000810
:1002A00000BEFEE71EF0040F0CBFEFF30880EFF373
:1002B00009807146244A10472DE9F04182B0044676
:1002C0008846084B5E6B9F6B9D6A074802F0F4FB03
:1002D000CDF800803B4632462946204602F04AFCD3
:1002E00000BEFEE700ED00E08C7600081EF0040F73
:1002F0000CBFEFF30880EFF309807146134A1047F3
:100300002DE9F04182B004468846084B5E6B9F6B36
:100310009D6A074802F0D0FBCDF800803B4632468C
:100320002946204602F026FC00BEFEE700ED00E074
:100330009876000800BEFEE700BEFEE700BEFEE7BE
:100340007047000041020008B902000801030008DC
:100350007079000800000020480300207079000830
:100360000000001000000010480300201C170020AF
:08037000000000100000001065
:1003780010B504460E4B18784FF47A73B3FBF0F3BC
:100388000C4A1068B0FBF3F000F08CF858B90F2C49
:100398000BD8002221464FF0FF3000F045F8064BFD
:1003A8001C60002010BD012010BD012010BD00BF41
:1003B80008000020140000200400002008B5074AA7
:1003C800136843F010031360032000F01BF80020AB
:1003D800FFF7CEFF02F0DAFF002008BD0020024040
:1003E800034A1368034909780B441360704700BF38
:1003F8001406002008000020014B1868704700BF51
:1004080014060020074AD36823F4E0631B041B0C7E
:10041800000200F4E060184340F0BF6040F4003090
:10042800D060704700ED00E030B4164BDB68C3F3D2
:100438000223C3F10704042C28BF04241D1D062D24
:1004480001D9DD1E00E00025012303FA04F4013C74
:100458002140A940AB40013B1A400A43002806DA74
:1004680000F00F001201D2B2074B1A5407E0120134
:10047800D2B200F1604000F5614080F8002330BC42
:10048800704700BF00ED00E014ED00E0420900F005
:100498001F00012303FA00F0014B43F822007047C4
:1004A80000E100E00138B0F1807F0AD2064B5860C5
:1004B800F021064A82F823100020986007221A606B
:1004C80070470120704700BF10E000E000ED00E039
:1004D800F0B583B000263446D5E00122A2400B686F
:1004E80013409A4240F0CE804D68122D2DD00BD883
:1004F800022D27D003D85DB3012D1ED035E0032D82
:1005080030D0112D1BD030E0614FBD4220D008D82B
:10051800A7F58017BD421BD007F58037BD4224D10F
:1005280016E05C4FBD4213D007F58037BD420FD0AF
:10053800A7F58017BD4218D10AE0CE6815E0CE684D
:10054800043612E0CE6808360FE0CE680C360CE0B0
:100558008D684DB1012D02D10261082605E0426186
:10056800082602E0002600E00426FF2B01D8864674
:1005780001E000F1040EFF2B01D8A20002E0A4F173
:1005880008029200DEF800700F25954027EA05055D
:1005980006FA02F22A43CEF800204A6812F0805F79
:1005A80070D03D4A956945F001059561926902F060
:1005B80001020192019AA708BD1C384A52F8255039
:1005C80004F0030292004FF00F0E0EFA02FE25EA25
:1005D8000E0E334DA8420DD005F58065A8420BD00C
:1005E80005F58065A84209D005F58065A84207D1C0
:1005F800032506E0002504E0012502E0022500E0CD
:10060800042505FA02F24EEA02020237234D45F8A4
:1006180027204A6812F4803F05D005F580652A68CE
:100628001A432A6004E01F4D2A6822EA03022A605E
:100638004A6812F4003F04D01A4D6A681A436A6087
:1006480004E0184D6A6822EA03026A604A6812F4F4
:10065800801F04D0134DAA681A43AA6004E0114D04
:10066800AA6822EA0302AA604A6812F4001F04D0AA
:100678000C4DEA681343EB6004E00A4DEA6822EA8D
:100688000303EB6001340F2C7FF627AF03B0F0BDF6
:10069800000021100000311000100240000001404D
:1006A80000080140000401408368194201D001207C
:1006B80070470020704700BF0AB101617047090404
:1006C80001617047C3685940C1607047002867D00E
:1006D800F0B587B0044690F8293413F0FF0F04D121
:1006E800002380F8283402F073FF032384F82934A8
:1006F800206801F0DDFC254655F8107B6E460FCDCD
:100708000FC62B683360231D0ECB384601F0BEFCA4
:100718000021206801F0D6FC002310E004EB43120E
:10072800012182F8291082F828309386002182F866
:100738002B109163D1639A1C5201A15001330E2BE7
:10074800ECD9002312E004EB4312002182F82912AD
:1007580082F82832938682F82B12C2F83812C2F82F
:100768003C1203F112025201A15001330E2BEAD9B7
:10077800254655F8107B6E460FCD0FC62B683360A3
:10078800231D0ECB384601F09FFC002584F8245029
:10079800012384F82934206801F0BEFF284601E0CF
:1007A8000120704707B0F0BD90F82834012B10D015
:1007B80010B50446012180F8281403F053F8206886
:1007C80001F0A8FF206801F069FC002084F82804E3
:1007D80010BD0220704700BF90F82834012B0DD0BF
:1007E80010B50446012380F8283480F824100068E6
:1007F80001F08AFF002084F8280410BD0220704709
:1008080038B54DB2002D05DA01F07F0464012834B3
:10081800044405E001F07F04640104F50A7404440B
:1008280001F07F012170ED0F65702261E37090F88F
:100838002834012B0BD00546012380F828342146A3
:10084800006801F057FC002085F8280438BD022014
:1008580038BD00BF4AB2002A05DA01F07F035B0108
:100868002833034405E001F07F035B0103F50A73B5
:10087800034401F07F011970D20F5A7090F82824B0
:10088800012A0CD010B50446012280F82824194604
:10089800006801F0CDFD002084F8280410BD022076
:1008A800704700BF70B501F07F056C0104F50A714F
:1008B80001440444C4F83C2205F11202520186188E
:1008C80083500023736084F8293284F828521DB9B4
:1008D800006801F03DFF02E0006801F039FF0020E8
:1008E80070BD00BF01F00F01123100EB411080888C
:1008F800704700BF70B501F07F056C0104F1280155
:1009080001440444E263AA1C520186188350002360
:100918007360012384F8293084F828501DB90068D1
:1009280001F016FF02E0006801F012FF002070BD20
:1009380070B582B005460023ADF80630ADF8043036
:1009480016E2BDF8064014F00F0440F0C880BDF868
:10095800063003F010039BB29BBB03889BB223F4C1
:10096800E14323F070039BB203802968B1F850304B
:100978009AB295F8283002EBC303023301EB430324
:10098800D3F80034C3F309036B64EA6B1344EB63D5
:100998000021284602F04EFE95F8243013F0FF0F90
:1009A80000F0E6812B6C002B40F0E2812A6895F874
:1009B800243043F08003A2F84C30002385F824301B
:1009C800D6E103889BB2ADF80430BDF8043003F4D7
:1009D80000639BB203B3B0F850309BB295F828225D
:1009E80003EBC203063300EB4303D3F80034C3F32D
:1009F8000903C5F84432B5F82C2205F22C4102F05F
:100A08001BF82A68138823F070031B051B0D13803D
:100A1800284602F0FDFDABE1BDF8043013F4004FA9
:100A280000F0A681038823F070031B051B0D0380CB
:100A38002868B0F850309BB295F8282203EBC2031F
:100A4800063300EB4303D3F80034C3F30903C5F8B6
:100A5800443263B1B5F82C22D5F83C1201F0ECFF12
:100A6800D5F83C22D5F844321344C5F83C3200216D
:100A7800284602F0D5FD2A68B2F850309BB20633FA
:100A880002EB4303D5F838123E290ED9C1F34F12B1
:100A980011F01F0F01D1013A92B26FEAC2626FEAF8
:100AA800524292B2C3F800240AE0C1F34F0211F097
:100AB800010F01D0013292B2920292B2C3F800241F
:100AC8002A6813889BB223F4804323F0700383F4CD
:100AD800405343F4004343F08003138048E130F867
:100AE80024309BB2ADF80430BDF8043013F4004F45
:100AF80000F0968030F8243023F070031B051B0D9E
:100B080020F8243005EB441393F83232E3B928680F
:100B1800B0F850309BB205EB441292F8282203EB50
:100B2800C203063300EB4303B3F80064C6F30906B7
:100B3800002E52D005EB44113346B1F82C22D1F8DF
:100B48003C1201F079FF48E0286805EB441393F85C
:100B5800281230F8213003F480439BB2B3B1B0F8C7
:100B6800502092B202EBC103023300EB4303B3F807
:100B78000064C6F30906FEB105EB44113346B1F82B
:100B88002E22D1F83C1201F057FF15E0B0F8503092
:100B98009BB203EBC103063300EB4303B3F80064D5
:100BA800C6F3090646B105EB44113346B1F83022C5
:100BB800D1F83C1201F040FF2A6805EB441393F882
:100BC800281232F8213023F0F0031B051B0D43F4E3
:100BD800004343F0C00322F8213004F112035B0103
:100BE800E9184A6832444A6005EB4411D1F83C22BE
:100BF8003244C1F83C22EB581BB1D1F838128E426E
:100C080007D205EB441393F82812284602F008FD92
:100C180006E005EB441191F828122846FFF742FE3A
:100C2800BDF8043003F080039BB2002B00F0A080D5
:100C38002A6832F824309BB223F4E14323F070038E
:100C48009BB222F8243005EB441393F83230EBB909
:100C58002868B0F850309BB205EB441292F828206F
:100C680003EBC203023300EB4303D3F80034C3F3AE
:100C78000903A21C05EB42125360002B51D005EB6F
:100C880044118A8DC96B01F04FFD4AE0286805EBD5
:100C9800441393F8281030F8213003F040039BB236
:100CA800BBB1B0F8502092B202EBC103023300EBA3
:100CB8004303D3F80034C3F30903A21C05EB421223
:100CC8005360EBB105EB4411CA8DC96B01F02CFDE3
:100CD80016E0B0F850309BB203EBC103063300EBCB
:100CE8004303D3F80034C3F30903A21C05EB4212F3
:100CF80053602BB105EB44110A8EC96B01F014FD4A
:100D08002A6805EB441393F8281032F8213023F0B1
:100D1800F0031B051B0D43F4404343F0800322F806
:100D280021302968B1F850309AB205EB441090F898
:100D3800283002EBC303023301EB4303D3F800343A
:100D4800C3F30903A11C49016A185360C26B1A4412
:100D5800C2636B582BB990F82810284602F06AFC39
:100D680006E005EB441494F828102846FFF7C2FD66
:100D78002868B0F844309BB2ADF8063013F4004F41
:100D88007FF4DFAD002002B070BD00BF10B504468F
:100D9800006801F0C3FC10F4004F02D02046FFF7B2
:100DA800C7FD206801F0BAFC10F4806F0FD02268EC
:100DB800B2F844309BB223F480639BB2A2F844306B
:100DC800204602F047FC00212046FFF705FD206879
:100DD80001F0A4FC10F4804F08D02268B2F8443027
:100DE8009BB223F480439BB2A2F84430206801F000
:100DF80095FC10F4005F08D02268B2F844309BB22A
:100E080023F400539BB2A2F84430206801F086FC1A
:100E180010F4805F1DD02268B2F840309BB223F0F6
:100E280004039BB2A2F840302268B2F840309BB26B
:100E380023F008039BB2A2F84030204602F026FCBB
:100E48002268B2F844309BB223F480539BB2A2F8D4
:100E58004430206801F062FC10F4006F21D0226851
:100E6800B2F840309BB243F00803A2F84030226841
:100E7800B2F844309BB223F400639BB2A2F844302A
:100E88002268B2F840309BB243F00403A2F8403025
:100E9800206801F043FC10F4805F02D1204602F084
:100EA800E5FB206801F03AFC10F4007F0BD02268C3
:100EB800B2F844309BB223F400739BB2A2F84430DA
:100EC800204602F0C1FB206801F028FC10F4807F66
:100ED80008D02268B2F844309BB223F480739BB2E6
:100EE800A2F8443010BD00BF38B54AB2002A05DA6E
:100EF80001F07F035B012833034403E04B0103F552
:100F08000A73034401249C7001F07F041C70D20F03
:100F18005A7090F82824012A11D00546012280F839
:100F280028241946006801F06BFB24B905F22C410E
:100F3800286801F0F7FB002085F8280438BD022056
:100F480038BD00BF10B54AB2002A05DA01F07F03A8
:100F58005B012833034403E04B0103F50A730344A0
:100F680000249C7001F07F011970D20F5A7090F81C
:100F78002824012A0BD00446012280F82824194687
:100F8800006801F075FB002084F8280410BD0220D9
:100F980010BD00BF10B401F08004A4B22CB101F060
:100FA8007F0149012831014403E0490101F50A7133
:100FB800014412B98A728B8004E001228A72CB80C4
:100FC8001B0C0B81002010BC704700BF82B0084B7F
:100FD8001B68084AA2FB03235B0A00FB03F001908D
:100FE80000BF019B5A1E0192002BF9D102B0704735
:100FF80014000020D34D621070B582B00446036817
:1010080013F0010F6BD0A84B5B6803F00C03042BA3
:101018000AD0A54B5B6803F00C03082B0DD1A24B3B
:101028005B6813F4803F08D09F4B1B6813F4003FA4
:1010380055D06368002B52D1B8E16368B3F5803F9F
:1010480005D1994A136843F48033136026E063B9E5
:1010580003F1804303F504331A6822F480321A60DE
:101068001A6822F480221A6018E0B3F5A02F0CD178
:1010780003F18043A3F53C331A6842F480221A60D6
:101088001A6842F480321A6008E0874B1A6822F422
:1010980080321A601A6822F480221A6063687BB171
:1010A800FFF7AAF9054605E0FFF7A6F9401B6428F3
:1010B80000F27E817C4B1B6813F4003FF4D00EE0F5
:1010C800FFF79AF9054605E0FFF796F9401B6428F3
:1010D80000F27081744B1B6813F4003FF4D123684D
:1010E80013F0020F50D0704B5B6813F00C0F0AD04E
:1010F8006D4B5B6803F00C03082B16D16A4B5B68D9
:1011080013F4803F11D1684B1B6813F0020F03D012
:101118002369012B40F05081634A136823F0F803D8
:10112800616943EAC10313602EE02369D3B1012248
:101138005E4B1A60FFF760F9054605E0FFF75CF9BA
:10114800401B022800F23A81574B1B6813F0020F2C
:10115800F4D0554A136823F0F803616943EAC103E0
:10116800136011E00022514B1A60FFF745F905465C
:1011780005E0FFF741F9401B022800F221814A4BA4
:101188001B6813F0020FF4D1236813F0080F29D05D
:10119800A369ABB10122464B1A60FFF72DF905464A
:1011A80005E0FFF729F9401B022800F20B813E4BAE
:1011B8005B6A13F0020FF4D00120FFF707FF11E07C
:1011C80000223B4B1A60FFF717F9054605E0FFF7C9
:1011D80013F9401B022800F2F780334B5B6A13F0C7
:1011E800020FF4D1236813F0040F00F089802E4B0E
:1011F800DB6913F0805F0BD12B4BDA6942F0805228
:10120800DA61DB6903F080530193019B012500E05B
:101218000025284B1B6813F4807F13D1254A1368D7
:1012280043F480731360FFF7E7F8064605E0FFF71D
:10123800E3F8801B642800F2C9801E4B1B6813F476
:10124800807FF4D0E368012B05D1174A136A43F075
:101258000103136222E063B903F1804303F5043309
:101268001A6A22F001021A621A6A22F004021A6249
:1012780014E0052B09D10C4B1A6A42F004021A62D9
:101288001A6A42F001021A6208E0074B1A6A22F051
:1012980001021A621A6A22F004021A62E368CBB1E8
:1012A800FFF7AAF806460FE000100240000042428D
:1012B8008004424200700040FFF79EF8801B41F214
:1012C8008833984200F28480494B1B6A13F0020F5E
:1012D800F2D00FE0FFF790F8064606E0FFF78CF82B
:1012E800801B41F28833984274D8414B1B6A13F033
:1012F800020FF3D125B13E4AD36923F08053D3615D
:10130800E369002B68D03A4A526802F00C02082AB6
:1013180064D0022B37D10022364B1A60FFF76CF8E5
:10132800054604E0FFF768F8401B022858D8304B00
:101338001B6813F0007FF5D1236AB3F5803F06D10F
:101348002B494B6823F40032A36813434B602848A9
:10135800436823F47411236A626A13430B4343609E
:101368000122244B1A60FFF747F8044604E0FFF710
:1013780043F8001B022835D81D4B1B6813F0007F6B
:10138800F5D0002031E000221A4B1A60FFF734F83C
:10139800044604E0FFF730F8001B022824D8144B59
:1013A8001B6813F0007FF5D100201EE001201CE02F
:1013B80003201AE0032018E0012016E0032014E0BF
:1013C800032012E0032010E003200EE003200CE0CD
:1013D80003200AE0032008E0002006E0012004E0E2
:1013E800032002E0032000E0032002B070BD00BF2C
:1013F800001002406000424230B486B0164D02AC84
:1014080028686968AA68EB680FC42B8AADF80430AD
:10141800124B5B6803F00C02082A19D1C3F383420C
:1014280006A90A4412F8100C13F4803F0CD00B4B99
:101438005B68C3F340430B4413F8142C084B03FBBD
:1014480000F0B0FBF2F004E0064B03FB00F000E014
:10145800034806B030BC70474C75000800100240C5
:1014680000127A0000093D0070B5654B1B6803F057
:1014780007038B420BD2624A136823F007030B431E
:101488001360136803F00703994240F0A8800368CB
:1014980013F0020F17D013F0040F04D0594A536801
:1014A80043F4E0635360036813F0080F04D0554A0F
:1014B800536843F460535360524C636823F0F0025E
:1014C8008368134363600D460446036813F0010FF5
:1014D8004DD04268012A05D14A4B1B6813F4003FDE
:1014E8000DD17EE0022A05D1464B1B6813F0007F20
:1014F80005D178E0434B1B6813F0020F75D04149C2
:101508004B6823F0030313434B60FEF775FF064651
:101518006368012B0ED106E0FEF76EFF801B41F2D7
:101528008833984263D8374B5B6803F00C03042B6D
:10153800F2D11CE0022B15D106E0FEF75DFF801BFF
:1015480041F28833984254D82E4B5B6803F00C0361
:10155800082BF2D10BE0FEF74FFF801B41F28833D6
:10156800984248D8274B5B6813F00C0FF3D1244BF3
:101578001B6803F007039D420AD2214A136823F02F
:1015880007032B431360136803F007039D4234D10C
:10159800236813F0040F06D01A494B6823F4E0625D
:1015A800E36813434B60236813F0080F07D0154A0C
:1015B800536823F46053216943EAC1035360FFF77A
:1015C8001BFF104B5B68C3F303130F4AD35CD8406F
:1015D8000E4B18600020FEF7CBFE002070BD0120E6
:1015E80070BD012070BD012070BD012070BD0320B9
:1015F80070BD032070BD032070BD012070BD00BF09
:101608000020024000100240A876000814000020C4
:1016180070B582B00446036813F0010F5CD03E4BEE
:10162800DB6913F0805F0BD13B4BDA6942F08052E3
:10163800DA61DB6903F080530193019B012600E026
:101648000026364B1B6813F4807F12D1334A136887
:1016580043F480731360FEF7CFFE054604E0FEF7FF
:10166800CBFE401B64284FD82C4B1B6813F4807F9B
:10167800F5D0294B1B6A13F4407321D0626802F439
:10168800407293421CD0244A136A23F440702449C0
:1016980001250D6000250D60106213F0010F0FD0B9
:1016A800FEF7AAFE054606E0FEF7A6FE401B41F23D
:1016B800883398422AD8184B1B6A13F0020FF3D0CC
:1016C80015490B6A23F44072636813430B621EB119
:1016D800CB6923F08053CB61236813F0020F06D047
:1016E8000D494B6823F44042A36813434B602368B9
:1016F80013F0100F0CD008494B6823F48002E368FC
:1017080013434B60002004E0032002E0032000E0C4
:10171800002002B070BD00BF001002400070004001
:101728004004424270B4036A23F001030362036A6F
:101738004668826922F073020C6842EA040523F0C5
:1017480002028B6813430C4CA04205D123F0080316
:10175800CA68134323F00403074CA04205D126F4BA
:1017680040764A6932438E691643466085614A6805
:101778004263036270BC7047002C014030B4036AB6
:1017880023F480730362036A4568C26922F0730216
:101798000C68224323F400738C6843EA04230E4C3C
:1017A800A04206D123F40063CC6843EA042323F45F
:1017B8008063094CA04207D125F440554C6945EA9D
:1017C80004158C6945EA04154560C2614A68C2631C
:1017D800036230BC704700BF002C014030B4036A7C
:1017E80023F480530362036A4468C26922F4E64220
:1017F8000D6842EA052223F400538D6843EA053355
:10180800074DA84204D124F480444D6944EA851464
:101818004460C2614A680264036230BC704700BF1A
:10182800002C014010B4036A046A24F00104046225
:10183800846924F0F00444EA021223F00A031943ED
:101848008261016210BC704710B4036A23F0100370
:1018580003628469036A24F4704444EA023223F080
:10186800A00343EA01118261016210BC704700BF06
:10187800836823F0700341F007010B4383607047CE
:1018880010B4846824F47F4442EA0323194344EAE9
:101898000103836010BC7047704700BF90F83C306C
:1018A800012B00F0838010B50446012380F83C30FA
:1018B800022380F83D300268936823F47F4323F0C5
:1018C800770393600B68402B4CD00AD8102B58D064
:1018D80002D8002B50D062E0202B57D0302B5AD0A2
:1018E8005DE0702B12D004D8502B27D0602B2FD05E
:1018F80055E0B3F5805F03D0B3F5005F12D04EE03A
:101908000268936823F00703936048E0CB684A684D
:1019180089680068FFF7B4FF2268936843F077038B
:1019280093603CE0CB684A6889680068FFF7A8FFC5
:101938002268936843F48043936030E0CA6849683A
:101948000068FFF76FFF50212068FFF791FF26E03E
:10195800CA6849680068FFF777FF60212068FFF7C9
:1019680087FF1CE0CA6849680068FFF75BFF4021F1
:101978002068FFF77DFF12E000210068FFF778FF7D
:101988000DE010210068FFF773FF08E020210068D0
:10199800FFF76EFF03E030210068FFF769FF0123BE
:1019A80084F83D30002084F83C0010BD02207047C8
:1019B800704700BF704700BF704700BF10B50446AE
:1019C80003681A6912F0020F17D0DA6812F0020FD2
:1019D80013D06FF002021A610123037703689B6931
:1019E80013F0030F02D001F0A1FB04E0FFF7E0FFC2
:1019F8002046FFF7DFFF0023237723681A6912F0D8
:101A0800040F19D0DA6812F0040F15D06FF0040231
:101A18001A610223237723689B6913F4407F03D05C
:101A2800204601F083FB05E02046FFF7C1FF204672
:101A3800FFF7C0FF0023237723681A6912F0080F05
:101A480019D0DA6812F0080F15D06FF008021A6181
:101A5800042323772368DB6913F0030F03D02046A0
:101A680001F064FB05E02046FFF7A2FF2046FFF7E0
:101A7800A1FF0023237723681A6912F0100F19D0E9
:101A8800DA6812F0100F15D06FF010021A610823EF
:101A980023772368DB6913F4407F03D0204601F0E5
:101AA80045FB05E02046FFF783FF2046FFF782FF4E
:101AB8000023237723681A6912F0010F09D0DA6826
:101AC80012F0010F05D06FF001021A61204601F0F3
:101AD80045FC23681A6912F0800F09D0DA6812F001
:101AE800800F05D06FF080021A61204600F0CCFA12
:101AF80023681A6912F0400F09D0DA6812F0400F13
:101B080005D06FF040021A612046FFF755FF2368A1
:101B18001A6912F0200F09D0DA6812F0200F05D0E8
:101B28006FF020021A61204600F0ACFA10BD00BF29
:101B380003681A4A90420AD0B0F1804F07D0A2F544
:101B48009432904203D002F58062904203D123F090
:101B580070034A681343114A90420AD0B0F1804F8B
:101B680007D0A2F59432904203D002F580629042E9
:101B780003D123F44073CA68134323F080034A69EE
:101B8800134303608B68C3620B688362034B9842FC
:101B980001D10B690363012343617047002C0140A5
:101BA800B8B110B5044690F83D3013F0FF0F04D1DA
:101BB800002380F83C3001F00BFC022384F83D3010
:101BC800211D2068FFF7B4FF012384F83D30002071
:101BD80010BD0120704700BFB8B110B5044690F899
:101BE8003D3013F0FF0F04D1002380F83C30FFF79D
:101BF80053FE022384F83D30211D2068FFF798FF2B
:101C0800012384F83D30002010BD0120704700BF3B
:101C180030B4036A23F010030362036A44688269DC
:101C280022F4E6420D6842EA052223F020038D687B
:101C380043EA05130D4DA84206D123F08003CD6871
:101C480043EA051323F04003084DA84207D124F4C2
:101C580040644D6944EA85048D6944EA850444601A
:101C680082614A688263036230BC7047002C01407D
:101C780038B590F83C30012B66D00D460446012358
:101C880080F83C30022380F83D300C2A55D8DFE834
:101C980002F0075454541A5454542E5454544100C6
:101CA8000068FFF73FFD2268936943F008039361DA
:101CB8002268936923F004039361226891692B6970
:101CC8000B43936139E00068FFF7A2FF226893692C
:101CD80043F4006393612268936923F480639361FA
:101CE80022689369296943EA0123936125E0006822
:101CF800FFF744FD2268D36943F00803D3612268E3
:101D0800D36923F00403D3612268D1692B690B439B
:101D1800D36112E00068FFF761FD2268D36943F4DC
:101D28000063D3612268D36923F48063D361226896
:101D3800D369296943EA0123D361012384F83D303B
:101D4800002084F83C0038BD022038BD70B4046A15
:101D580024F0010404628469056A164EB0420CD06E
:101D6800B0F1804F0BD0A6F59436B04209D006F5F5
:101D78008066B04207D1012606E0012604E001266C
:101D880002E0012600E000261EB124F003042243ED
:101D980001E044F0010222F0F0021B01DBB2134320
:101DA80025F00A0201F00A0111438361016270BC47
:101DB800704700BF002C014010B4012303FA01F45E
:101DC800036A23EA04030362036A8A401A4302622D
:101DD80010BC704710B5044601220068FFF7ECFFFD
:101DE8002368074A934203D15A6C42F400425A646A
:101DF8002268136843F001031360002010BD00BF80
:101E0800002C014010B5044600220068FFF7D4FFFB
:101E18002368124A93420DD1196A41F211121142F4
:101E280008D1196A40F24442114203D15A6C22F493
:101E380000425A642368196A41F21112114208D10A
:101E4800196A40F24442114203D11A6822F0010291
:101E58001A60012384F83D30002010BD002C014099
:101E680010B4042303FA01F4036A23EA04030362A7
:101E7800036A8A401A43026210BC704700285AD08D
:101E880070B588B004460E4690F83D3013F0FF0F49
:101E980004D1002380F83C3001F0AEFA022384F824
:101EA8003D30211D2068FFF743FEB36803223168E7
:101EB8002068FFF74BFF2268936923F00C039361B6
:101EC8002268916973680B4393612268536843F0F1
:101ED800800353602268936823F07003936022683C
:101EE800936843F0400393602268936823F00703E4
:101EF80093602268936843F0040393600025059576
:101F0800069570230193079504950395F36802934A
:101F180001A92068FFF77CFE2268536823F070034C
:101F280053602268536843F050035360012384F8D8
:101F38003D30284601E00120704708B070BD00BF61
:101F480010B504460268D36843F00203D360012247
:101F580000210068FFF730FF2268136843F001038F
:101F68001360002010BD00BF10B5044604220068AD
:101F7800FFF776FF2268536C43F4004353642268EA
:101F8800136843F001031360002010BD10B5044628
:101F980000220068FFF764FF2368196A41F21112F2
:101FA800114208D1196A40F24442114203D15A6CD5
:101FB80022F400425A642368196A41F2111211424C
:101FC80008D1196A40F24442114203D11A6822F03A
:101FD80001021A60002010BD90F83C30012B25D07A
:101FE800012380F83C30CB6823F440728B6813439C
:101FF80023F480624B68134323F400620B68134395
:1020080023F480520B69134323F400524B691343A2
:1020180023F480438A69134323F40043134302687B
:102028005364002380F83C301846704702207047FC
:1020380090F83C30012B21D030B4012280F83C20AC
:10204800022380F83D300468636823F070036360FE
:10205800046865680B682B4363600468A36823F011
:102068008003A3600468A5684B682B43A36080F8CD
:102078003D20002380F83C30184601E002207047DC
:1020880030BC7047704700BF704700BF84B001A8DC
:1020980080E80E00002004B0704700BFB0F8403060
:1020A8009BB243F43F43A0F840300020704700BF84
:1020B800B0F8403023F474535B045B0CA0F8403054
:1020C800002070470020704784B038B505AC84E81C
:1020D8000E000123A0F840300024A0F84040A0F8EA
:1020E8004440A0F85040FFF7D9FF2046BDE83840EB
:1020F80004B0704710B4CB78032B35D8DFE803F071
:1021080002280F1B0A7830F822309BB223F4EC43E4
:1021180023F0700343F4007320F8223024E00A7897
:1021280030F822309BB223F4EC4323F070039BB2C7
:1021380020F8223018E00A7830F822309BB223F4D5
:10214800EC4323F0700343F4C06320F822300BE023
:102158000A7830F822309BB223F4EC4323F0700362
:1021680043F4806320F822300A7830F8223023F0D4
:10217800F0031B051B0D134343F4004343F0800396
:1021880020F822308B7A002B40F08B804B7883B379
:10219800B0F850309BB20A7803EBC20300EB43035C
:1021A8008A8852085200C3F800240A7830F822308E
:1021B80003F040039BB25BB130F8223023F0F00308
:1021C8001B051B0D43F4004343F0C00320F82230E5
:1021D8000A7830F822309BB223F4E04323F040031E
:1021E80083F0200343F4004343F0800320F82230B7
:1021F8001BE1B0F850309BB20A7803EBC2030433FA
:1022080000EB43038A8852085200C3F80024B0F850
:1022180050309BB20A7803EBC203063300EB43034A
:102228000C693E2C0ED9C4F34F1214F01F0F01D1C4
:10223800013A92B26FEAC2626FEA524292B2C3F8AE
:1022480000240AE0C4F34F0214F0010F01D0013258
:1022580092B2920292B2C3F800240A7830F822307F
:1022680003F480439BB25BB130F8223023F0F003D3
:102278001B051B0D43F4404343F0800320F8223034
:102288000A7830F822309BB223F4804323F070039D
:1022980083F4405343F4004343F0800320F8223092
:1022A800C3E00A7830F8223023F4F8731B051B0DBD
:1022B80043F4014343F0800320F82230B0F8503053
:1022C8009BB20A7803EBC20300EB4303CA885208A7
:1022D8005200C3F80024B0F850309BB20A7803EBE0
:1022E800C203043300EB43030A8952085200C3F8BF
:1022F80000244B78002B4DD10A7830F8223003F4B3
:1023080080439BB25BB130F8223023F0F0031B0509
:102318001B0D43F4404343F0800320F822300A7831
:1023280030F8223003F040039BB25BB130F8223022
:1023380023F0F0031B051B0D43F4004343F0C003D7
:1023480020F822300A7830F8223023F0F0031B05F9
:102358001B0D43F4004343F0C00320F822300C78EF
:1023680030F824309BB223F4804323F0700383F4C5
:10237800405348F28002134320F82430097830F89B
:1023880021309BB223F4E04323F04003134320F8A9
:1023980021304AE00A7830F8223003F480439BB2B7
:1023A8005BB130F8223023F0F0031B051B0D43F41A
:1023B800404343F0800320F822300A7830F8223076
:1023C80003F040039BB25BB130F8223023F0F003F6
:1023D8001B051B0D43F4004343F0C00320F82230D3
:1023E8000A7830F8223023F0F0031B051B0D43F464
:1023F800404343F0800320F822300C7830F8243032
:102408009BB223F4E04323F0400348F280021343D5
:1024180020F82430097830F821309BB223F4804327
:1024280023F07003134320F82130002010BC7047BC
:102438008B7A002B46D14B7813B30A7830F82230C8
:1024480003F040039BB25BB130F8223023F0F00375
:102458001B051B0D43F4004343F0C00320F8223052
:102468000A7830F822309BB223F4E04323F040038B
:1024780043F4004343F0800320F8223000207047E3
:102488000A7830F8223003F480439BB25BB130F80D
:10249800223023F0F0031B051B0D43F4404343F0A7
:1024A800800320F822300A7830F822309BB223F4D7
:1024B800804323F0700343F4004343F0800320F883
:1024C8002230DBE710B44B78002B4BD10A7830F878
:1024D800223003F480439BB25BB130F8223023F002
:1024E800F0031B051B0D43F4404343F0800320F821
:1024F80022300A7830F8223003F040039BB25BB1F7
:1025080030F8223023F0F0031B051B0D43F4004381
:1025180043F0C00320F822300A7830F8223023F044
:10252800F0031B051B0D43F4004343F0C00320F8E0
:1025380022300C7830F824309BB223F4804323F007
:10254800700348F28002134320F82430097830F8E9
:1025580021309BB223F4E04323F04003134320F8D7
:1025680021304AE00A7830F8223003F480439BB2E5
:102578005BB130F8223023F0F0031B051B0D43F448
:10258800404343F0800320F822300A7830F82230A4
:1025980003F040039BB25BB130F8223023F0F00324
:1025A8001B051B0D43F4004343F0C00320F8223001
:1025B8000A7830F8223023F0F0031B051B0D43F492
:1025C800404343F0800320F822300C7830F8243060
:1025D8009BB223F4E04323F0400348F28002134304
:1025E80020F82430097830F821309BB223F4804356
:1025F80023F07003134320F82130002010BC7047EB
:102608000A788AB930F822309BB223F4804323F049
:10261800400383F4805383F0100343F4004343F0F2
:10262800800320F8223020E04B787BB130F822304C
:102638009BB223F4E04323F0400383F0100343F4F8
:10264800004343F0800320F822300EE030F82230B7
:102658009BB223F4804323F0700383F4805343F444
:10266800004343F0800320F822300020704700BF69
:102678004B781BB30A7830F8223003F040039BB242
:102688005BB130F8223023F0F0031B051B0D43F437
:10269800004343F0C00320F822300A7830F8223093
:1026A8009BB223F4E04323F0400383F0300343F468
:1026B800004343F0800320F8223022E00A7830F803
:1026C800223003F480439BB25BB130F8223023F010
:1026D800F0031B051B0D43F4404343F0800320F82F
:1026E80022300A7830F822309BB223F4804323F05A
:1026F800700383F4405343F4004343F0800320F80D
:1027080022300020704700BF11B98023A0F84C3058
:10271800002070470020704700207047B0F8440040
:1027280080B270470020704710B401335B1000EB93
:10273800420202F5806207E00C78487844EA0024F7
:1027480022F8044B0231013B002BF5D110BC704735
:1027580070B54A78012A40F0C2808E690B699E42A2
:1027680003D9F61A8E611E4601E000238B610D46DF
:1027780004468B7A83B9B3B28A884969FFF7D4FFD4
:10278800B4F850309BB22A7803EBC203023304EB4F
:102798004303C3F8006491E0097830F8213003F06E
:1027A80040039BB29BB322BBB0F850309BB203EB03
:1027B800C101063100EB41013E2E0ED9C6F34F137D
:1027C80016F01F0F01D1013B9BB26FEAC3636FEA9A
:1027D80053439BB2C1F8003417E0C6F34F0316F019
:1027E800010F01D001339BB29B029BB2C1F80034A8
:1027F8000BE0012A09D1B0F850309BB203EBC103BA
:10280800023300EB4303C3F800642A8932E022BB99
:10281800B0F850309BB203EBC101023100EB41012B
:102828003E2E0ED9C6F34F1316F01F0F01D1013BF0
:102838009BB26FEAC3636FEA53439BB2C1F800349B
:1028480017E0C6F34F0316F0010F01D001339BB216
:102858009B029BB2C1F800340BE0012A09D1B0F801
:1028680050309BB203EBC103023300EB4303C3F8C0
:102878000064EA88B3B269692046FFF755FF6B78B0
:102888006BB92A7834F8223023F0F0031B051B0DAE
:1028980043F4004343F0C00324F822300EE0012B38
:1028A8000CD12A7834F8223023F0F0031B051B0DD5
:1028B80043F4404343F0800324F822302A7834F864
:1028C80022309BB223F4E04323F0400383F030032B
:1028D80043F4004343F0800324F82230AAE08B69D4
:1028E8000C69A34203D91B1B8B61234601E000241A
:1028F8008C618C7A2CBBB0F8502092B20C7802EB29
:10290800C402063200EB42023E2B0ED9C3F34F1429
:1029180013F01F0F01D1013CA4B26FEAC4646FEA3F
:102928005444A4B2C2F8004474E0C3F34F0413F053
:10293800010F01D00134A4B2A402A4B2C2F8004429
:1029480068E02ABBB0F8502092B20C7802EBC402BF
:10295800023200EB42023E2B0ED9C3F34F1413F0A0
:102968001F0F01D1013CA4B26FEAC4646FEA54445A
:10297800A4B2C2F8004418E0C3F34F0413F0010FE7
:1029880001D00134A4B2A402A4B2C2F800440CE0FD
:10299800012A0AD1B0F8502092B20C7802EBC40296
:1029A800023200EB4202C2F800344A782ABBB0F87F
:1029B800502092B20C7802EBC402063200EB4202BD
:1029C8003E2B0ED9C3F34F1413F01F0F01D1013C56
:1029D800A4B26FEAC4646FEA5444A4B2C2F80044D3
:1029E80018E0C3F34F0413F0010F01D00134A4B26F
:1029F800A402A4B2C2F800440CE0012A0AD1B0F83B
:102A0800502092B20C7802EBC402023200EB420270
:102A1800C2F800340A7830F822309BB223F480439D
:102A280023F0700383F4405343F4004343F08003DE
:102A380020F82230002070BD01335B1000EB420209
:102A480002F5806204E0106821F8020B013B0432B1
:102A5800002BF8D1704700BFFEE700BF08B50D4B4B
:102A68001B6813B90C4A0B4B1A600A4B1A68C31C33
:102A780023F00303134409498B4206D902F08CFB67
:102A88000C2303604FF0FF3008BD02490B6010466D
:102A980008BD00BF4C0300201C170020004C00207C
:102AA80001230360014B0B60704700BF0C0000203E
:102AB8000FB400B583B004AB53F8042B0193802105
:102AC800064803F0C5F8002803DD0146034800F076
:102AD80039F803B05DF804EB04B0704754030020E4
:102AE8002DE9F04385B004460F46435613BB042531
:102AF80028462146ABBE04461FE03546102E28BFA7
:102B08001025002306E014F9011B04AA1A4402F850
:102B1800101C0133AB42F6D304AA1344002203F875
:102B2800102CE9464FF0040840464946ABBE8046A3
:102B3800761B00E00E46002EDFD1384605B0BDE812
:102B4800F08300BF08B5FFF7CBFF08BD08B500F05C
:102B580097F8024B024A9A6008BD00BF00ED00E0FA
:102B68000000000808B500F0B1F808BDF8B5044643
:102B78000D4617461E462648FFF79AFF2168254846
:102B8800FFF796FF61682448FFF792FFA168234882
:102B9800FFF78EFFE1682248FFF78AFF2169214885
:102BA800FFF786FF61692048FFF782FFA1691F4888
:102BB800FFF77EFFE1691E48FFF77AFF1D48FFF720
:102BC80077FF29461C48FFF773FF1C4CE16A1C4835
:102BD800FFF76EFF216B1B48FFF76AFFE16B1A488E
:102BE800FFF766FF15F0800F03D039461748FFF747
:102BF8005FFF15F4004F03D031461548FFF758FF23
:102C08001448FFF755FF06991348FFF751FFF8BD21
:102C180060750008707500088075000890750008D8
:102C2800A0750008B0750008C0750008D0750008C8
:102C3800E0750008F0750008FC75000800ED00E07C
:102C48000C7600081C7600082C7600083C760008F4
:102C58004C7600085C7600086476000883691A8858
:102C68008A4207D10268033A012A05D802338361F0
:102C7800012070470020704700207047FEE70000E1
:102C88000F4B1A6842F001021A6059680D4A0A404F
:102C98005A601A6822F0847222F480321A601A6824
:102CA80022F480221A605A6822F4FE025A604FF415
:102CB8001F029A604FF00062034B9A60704700BF92
:102CC800001002400000FFF800ED00E01F4B5B68B9
:102CD80003F00C03042B06D0082B08D03BBB1C4A7E
:102CE8001C4B1A6026E01A4A1A4B1A6022E0174A4F
:102CF80053685268C3F38343023312F4803F05D10B
:102D0800154A02FB03F3134A136013E00F4A526893
:102D180012F4003F05D0104A02FB03F30D4A13607A
:102D280008E00B4A02FB03F30A4A136002E0084A70
:102D3800084B1A60054B5B68C3F30313074AD15C61
:102D4800044A1368CB401360704700BF001002406C
:102D580000127A001400002000093D00A87600083F
:102D680030B589B0002404940594069407941D4B4B
:102D78009A6942F010029A619A6902F01002009270
:102D8800009A9A6942F020029A619A6902F0200238
:102D98000192019A9A6942F004029A619A6902F0D2
:102DA80004020292029A9A6942F008029A619B69A7
:102DB80003F008030393039B0B4D22464FF4005185
:102DC8002846FDF779FC4FF400530493012305933B
:102DD80006940223079304A92846FDF779FB09B056
:102DE80030BD00BF001002400010014030B587B070
:102DF8000024029403940594009401940C4D0D4B07
:102E08002B607C236B60AC604FF6FF73EB602C612A
:102E1800AC610F23049302A92846FFF72FF850232B
:102E28000093019469462846FFF702F907B030BDC0
:102E3800280600200004004030B595B00024109406
:102E48001194129413940E940F940794089409946F
:102E58000A940B940C940D94009401940294039496
:102E6800049405940694244D244B2B600C236B602A
:102E7800AC60FF23EB602C616C61AC612846FEF707
:102E88008FFE4FF48053109310A92846FEF706FDD5
:102E98002846FEF7A1FE0E940F940EA92846FFF7C8
:102EA800C7F860230793089409940A940B940C9428
:102EB8000D94224607A92846FEF7DAFE042207A940
:102EC8002846FEF7D5FE082207A92846FEF7D0FEB9
:102ED8000094019402940A23039304944FF400533A
:102EE8000593069469462846FFF776F8284600F0C9
:102EF800CDFA15B030BD00BF70060020002C01408F
:102F080070B594B0282200210DEB020002F055F9AB
:102F18000024059406940794089409940194029453
:102F28000394049401250A954FF480330B930E956E
:102F38000226119612934FF4801313930AA8FEF7F2
:102F48005BF80F230593069607944FF48063089364
:102F58000994294605A8FEF787FA102301934FF430
:102F68008003049301A8FEF753FB14B070BD00BFA3
:102F780008B5FDF723FAFFF7C3FFFFF7F1FE00F0EE
:102F8800E3FAFFF733FFFFF757FF524C00212046C3
:102F9800FEF720FF00212046FEF7E6FF0421204629
:102FA800FEF718FF04212046FEF7DEFF0821204621
:102FB800FEF710FF08212046FEF7D6FF46480268B4
:102FC800D36843F00103D360FEF7BAFF434B186898
:102FD800434B186001F098FE01F02AFB02460B46AD
:102FE8000020404901F0A2FC00223F4B01F074FB95
:102FF80001F084FD01463D4B18603D4B186801F017
:10300800D1FD05463B4B18603B4B196801F0D4FED7
:1030180004463A4B18603A4B1968284601F0C4FD3B
:103028000546384B1860384902F082F818B1364A1C
:10303800334B1A600AE03549284602F05BF818B1AC
:10304800324A2F4B1A6001E02D4B1D60304B196836
:103058002B4B186801F0B0FE05462E4B1860204631
:1030680002F070F804462C4B1860284602F06AF803
:103078002A4B186020442A4B18600A2805DD294B82
:103088001B680A33284A13600DE010F10A0F05DAAD
:10309800244B1B680A3B244A136004E0214B1B683D
:1030A8001844214B1860204B1B68FF2B03DDFF22BF
:1030B8001D4B1A6004E0002B02DA00221A4B1A603A
:1030C800194B1B68174A1360024A126853639363CB
:1030D800D3637BE77006002028060020D803002071
:1030E800E40300200040DF4000004E40BC06002002
:1030F800DC030020B8060020180000202406002069
:1031080068060020B006002000007A4400007AC457
:103118001C00002020060020C00600206C060020AD
:103128001C060020D4030020B406002010B501229C
:10313800844B1A7003685A6B834B1A604FF4005122
:103148008248FDF7BFFA40218148FDF7ADFA18B370
:1031580080217F48FDF7A8FAF0B901217D48FDF7E5
:10316800A3FAC8B17C4C00212046FEF733FE0021AB
:103178002046FEF70BFF04212046FEF743FE0421FC
:103188002046FEF7F1FE08212046FEF73BFE082107
:103198002046FEF7FBFE10BD40216D48FDF784FA7E
:1031A80018B380216A48FDF77FFAF0B90121694810
:1031B800FDF77AFAC8B9684C00212046FEF70AFEE6
:1031C80000212046FEF7E2FE04212046FEF71AFE03
:1031D80004212046FEF7DAFE08212046FEF712FEFB
:1031E80008212046FEF7C0FE10BD40215848FDF7D3
:1031F8005BFA18B380215648FDF756FAF0B1012161
:103208005448FDF751FAC8B9534C00212046FEF73F
:10321800F9FD00212046FEF7B9FE04212046FEF7FD
:10322800D9FD04212046FEF7B1FE08212046FEF70D
:10323800E9FD08212046FEF797FE10BD40214448CD
:10324800FDF732FA30BB802100F1804000F5843070
:10325800FDF72AFAF0B101213E48FDF725FAC8B971
:103268003D4C00212046FEF7CDFD00212046FEF70B
:103278007BFE04212046FEF7ADFD04212046FEF723
:1032880085FE08212046FEF7BDFD08212046FEF7F1
:103298007DFE10BD40212E48FDF706FA30BB802187
:1032A80000F1804000F58430FDF7FEF9F0B101210E
:1032B8002848FDF7F9F9C8B1274C00212046FEF748
:1032C800A1FD00212046FEF74FFE04212046FEF70F
:1032D80099FD04212046FEF759FE08212046FEF7F5
:1032E80079FD08212046FEF751FE10BD40211848FF
:1032F800FDF7DAF928BB802100F1804000F5843021
:10330800FDF7D2F9E8B901211248FDF7CDF9C0B1AE
:10331800114C00212046FEF775FD00212046FEF7DE
:1033280035FE04212046FEF76DFD04212046FEF7F8
:103338001BFE08212046FEF74DFD08212046FEF71A
:1033480025FE10BDE0030020D80300200010014036
:1033580000080140000C0140700600200268074B7D
:103368009A420AD1064B1B7823B94FF0FF32054B1E
:103378001A6070470022024B1A7070470004004020
:10338800E0030020D8030020704700BF82B00E4B36
:103398009A6942F001029A619A6902F00102009268
:1033A800009ADA6942F08052DA61DB6903F08053EF
:1033B8000193019B054A536823F0E06343F00073CF
:1033C800536002B0704700BF001002400000014087
:1033D8000268084B9A420CD182B003F564439A699B
:1033E80042F400629A619B6903F400630193019BB4
:1033F80002B07047002C014030B589B00023049317
:1034080005930693079302681D4B9A4235D103F53D
:103418000333DA6942F00202DA61DA6902F0020281
:103428000192019A9A6942F004029A619A6902F03B
:1034380004020292029A9A6942F008029A619B6910
:1034480003F008030393039B08ADC02345F8103D20
:1034580029460C48FDF73CF8012304930024059401
:10346800069429460848FDF733F8224621461D20D0
:10347800FCF7DAFF1D20FDF709F809B030BD00BFE1
:103488000004004000080140000C014010B586B05F
:10349800002302930393049305930268154B9A4201
:1034A80026D103F564439A6942F008029A619A6941
:1034B80002F008020092009A9A6942F004029A61A6
:1034C8009B6903F004030193019B4FF4604302934B
:1034D80002240394059402A90748FCF7F9FF4FF466
:1034E800E06302930394059402A90448FCF7F0FFF3
:1034F80006B010BD002C0140000C0140000801403E
:10350800704700BFFEE700BFFEE700BFFEE700BF51
:10351800FEE700BF704700BF704700BF704700BF9D
:1035280008B5FCF75DFF08BD08B50248FDF72EFC9D
:1035380008BD00BFB810002008B50248FEF73EFAE3
:1035480008BD00BF2806002010B5094C0022094913
:10355800204600F0EBF90849204600F0FFF907493A
:10356800204600F0D1FE204600F000FA10BD00BF52
:10357800C406002030000020A80000202000002001
:10358800002070470020704738B5054601F000FE5E
:10359800044C2946204600F0C7FE204600F0CAFE2B
:1035A800002038BDC406002010B5064C002206498C
:1035B800204600F0B1FE0549204600F0B5FE002087
:1035C80010BD00BFC4060020D00C0020E808002071
:1035D80002680E4B9A4217D100B583B003F5DA336F
:1035E800DA6942F40002DA61DB6903F4000301934B
:1035F800019B002211461420FCF716FF1420FCF74B
:1036080045FF03B05DF804FB704700BF005C004055
:1036180008B500F22C41D0F85C0400F0C3F908BDED
:1036280008B500EB4113D3F83C22D0F85C0400F055
:10363800E7F908BD08B500EB4113DA6BD0F85C0474
:1036480000F012FA08BD00BF08B5D0F85C0400F01D
:1036580095FA08BD10B504460121D0F85C0400F0C5
:1036680079FAD4F85C0400F055FA10BD10B5044698
:10367800D0F85C0400F072FAA36923B1024A136916
:1036880043F00603136110BD00ED00E008B5D0F863
:103698005C0400F06DFA08BD10B504461E48C0F879
:1036A8005C44C4F820021D4B0360082343600223D6
:1036B80083600323C36000238361C3610362FDF752
:1036C80005F808B1FFF760FE182300221146D4F868
:1036D8002002FDF75FFC582300228021D4F8200245
:1036E800FDF758FCC02300228121D4F82002FDF701
:1036F80051FC4FF4887300220121D4F82002FDF711
:1037080049FC4FF4807300228221D4F82002FDF78F
:1037180041FC002010BD00BFB8100020005C004034
:1037280008B5D0F82002FDF73FF810B1022802D002
:1037380003E0002008BD012008BD022008BD00BF2D
:1037480010B51C4613462246D0F82002FDF758F85B
:1037580010B1022802D003E0002010BD012010BDE6
:10376800022010BD08B5D0F82002FDF773F810B19B
:10377800022802D003E0002008BD012008BD022075
:1037880008BD00BF08B5D0F82002FDF7ADFB10B1A9
:10379800022802D003E0002008BD012008BD022055
:1037A80008BD00BF08B5D0F82002FDF7CBFB10B16B
:1037B800022802D003E0002008BD012008BD022035
:1037C80008BD00BFD0F8202211F0800F06D001F00C
:1037D8007F0302EB431191F82A00704701F07F0143
:1037E80002EB411191F82A02704700BF08B5D0F8E2
:1037F8002002FCF7F1FF10B1022802D003E00020FC
:1038080008BD012008BD022008BD00BF08B5D0F8DA
:103818002002FDF76FF810B1022802D003E0002063
:1038280008BD012008BD022008BD00BF08B5D0F8BA
:103838002002FDF737F810B1022802D003E000207B
:1038480008BD012008BD022008BD00BF08B5D0F89A
:103858002002FDF747F808BD00487047E80300203C
:10386800704700BF704700BF12230B8000487047A5
:103878005000002004230B80004870474C000020B3
:1038880008B50A4620B90549054800F0E7FB03E0FA
:103898000249034800F0E2FB004808BD1815002063
:1038A800B876000810B5044C0A462146034800F0D3
:1038B800D5FB204610BD00BF18150020D0760008A3
:1038C80008B50A4620B90549054800F0C7FB03E0DA
:1038D8000249034800F0C2FB004808BD1815002043
:1038E800E476000808B50A4620B90549054800F0FD
:1038F800B5FB03E00249034800F0B0FB004808BDEF
:1039080018150020F476000808B50A4620B90549BC
:10391800054800F0A3FB03E00249034800F09EFBC2
:10392800004808BD181500200077000898B108B5B0
:103938000346D0F8140210B10020C3F8140209B1EC
:10394800C3F810121846012380F8FC310270FFF703
:10395800A3FE002008BD0220704700BF19B1C0F8BF
:103968001412002070470220704700BF08B5FFF707
:10397800D7FE002008BD00BF08B5D0F8143223B127
:103988001B68984718B1022008BD022008BD002016
:1039980008BD00BF08B5D0F814325B68984700200E
:1039A80008BD00BF38B5044600F50275284600F08A
:1039B8000BF90123C4F8F431B4F80E32C4F8F83125
:1039C80094F8081201F01F03012B08D013B1022B41
:1039D8000AD00EE02946204600F072FA0EE0294689
:1039E800204600F091FA09E02946204600F0A8FA9E
:1039F80004E001F080012046FFF7C4FE002038BD36
:103A080010B5044611BB1346D0F8F421032A28D177
:103A1800D0F80C11D0F8102191420AD9891AC0F8AF
:103A28000C118A4228BF0A4692B2194600F05AFB86
:103A380017E0D0F814321B6923B190F8FC21032A4F
:103A480000D19847204600F055FB0AE00A46D0F816
:103A580014329B692BB190F8FC11032901D111464E
:103A68009847002010BD00BF10B50446002943D177
:103A78001346D0F8F421022A36D1C169026A91426C
:103A88000CD98A1AC26192B2194600F013FB0023BE
:103A98001A4619462046FFF7C9FE25E08169B1FBA1
:103AA800F2F302FB131393B98A4210D8D0F8F83115
:103AB80099420CD20022114600F0FCFA0021C4F809
:103AC800F8110B460A462046FFF7B0FE0CE0D4F882
:103AD8001432DB682BB194F8FC21032A01D120466B
:103AE8009847204600F012FB94F80032012B0ED1C3
:103AF800002384F800320AE00A46D0F814325B69E1
:103B08002BB190F8FC11032901D1114698470020E8
:103B180010BD00BF38B50446402300221146FFF708
:103B28000FFE4025C4F810512B4600228021204664
:103B3800FFF706FE2562012384F8FC31D4F8183219
:103B48002BB1D4F814325B682179204698470020BD
:103B580038BD00BF01740020704700BF90F8FC31E9
:103B680080F8FD31042380F8FC310020704700BF45
:103B780090F8FD3180F8FC310020704708B590F8C6
:103B8800FC31032B04D1D0F81432DB6903B1984718
:103B9800002008BD0346002002E00130C0B2013316
:103BA8001A78002AF9D170474B88012B0BD110B530
:103BB8000446C0F80432D0F814329B68984720466F
:103BC80000F098FA10BD70470B7803704B7843707B
:103BD8008B78CA7803EB022343800B794A7903EB8D
:103BE800022383808B79CA7903EB0223C380704751
:103BF80010B504468021FFF7C5FD00212046FFF7D8
:103C0800C1FD10BD30B583B004460D464A88130A7D
:103C1800013B062B79D8DFE803F0040C2078785CA8
:103C28006900D0F810321B680DF10601007C984736
:103C38006FE0037C43B9D0F814329B6A0DF106009B
:103C480098470223437064E0D0F81432DB6A0DF120
:103C580006009847022343705BE0D2B2052A34D8A5
:103C6800DFE802F0030B131B232BD0F810325B683C
:103C78000DF10601007C98474BE0D0F810329B68A4
:103C88000DF10601007C984743E0D0F81032DB685C
:103C98000DF10601007C98473BE0D0F810321B6913
:103CA8000DF10601007C984733E0D0F810325B69CB
:103CB8000DF10601007C98472BE0D0F810329B6983
:103CC8000DF10601007C984723E02946FFF790FF95
:103CD8002DE0037C33B9D0F814325B6B0DF106008C
:103CE800984716E02946FFF783FF20E0037C43B995
:103CF800D0F814321B6B0DF1060098470723437068
:103D080007E02946FFF774FF11E02946FFF770FF27
:103D18000DE0BDF8063053B1EA8842B19A4228BF97
:103D28001A46ADF806200146204600F0B5F903B062
:103D380030BD00BF38B504468B88E3B9CB88D3B90A
:103D48008D7805F07F0590F8FC31032B02D1FFF741
:103D58004FFF38BD80F8FE512946FFF747FD204642
:103D680000F0C8F91DB1022384F8FC3138BD0123E5
:103D780084F8FC3138BD2046FFF73AFF38BD00BF54
:103D880038B504460D468978264B1970012903D9A0
:103D98002946FFF72DFF38BD90F8FC31022B02D0E1
:103DA800032B15D039E081B14160032380F8FC3141
:103DB800FFF7E2FD022804D129462046FFF718FF45
:103DC80038BD204600F096F938BD00F093F938BDAB
:103DD80049B9022380F8FC314160FFF7DBFD20463A
:103DE80000F088F938BD4368994213D0D9B2FFF77B
:103DF800D1FD0C4B197861602046FFF7BDFD022804
:103E080004D129462046FFF7F3FE38BD204600F0CE
:103E180071F938BD00F06EF938BD2946FFF7E8FEA4
:103E280038BD00BF0806002008B5CB88012B02D09A
:103E3800FFF7DEFE08BD90F8FC31022B02D0032B01
:103E480008D00CE00146002341F8083F012200F0A9
:103E580023F908BD0122011D00F01EF908BDFFF776
:103E6800C7FE08BD08B590F8FC31023B012B0CD801
:103E78000123C360D0F804320BB10323C3600222CC
:103E880000F10C0100F008F908BDFFF7B1FE08BD0C
:103E980010B5044690F8FC31023B012B0DD84B8835
:103EA800012B0CD10023C0F80432D0F814329B68DF
:103EB8009847204600F01EF910BDFFF799FE10BD87
:103EC80008B54B78092B1BD8DFE803F011171A1433
:103ED8001A08051A0E0BFFF795FE13E0FFF72AFFE5
:103EE80010E0FFF74DFF0DE0FFF79EFF0AE0FFF738
:103EF800B9FF07E0FFF758FE04E0FFF7C9FF01E04C
:103F0800FFF776FE002008BD38B504460D4690F848
:103F1800FC31032B0FD10B79012B09D8D0F81432BF
:103F28009B689847EB8843B9204600F0E3F804E023
:103F3800FFF75EFE01E0FFF75BFE002038BD00BF23
:103F480038B505460C468A880B7803F06003202BA9
:103F580004D1D0F814329B6898477DE0D1B26378D9
:103F6800012B26D0002B48D0032B75D190F8FC31BB
:103F7800022B02D0032B07D017E000296CD0802930
:103F88006AD0FFF7FFFB67E0638823B919B180297E
:103F980001D0FFF7F7FBD5F814329B682146284675
:103FA8009847284600F0A6F856E02146FFF720FE7D
:103FB80052E090F8FC31022B02D0032B07D018E016
:103FC800002949D0802947D0FFF7DCFB44E063880B
:103FD800002B41D111F07F0F07D0FFF7E3FBD5F895
:103FE80014329B68214628469847284600F082F8F4
:103FF80032E02146FFF7FCFD2EE090F8FC31022B61
:1040080002D0032B06D024E011F07F0F24D0FFF755
:10401800B9FB21E012F0800F06D001F07F040134D3
:1040280000EB0414043405E001F07F04103400EBC5
:10403800041404342846FFF7C5FB10B1012323609C
:1040480001E00023236002222146284600F024F8DC
:1040580002E02146FFF7CCFD002038BDD0B170B595
:104068000D4616460446FFF795FD0130400080B224
:104078003080287003236B70022307E05A1CD2B2E9
:104088000134E9540233DBB20021A9542178002914
:10409800F4D170BD704700BF10B513460222C0F8B6
:1040A800F4218361C3610A460021FFF7AFFB0020BA
:1040B80010BD00BF08B513460A460021FFF7A6FB4E
:1040C800002008BD10B513460322C0F8F421C0F83B
:1040D8000831C0F80C310A460021FFF7A7FB002081
:1040E80010BD00BF08B513460A460021FFF79EFB26
:1040F800002008BD08B50423C0F8F43100231A468F
:104108001946FFF783FB002008BD00BF08B505234B
:10411800C0F8F43100231A461946FFF787FB002040
:1041280008BD00BFD0F818321BB10020C3F8140234
:1041380070470220704700BF10B5D0F81842D0F879
:104148001C325BB194F80002FF2807D09B6894F8F2
:10415800012221469847FF2384F80032002010BD31
:1041680043230380004870476400002043230380F2
:1041780000487047300100204323038000487047FF
:10418800EC0000200A23038000487047E00000206C
:1041980038B50446D0F81852FFF758FBC5F80C029A
:1041A800D4F818324BB1D4F81C32DB6805F503712A
:1041B800D5F804029847002038BD022038BD00BF5A
:1041C80070B505460C46D0F818620B7813F06002FB
:1041D80024D0202A29D1CA88CAB113F0800F0BD065
:1041E800D0F81C329B68314660789847E28831469F
:1041F8002846FFF751FF18E04B7886F80032CB8845
:1042080086F80132CA883146FFF75CFF0DE0D0F826
:104218001C329B6800224878984706E04B780A2BA6
:1042280003D101220249FFF737FF002070BD00BF0C
:104238000906002010B504468121FFF793FA0121F1
:104248002046FFF78FFA82212046FFF78BFAD4F831
:10425800183253B1D4F81C325B689847D4F8180266
:10426800FFF7FEFA0023C4F81832002010BD00BF83
:1042780038B50446037C6BB94FF4007302228121E0
:10428800FFF75EFA4FF40073022201212046FFF780
:1042980057FA0AE0402302228121FFF751FA40230E
:1042A800022201212046FFF74BFA0823032282212C
:1042B8002046FFF745FA4FF40770FFF7CDFA054699
:1042C800C4F81802E8B1D4F81C321B6898470023D8
:1042D800C5F81432C5F81832237C4BB94FF4007373
:1042E800D5F8042201212046FFF7A0FA002038BDA6
:1042F8004023D5F8042201212046FFF797FA002031
:1043080038BD012038BD00BF19B1C0F81C1200200B
:1043180070470220704700BFD0F81832C3F808125F
:10432800C3F8102200207047D0F81832C3F80412DE
:1043380000207047D0F818229AB108B5037C43B919
:104348004FF40073D2F804220121FFF76FFA00201E
:1043580008BD4023D2F804220121FFF767FA0020A4
:1043680008BD0220704700BF81F0004102E000BF95
:1043780083F0004330B54FEA41044FEA430594EA1D
:10438800050F08BF90EA020F1FBF54EA000C55EA58
:10439800020C7FEA645C7FEA655C00F0E2804FEA29
:1043A8005454D4EB5555B8BF6D420CDD2C4480EA0B
:1043B800020281EA030382EA000083EA010180EA3B
:1043C800020281EA0303362D88BF30BD11F0004F89
:1043D8004FEA01314FF4801C4CEA113102D04042BF
:1043E80061EB410113F0004F4FEA03334CEA1333FA
:1043F80002D0524263EB430394EA050F00F0A78012
:10440800A4F10104D5F1200E0DDB02FA0EFC22FA0C
:1044180005F2801841F1000103FA0EF2801843FA00
:1044280005F359410EE0A5F120050EF1200E012AF1
:1044380003FA0EFC28BF4CF0020C43FA05F3C0182F
:1044480051EBE37101F0004507D54FF0000EDCF1A8
:10445800000C7EEB00006EEB0101B1F5801F1BD351
:10446800B1F5001F0CD349085FEA30004FEA3C0C55
:1044780004F101044FEA445212F5800F80F09A804B
:10448800BCF1004F08BF5FEA500C50F1000041EB4F
:10449800045141EA050130BD5FEA4C0C404141EB53
:1044A800010111F4801FA4F10104E9D191F0000F7A
:1044B80004BF01460020B1FA81F308BF2033A3F1FD
:1044C8000B03B3F120020CDA0C3208DD02F1140CF4
:1044D800C2F10C0201FA0CF021FA02F10CE002F12F
:1044E8001402D8BFC2F1200C01FA02F120FA0CFC28
:1044F800DCBF41EA0C019040E41AA2BF01EB045171
:10450800294330BD6FEA04041F3C1CDA0C340EDC6E
:1045180004F11404C4F1200220FA04F001FA02F3B1
:1045280040EA030021FA04F345EA030130BDC4F16F
:104538000C04C4F1200220FA02F001FA04F340EA64
:104548000300294630BD21FA04F0294630BD94F015
:10455800000F83F4801306BF81F480110134013DFC
:104568004EE77FEA645C18BF7FEA655C29D094EA6D
:10457800050F08BF90EA020F05D054EA000C04BFEB
:104588001946104630BD91EA030F1EBF00210020D6
:1045980030BD5FEA545C05D14000494128BF41F075
:1045A800004130BD14F580043CBF01F5801130BDD9
:1045B80001F0004545F0FE4141F470014FF0000064
:1045C80030BD7FEA645C1ABF194610467FEA655C15
:1045D8001CBF0B46024650EA013406BF52EA0335B7
:1045E80091EA030F41F4002130BD00BF90F0000FA5
:1045F80004BF0021704730B54FF4806404F13204E1
:104608004FF000054FF0000150E700BF90F0000F99
:1046180004BF0021704730B54FF4806404F13204C0
:1046280010F0004548BF40424FF000013EE700BF90
:1046380042004FEAE2014FEA31014FEA02701FBF20
:1046480012F07F4393F07F4F81F06051704792F0F2
:10465800000F14BF93F07F4F704730B54FF460746C
:1046680001F0004521F0004120E700BF50EA0102B7
:1046780008BF704730B54FF000050AE050EA010264
:1046880008BF704730B511F0004502D5404261EBD4
:1046980041014FF4806404F132045FEA915C3FF415
:1046A800DCAE4FF003025FEADC0C18BF03325FEAAE
:1046B800DC0C18BF033202EBDC02C2F1200300FA63
:1046C80003FC20FA02F001FA03FE40EA0E0021FA88
:1046D80002F11444C1E600BF70B54FF0FF0C4CF472
:1046E800E06C1CEA11541DBF1CEA135594EA0C0F28
:1046F80095EA0C0F00F0DEF82C4481EA030621EA63
:104708004C5123EA4C5350EA013518BF52EA03359D
:1047180041F4801143F4801338D0A0FB02CE4FF04F
:104728000005E1FB02E506F00042E0FB03E54FF07F
:104738000006E1FB03569CF0000F18BF4EF0010E77
:10474800A4F1FF04B6F5007F64F5407404D25FEA73
:104758004E0E6D4146EB060642EAC62141EA555126
:104768004FEAC52040EA5E504FEACE2EB4F1FD0C68
:1047780088BFBCF5E06F1ED8BEF1004F08BF5FEAE6
:10478800500E50F1000041EB045170BD06F0004698
:1047980046EA010140EA020081EA0301B4EB5C0445
:1047A800C2BFD4EB0C0541EA045170BD41F480113D
:1047B8004FF0000E013C00F3AB8014F1360FDEBF62
:1047C800002001F0004170BDC4F10004203C35DA3E
:1047D8000C341BDC04F11404C4F1200500FA05F3C1
:1047E80020FA04F001FA05F240EA020001F0004262
:1047F80021F0004110EBD37021FA04F642EB0601D8
:104808005EEA430E08BF20EAD37070BDC4F10C0401
:10481800C4F1200500FA04F320FA05F001FA04F2C5
:1048280040EA020001F0004110EBD37041F10001B1
:104838005EEA430E08BF20EAD37070BDC4F12005BC
:1048480000FA05F24EEA020E20FA04F301FA05F224
:1048580043EA020321FA04F001F0004121FA04F2CC
:1048680020EA020000EBD3705EEA430E08BF20EA9C
:10487800D37070BD94F0000F0FD101F000464000D6
:1048880041EB010111F4801F08BF013CF7D041EA58
:10489800060195F0000F18BF704703F0004652005C
:1048A80043EB030313F4801F08BF013DF7D043EA2D
:1048B8000603704794EA0C0F0CEA135518BF95EAE3
:1048C8000C0F0CD050EA410618BF52EA4306D1D16A
:1048D80081EA030101F000414FF0000070BD50EA89
:1048E800410606BF1046194652EA430619D094EA13
:1048F8000C0F02D150EA013613D195EA0C0F05D1FD
:1049080052EA03361CBF104619460AD181EA030150
:1049180001F0004141F0FE4141F470014FF0000008
:1049280070BD41F0FE4141F4780170BD70B54FF0A3
:10493800FF0C4CF4E06C1CEA11541DBF1CEA135523
:1049480094EA0C0F95EA0C0F00F0A7F8A4EB050405
:1049580081EA030E52EA03354FEA013100F08880FC
:104968004FEA03334FF0805545EA131343EA1263C5
:104978004FEA022245EA111545EA10654FEA00267A
:104988000EF000419D4208BF964244F1FD0404F533
:10499800407402D25B084FEA3202B61A65EB03058F
:1049A8005B084FEA32024FF480104FF4002CB6EB4C
:1049B800020E75EB030E22BFB61A754640EA0C00CC
:1049C8005B084FEA3202B6EB020E75EB030E22BF0C
:1049D800B61A754640EA5C005B084FEA3202B6EB4D
:1049E800020E75EB030E22BFB61A754640EA9C000C
:1049F8005B084FEA3202B6EB020E75EB030E22BFDC
:104A0800B61A754640EADC0055EA060E18D04FEA99
:104A1800051545EA16754FEA06164FEAC30343EA39
:104A280052734FEAC2025FEA1C1CC0D111F4801F06
:104A38000BD141EA00014FF000004FF0004CB6E7FF
:104A480011F4801F04BF01430020B4F1FD0C88BF9E
:104A5800BCF5E06F3FF6AFAEB5EB030C04BFB6EBA9
:104A6800020C5FEA500C50F1000041EB045170BD9C
:104A78000EF0004E4EEA113114EB5C04C2BFD4EBC9
:104A88000C0541EA045170BD41F480114FF0000E4D
:104A9800013C90E645EA060E8DE60CEA135594EAC9
:104AA8000C0F08BF95EA0C0F3FF43BAF94EA0C0FCC
:104AB8000AD150EA01347FF434AF95EA0C0F7FF441
:104AC80025AF104619462CE795EA0C0F06D152EA95
:104AD80003353FF4FDAE1046194622E750EA410679
:104AE80018BF52EA43067FF4C5AE50EA41047FF48A
:104AF8000DAF52EA43057FF4EBAE12E74FEA4102ED
:104B0800B2F1E04324BFB3F5001CDCF1FE5C0DD923
:104B180001F0004C4FEAC0024CEA5070B2F1004F6D
:104B280040EB830008BF20F00100704711F0804F70
:104B380021D113F13872BCBF01F00040704741F435
:104B480080114FEA5252C2F11802C2F1200C10FA39
:104B58000CF320FA02F018BF40F001004FEAC1231D
:104B68004FEAD32303FA0CFC40EA0C0023FA02F3C1
:104B78004FEA4303CCE77FEA625307D150EA013397
:104B88001EBF4FF0FE4040F44000704701F0004067
:104B980040F0FE4040F40000704700BF80F0004045
:104BA80002E000BF81F0004142001FBF5FEA4103FD
:104BB80092EA030F7FEA226C7FEA236C6AD04FEAFD
:104BC8001262D2EB1363C1BFD21841404840414042
:104BD800B8BF5B42192B88BF704710F0004F40F4F4
:104BE800000020F07F4018BF404211F0004F41F410
:104BF800000121F07F4118BF494292EA030F3FD0DC
:104C0800A2F1010241FA03FC10EB0C00C3F12003EE
:104C180001FA03F100F0004302D5494260EB40007D
:104C2800B0F5000F13D3B0F1807F06D340084FEAE8
:104C3800310102F10102FE2A51D2B1F1004F40EBDD
:104C4800C25008BF20F0010040EA03007047490045
:104C580040EB000010F4000FA2F10102EDD1B0FA10
:104C680080FCACF1080CB2EB0C0200FA0CF0AABF05
:104C780000EBC25052421843BCBFD04018437047A3
:104C880092F0000F81F4000106BF80F400000132A9
:104C9800013BB5E74FEA41037FEA226C18BF7FEA80
:104CA800236C21D092EA030F04D092F0000F08BFC2
:104CB8000846704790EA010F1CBF0020704712F0A9
:104CC8007F4F04D1400028BF40F00040704712F1E8
:104CD80000723CBF00F50000704700F0004343F04D
:104CE800FE4040F4000070477FEA226216BF084683
:104CF8007FEA23630146420206BF5FEA412390EA46
:104D0800010F40F4800070474FF0000304E000BF3B
:104D180010F0004348BF40425FEA000C08BF7047EC
:104D280043F0964301464FF000001CE050EA0102B0
:104D380008BF70474FF000030AE000BF50EA0102C5
:104D480008BF704711F0004302D5404261EB4101B2
:104D58005FEA010C02BF84460146002043F0B643D7
:104D680008BFA3F18053A3F50003BCFA8CF2083AFC
:104D7800A3EBC25310DB01FA02FC634400FA02FC05
:104D8800C2F12002BCF1004F20FA02F243EB02000C
:104D980008BF20F00100704702F1200201FA02FC6E
:104DA800C2F1200250EA4C0021FA02F243EB020061
:104DB80008BF20EADC7070474FF0FF0C1CEAD052A5
:104DC8001EBF1CEAD15392EA0C0F93EA0C0F6FD066
:104DD8001A4480EA010C400218BF5FEA41211ED044
:104DE8004FF0006343EA501043EA5111A0FB013130
:104DF8000CF00040B1F5000F3EBF490041EAD37105
:104E08005B0040EA010062F17F02FD2A1DD8B3F180
:104E1800004F40EBC25008BF20F00100704790F0EF
:104E2800000F0CF0004C08BF49024CEA502040EA41
:104E380051207F3AC2BFD2F1FF0340EAC250704707
:104E480040F400004FF00003013A5DDC12F1190F45
:104E5800DCBF00F000407047C2F10002410021FAB7
:104E680002F1C2F1200200FA02FC5FEA310040F1CF
:104E7800000053EA4C0308BF20EADC70704792F048
:104E8800000F00F0004C02BF400010F4000F013A80
:104E9800F9D040EA0C0093F0000F01F0004C02BF7B
:104EA800490011F4000F013BF9D041EA0C018FE7EA
:104EB8000CEAD15392EA0C0F18BF93EA0C0F0AD0F0
:104EC80030F0004C18BF31F0004CD8D180EA010016
:104ED80000F00040704790F0000F17BF90F0004FAF
:104EE800084691F0000F91F0004F14D092EA0C0F91
:104EF80001D142020FD193EA0C0F03D14B0218BF24
:104F0800084608D180EA010000F0004040F0FE4069
:104F180040F40000704740F0FE4040F44000704705
:104F28004FF0FF0C1CEAD0521EBF1CEAD15392EA84
:104F38000C0F93EA0C0F69D0A2EB030280EA010C74
:104F480049024FEA402037D04FF0805343EA11110D
:104F580043EA10130CF000408B4238BF5B0042F16B
:104F68007D024FF4000C8B4224BF5B1A40EA0C0010
:104F7800B3EB510F24BFA3EB510340EA5C00B3EB42
:104F8800910F24BFA3EB910340EA9C00B3EBD10F30
:104F980024BFA3EBD10340EADC001B0118BF5FEA82
:104FA8001C1CE0D1FD2A3FF650AF8B4240EBC250AB
:104FB80008BF20F0010070470CF0004C4CEA50206C
:104FC8007F32C2BFD2F1FF0340EAC250704740F4BB
:104FD80000004FF00003013A37E792F0000F00F0AD
:104FE800004C02BF400010F4000F013AF9D040EA2B
:104FF8000C0093F0000F01F0004C02BF490011F4BF
:10500800000F013BF9D041EA0C0195E70CEAD153B6
:1050180092EA0C0F08D142027FF47DAF93EA0C0F9D
:105028007FF470AF084676E793EA0C0F04D14B0281
:105038003FF44CAF08466EE730F0004C18BF31F033
:10504800004CCAD130F000427FF45CAF31F000432D
:105058007FF43CAF5FE700BF4FF0FF3C06E000BFC6
:105068004FF0010C02E000BF4FF0010C4DF804CDE9
:105078004FEA40024FEA41037FEA226C18BF7FEAF9
:10508800236C11D001B052EA530C18BF90EA010FFB
:1050980058BFB2EB030088BFC81738BF6FEAE1708A
:1050A80018BF40F0010070477FEA226C02D15FEA26
:1050B800402C05D17FEA236CE4D15FEA412CE1D092
:1050C8005DF8040B704700BF844608466146FFE759
:1050D8000FB5FFF7C9FF002848BF10F1000F0FBD3B
:1050E8004DF808EDFFF7F4FF0CBF012000205DF834
:1050F80008FB00BF4DF808EDFFF7EAFF34BF0120B9
:1051080000205DF808FB00BF4DF808EDFFF7E0FF51
:1051180094BF012000205DF808FB00BF4DF808EDA2
:10512800FFF7D2FF94BF012000205DF808FB00BF05
:105138004DF808EDFFF7C8FF34BF012000205DF8E7
:1051480008FB00BF4FEA4002B2F1FE4F0FD34FF009
:105158009E03B3EB12620DD94FEA002343F00043DC
:1051680010F0004F23FA02F018BF404270474FF08A
:105178000000704712F1610F01D1420205D110F011
:10518800004008BF6FF0004070474FF000007047C4
:105198000A22002100F01ABD014B1868704700BFB1
:1051A800D401002010B5431E0A44914204D011F8DE
:1051B800014B03F8014FF8E710BD03460244934240
:1051C80002D003F8011BFAE770472DE9F04788B0D1
:1051D800149F002B1E461299B8BF03F1004327F015
:1051E8002007B6BF1E4600232D23462F1446109DC8
:1051F800DDF84CA00B7003D0452F03D1013501E039
:10520800032300E0022307AA049206AA03928DE86A
:1052180028042246334600F0B7FD472F804602D1C6
:10522800119BDB0728D5462F08EB050911D198F803
:105238000030302B0AD1002200232046314602F0EC
:1052480011F918B9C5F10105CAF80050DAF80030AB
:105258009944002200232046314602F003F908B998
:10526800302202E0CDF81C9006E0079B994503D94F
:10527800591C07911A70F8E74046079B159AC8EB26
:105288000303136008B0BDE8F087034673B500292F
:10529800B8BF494203F8022BB4BF2D222B2209299B
:1052A80042701ADD0DF1070216460A2591FBF5F446
:1052B80005FB1411092C01F1300102F8011D2146EA
:1052C800F4DC3031541E02F8011CB4421A460AD2EA
:1052D80014F8012B03F8012BF7E71A463024214470
:1052E80002F8024B5970101A02B070BD2DE9F04F48
:1052F80091B00C46DDF8688016461F46054601F059
:10530800DFFA03681846099300F0D0FB00230E93D8
:10531800D8F800300A90073323F0070303F1080296
:1053280094F81890D4F800B0C8F80020D3E9002306
:10533800C4E91223D4F84CA0D4F848802AF00043DA
:105348000B934FF0FF32A74B40460B9902F0BCF885
:10535800A0B94FF0FF32A34B40460B9902F096F8E4
:1053680060B9002200234046514602F085F810B18A
:105378002D2384F843309C4B9C4A0AE0424653460E
:105388004046514602F0A0F8002800F09281984B60
:10539800984AB9F1470F8CBF90469846032323617A
:1053A8002BF0040323604FF0000A3DE0B9F1670FCA
:1053B80000F08A81B9F1470F00F0868123600193DC
:1053C800636800210DF13302059002920093424672
:1053D80053460691CDF81090CDF80CE02846FFF71B
:1053E800F4FE09F0DF03472B804600F08481B9F111
:1053F800650F0D9900F28D8101394A4604F150007C
:105408000D91FFF742FF0E9A82468318012A236105
:1054180000F37C812268D10700F178819DF8333050
:1054280013B12D2384F84330009733460FAA214641
:10543800284600F09FF9013002D14FF0FF3096E185
:1054480023685A0501D4236965E0B9F1650F40F274
:10545800D580D4E912010022002302F003F878B3C2
:105468000123654A31462846B8470130E5D00E9BEE
:105478000D9A9A420BDB2368D80708D423689B0748
:1054880040F111814FF0000804F1190906E10A9B67
:10549800099A31462846B8470130CED04FF0000867
:1054A80004F11A090E9B013B9845E7DA01234A46A5
:1054B80031462846B8470130BFD008F10108F1E766
:1054C8000D9B002B29DC01234B4A31462846B8475F
:1054D8000130B2D00D9B23B90E9B13B92368D907AD
:1054E800CCD50A9B099A31462846B8470130A4D042
:1054F8004FF0000904F11A0A0D9B5B42994509DA3D
:105508000123524631462846B847013095D009F163
:105518000109F1E70E9B4246A7E00E9AA36D9A4255
:10552800A8BF1A46002A914606DC4FF0000A29EA6D
:10553800E97904F11A0B11E0134631464246284630
:10554800B8470130F1D178E701235A463146284659
:10555800B84701303FF471AF0AF1010AA36DC9EBF6
:1055680003029245F0DB08EB03090D9A0E9B9A4261
:105578000FDB2368DA070CD40E9B0D9A9844C9EB0D
:1055880008089B1A9845A8BF9846B8F1000F08DC90
:105598000FE00A9B099A31462846B8470130EBD1FB
:1055A8004BE743464A4631462846B84701303FF460
:1055B80044AF4FF0000928EAE87804F11A0A09E034
:1055C8000123524631462846B84701303FF435AFEB
:1055D80009F101090D9A0E9B9B1AC8EB0303994523
:1055E800EEDB4BE7FFFFEF7F10770008147700082A
:1055F800187700081C770008207700080E9A012AFF
:1056080001DCDB0738D50123424631462846B84736
:1056180001303FF412AF0A9B099A31462846B84731
:1056280001303FF40AAFD4E912010022002301F04F
:1056380019FF20B14FF0000804F11A090EE00E9B83
:1056480008F10102013B19E001234A463146284688
:10565800B84701303FF4F1AE08F101080E9B013B59
:105668009845F1DB534604F1500231462846B847C5
:1056780001307FF403AFE0E6424601233146284675
:10568800B8470130EED1D8E601234A4631462846CC
:10569800B84701303FF4D1AE08F10108E3680F9A2A
:1056A8009B1A9845F0DBE0680F9B9842B8BF1846F4
:1056B8005DE062680EA8531C0DF1340E4BF4806354
:1056C8007FF474AE062201E012B90122626075E629
:1056D800002106910DF133018DE80C00236005903F
:1056E8004246CDF81090CDF80CE00291534628467A
:1056F800FFF76BFD80460D9BD81C02DB6268934266
:105708001DDDA9F102095FFA89F970E60133236109
:1057180084E6B9F1660F14D10029636807DD2161B9
:1057280013B92268D2071DD501330B4419E013B908
:105738002268D00701D5023313E0012311E04FF0AE
:1057480067090D9B0E9A934205DB22682361D107F6
:1057580008D5013305E0002BD4BFC3F102030123B0
:10576800134423610D9B4FF0000AA36556E611B060
:10577800BDE8F08F2DE9F04791461F460A698B680E
:1057880006469342B8BF1346C9F8003091F8432043
:105798000C46DDF8208012B10133C9F800302368C7
:1057A800990642BFD9F800300233C9F8003025689D
:1057B80015F0060510D104F1190A07E00123524635
:1057C80039463046C04701301AD00135E368D9F868
:1057D80000209B1A9D42F1DB94F843302268003385
:1057E80018BF012392060FD5E118302081F8430035
:1057F8005A1C94F845102244023382F8431003E0FF
:105808004FF0FF30BDE8F08704F1430239463046D7
:10581800C0470130F4D02268D9F80050E36802F09C
:105828000602042A08BF5D1B2269A3680CBF25EA8B
:10583800E57500259342C4BF9B1AED184FF0000987
:105848001A344D4509D00123224639463046C0470F
:105858000130D5D009F10109F3E70020BDE8F08750
:105868002DE9F04317460A7E85B06E2A984606460B
:105878000C460C9B01F1430E00F0AE8011D8632A50
:1058880022D009D8002A00F0BB80582A40F0CA80EC
:1058980081F84520834955E0642A1ED0692A1CD026
:1058A800C0E0732A00F0B08009D86F2A2ED0702A81
:1058B80040F0B8800A6842F020020A603EE0752A8B
:1058C80024D0782A3AD0ADE01A6801F14205111DBA
:1058D8001960136884F84230A8E021681A6811F04A
:1058E800800F02D0111D196008E011F0400F02F17D
:1058F8000401196002D0B2F9003000E01368002BEF
:105908003CDA2D225B4284F8432037E021681A688C
:1059180011F0800F02D0111D196007E011F0400F3F
:1059280002F10401196001D0138800E01368227E97
:105938005C496F2A14BF0A2208221BE078225A49C0
:1059480084F845202268186812F0800F00F10405D9
:105958001D6003D1550601D5038800E00368D00710
:1059680044BF42F0200222601BB9226822F02002C4
:1059780022601022002084F8430001E049490A22ED
:105988006568002DA56008DB206820F00400206011
:105998002BB9002D7DD175460CE0002B79D07546CA
:1059A800B3FBF2F002FB1033CB5C05F8013D034674
:1059B8000028F5D1082A0BD12368DA0708D523690E
:1059C80062689A42DEBF302305F8013C05F1FF35D5
:1059D800C5EB0E0323612EE008681A6810F0800FEB
:1059E800496903D0101D1860136808E010F0400FD3
:1059F80002F104001860136801D0198000E01960F2
:105A080000232361754616E01A68111D1960156890
:105A180000216268284600F07BFF08B1401B6060E7
:105A2800636804E004F1420584F8422001232361FD
:105A3800002384F84330CDF800803B4603AA214672
:105A48003046FFF797FE013002D14FF0FF3026E0D5
:105A580023692A4639463046C0470130F5D02368C5
:105A68009B0710D5002504F1190907E001234A46D0
:105A780039463046C0470130E7D00135E368039A1C
:105A88009B1A9D42F2DBE068039B9842B8BF184618
:105A980005E00B7804F1420584F842308AE705B046
:105AA800BDE8F0832277000833770008034613F82F
:105AB800012B002AFBD1181A013870472DE9F0474D
:105AC8008046894692461E460F463D46089815F878
