:020000040800F2
:100000000050002021020008B1160008B5160008B3
:10001000B9160008BD160008C1160008000000004F
:10002000000000000000000000000000C5160008ED
:10003000C916000800000000CD160008D1160008FF
:100040007D1300087D1300087D1300087D13000850
:100050007D1300087D1300087D1300087D13000840
:100060007D1300087D1300087D1300087D13000830
:100070007D1300087D1300087D1300087D13000820
:100080007D1300087D1300087D1300087D13000810
:100090007D1300087D1300087D1300087D13000800
:1000A0007D1300087D1300087D1300087D130008F0
:1000B000D91600087D1300087D1300087D13000881
:1000C0007D1300087D1300087D1300087D130008D0
:1000D0007D1300087D1300087D1300087D130008C0
:1000E0007D1300087D1300087D1300080000000048
:1000F0000000000000000000000000000000000000
:1001000000000000000000005FF808F100B583B0B7
:1001100001F09CF8304B314A1360314A1360314B87
:10012000314A03E011681960043304322F498B42CD
:10013000F8D32A4B1A682E4B9A4204D1284B1A68DE
:100140002C4B9A4200D0FEE7234B2B4A13602B4ADC
:1001500013602B4B02E000221A600433294A9342B9
:10016000F9D3254B1B6813B9244B1B6803B1FEE779
:1001700001F078F8694601A801F012F8224C234BEF
:100180001C1BA410002504E01F4B53F82530984792
:100190000135AC42F8DC1E4C1E4B1C1BA410002584
:1001A00004E01B4B53F8253098470135AC42F8DC8E
:1001B0000099019801F0FAF90546174C174B1C1BE2
:1001C000A41004E0013C144B53F824309847002C51
:1001D000F8DC284600F0C0FFBABADECA00000020F2
:1001E0008C000020000000202C210008900000203E
:1001F0007856341232547698900000207001002016
:1002000090000020740100207803000878030008A3
:1002100078030008780300087803000878030008D2
:1002200008B5FFF773FF00BF00BEFEE71EF0040F26
:100230000CBFEFF30880EFF309807146414A104785
:100240002DE9F04182B004468846134B5E6B9F6BEC
:100250009D6A1B6B13F0020F0DD00F4BDB6A002B56
:1002600009DA4BF6AB6101F079F820B14FF00042AA
:10027000094BDA620CE0094800F09AFFCDF80080E3
:100280003B4632462946204600F0F0FF00BEFEE71E
:1002900002B0BDE8F08100BF00ED00E0BC20000826
:1002A00000BEFEE71EF0040F0CBFEFF30880EFF373
:1002B00009807146244A10472DE9F04182B0044676
:1002C0008846084B5E6B9F6B9D6A074800F070FF85
:1002D000CDF800803B4632462946204600F0C6FF56
:1002E00000BEFEE700ED00E0CC2000081EF0040F89
:1002F0000CBFEFF30880EFF309807146134A1047F3
:100300002DE9F04182B004468846084B5E6B9F6B36
:100310009D6A074800F04CFFCDF800803B4632460E
:100320002946204600F0A2FF00BEFEE700ED00E0F7
:10033000D820000800BEFEE700BEFEE700BEFEE7D4
:100340007047000041020008B902000801030008DC
:100350002C21000800000020900000202C21000823
:100360000000001000000010900000207401002028
:08037000000000100000001065
:1003780010B504460E4B18784FF47A73B3FBF0F3BC
:100388000C4A1068B0FBF3F000F0A0F858B90F2C35
:100398000BD8002221464FF0FF3000F059F8064BE9
:1003A8001C60002010BD012010BD012010BD00BF41
:1003B80008000020140000200400002008B5074AA7
:1003C800136843F010031360032000F02FF8002097
:1003D800FFF7CEFF01F028F9002008BD00200240F9
:1003E800034A1368034909780B441360704700BF38
:1003F8002801002008000020014B1868704700BF42
:100408002801002038B50446FFF7F6FF0546B4F189
:10041800FF3F02D0044B1B781C44FFF7EDFF401B45
:100428008442FAD838BD00BF08000020074AD368C4
:1004380023F4E0631B041B0C000200F4E060184383
:1004480040F0BF6040F40030D060704700ED00E03D
:1004580030B4164BDB68C3F30223C3F10704042C42
:1004680028BF04241D1D062D01D9DD1E00E000252E
:10047800012303FA04F4013C2140A940AB40013BAD
:100488001A400A43002806DA00F00F001201D2B21F
:10049800074B1A5407E01201D2B200F1604000F590
:1004A800614080F8002330BC704700BF00ED00E0D9
:1004B80014ED00E0420900F01F00012303FA00F0E8
:1004C800014B43F82200704700E100E00138B0F129
:1004D800807F0AD2064B5860F021064A82F8231022
:1004E8000020986007221A6070470120704700BFFB
:1004F80010E000E000ED00E0F0B583B000263446DF
:10050800D5E00122A2400B6813409A4240F0CE8009
:100518004D68122D2DD00BD8022D27D003D85DB3EE
:10052800012D1ED035E0032D30D0112D1BD030E029
:10053800614FBD4220D008D8A7F58017BD421BD017
:1005480007F58037BD4224D116E05C4FBD4213D079
:1005580007F58037BD420FD0A7F58017BD4218D1E7
:100568000AE0CE6815E0CE68043612E0CE68083698
:100578000FE0CE680C360CE08D684DB1012D02D12C
:100588000261082605E04261082602E0002600E034
:100598000426FF2B01D8864601E000F1040EFF2B4C
:1005A80001D8A20002E0A4F108029200DEF800706F
:1005B8000F25954027EA050506FA02F22A43CEF8E8
:1005C80000204A6812F0805F70D03D4A956945F076
:1005D80001059561926902F001020192019AA7084A
:1005E800BD1C384A52F8255004F0030292004FF01F
:1005F8000F0E0EFA02FE25EA0E0E334DA8420DD05C
:1006080005F58065A8420BD005F58065A84209D09C
:1006180005F58065A84207D1032506E0002504E01A
:10062800012502E0022500E0042505FA02F24EEA5F
:1006380002020237234D45F827204A6812F4803F0A
:1006480005D005F580652A681A432A6004E01F4D25
:100658002A6822EA03022A604A6812F4003F04D09A
:100668001A4D6A681A436A6004E0184D6A6822EAFB
:1006780003026A604A6812F4801F04D0134DAA6806
:100688001A43AA6004E0114DAA6822EA0302AA608C
:100698004A6812F4001F04D00C4DEA681343EB605B
:1006A80004E00A4DEA6822EA0303EB6001340F2CE8
:1006B8007FF627AF03B0F0BD000021100000311015
:1006C8000010024000000140000801400004014001
:1006D8000AB101617047090401617047C368594054
:1006E800C160704782B0084B1B68084AA2FB03230D
:1006F8005B0A00FB03F0019000BF019B5A1E0192A8
:10070800002BF9D102B0704714000020D34D6210BD
:1007180070B582B00446036813F0010F6BD0A84B84
:100728005B6803F00C03042B0AD0A54B5B6803F04D
:100738000C03082B0DD1A24B5B6813F4803F08D043
:100748009F4B1B6813F4003F55D06368002B52D1B0
:10075800B8E16368B3F5803F05D1994A136843F45B
:100768008033136026E063B903F1804303F5043353
:100778001A6822F480321A601A6822F480221A60F9
:1007880018E0B3F5A02F0CD103F18043A3F53C3357
:100798001A6842F480221A601A6842F480321A6099
:1007A80008E0874B1A6822F480321A601A6822F42B
:1007B80080221A6063687BB1FFF71EFE054605E0DC
:1007C800FFF71AFE401B642800F27E817C4B1B68F1
:1007D80013F4003FF4D00EE0FFF70EFE054605E0E7
:1007E800FFF70AFE401B642800F27081744B1B68F7
:1007F80013F4003FF4D1236813F0020F50D0704B6C
:100808005B6813F00C0F0AD06D4B5B6803F00C03A8
:10081800082B16D16A4B5B6813F4803F11D1684BE3
:100828001B6813F0020F03D02369012B40F050819D
:10083800634A136823F0F803616943EAC10313604C
:100848002EE02369D3B101225E4B1A60FFF7D4FD75
:10085800054605E0FFF7D0FD401B022800F23A816B
:10086800574B1B6813F0020FF4D0554A136823F056
:10087800F803616943EAC103136011E00022514B98
:100888001A60FFF7B9FD054605E0FFF7B5FD401B07
:10089800022800F221814A4B1B6813F0020FF4D1A1
:1008A800236813F0080F29D0A369ABB10122464B86
:1008B8001A60FFF7A1FD054605E0FFF79DFD401B07
:1008C800022800F20B813E4B5B6A13F0020FF4D052
:1008D8000120FFF707FF11E000223B4B1A60FFF7EA
:1008E8008BFD054605E0FFF787FD401B022800F257
:1008F800F780334B5B6A13F0020FF4D1236813F0CF
:10090800040F00F089802E4BDB6913F0805F0BD158
:100918002B4BDA6942F08052DA61DB6903F08053CD
:100928000193019B012500E00025284B1B6813F467
:10093800807F13D1254A136843F480731360FFF74F
:100948005BFD064605E0FFF757FD801B642800F2B3
:10095800C9801E4B1B6813F4807FF4D0E368012B19
:1009680005D1174A136A43F00103136222E063B901
:1009780003F1804303F504331A6A22F001021A6274
:100988001A6A22F004021A6214E0052B09D10C4BF2
:100998001A6A42F004021A621A6A42F001021A62E2
:1009A80008E0074B1A6A22F001021A621A6A22F05A
:1009B80004021A62E368CBB1FFF71EFD06460FE09A
:1009C8000010024000004242800442420070004091
:1009D800FFF712FD801B41F28833984200F28480B1
:1009E800494B1B6A13F0020FF2D00FE0FFF704FD2A
:1009F800064606E0FFF700FD801B41F28833984267
:100A080074D8414B1B6A13F0020FF3D125B13E4A4B
:100A1800D36923F08053D361E369002B68D03A4A45
:100A2800526802F00C02082A64D0022B37D1002247
:100A3800364B1A60FFF7E0FC054604E0FFF7DCFCE4
:100A4800401B022858D8304B1B6813F0007FF5D1A3
:100A5800236AB3F5803F06D12B494B6823F4003253
:100A6800A36813434B602848436823F47411236A2E
:100A7800626A13430B4343600122244B1A60FFF759
:100A8800BBFC044604E0FFF7B7FC001B022835D87E
:100A98001D4B1B6813F0007FF5D0002031E00022C9
:100AA8001A4B1A60FFF7A8FC044604E0FFF7A4FC01
:100AB800001B022824D8144B1B6813F0007FF5D1C3
:100AC80000201EE001201CE003201AE0032018E0AB
:100AD800012016E0032014E0032012E0032010E0B8
:100AE80003200EE003200CE003200AE0032008E0C6
:100AF800002006E0012004E0032002E0032000E0DB
:100B0800032002B070BD00BF0010024060004242E6
:100B180030B486B0164D02AC28686968AA68EB68DC
:100B28000FC42B8AADF80430124B5B6803F00C023B
:100B3800082A19D1C3F3834206A90A4412F8100CF3
:100B480013F4803F0CD00B4B5B68C3F340430B445A
:100B580013F8142C084B03FB00F0B0FBF2F004E090
:100B6800064B03FB00F000E0034806B030BC7047BA
:100B78008C1F00080010024000127A0000093D0096
:100B880070B5654B1B6803F007038B420BD2624AB2
:100B9800136823F007030B431360136803F007037C
:100BA800994240F0A880036813F0020F17D013F0A1
:100BB800040F04D0594A536843F4E0635360036850
:100BC80013F0080F04D0554A536843F46053536038
:100BD800524C636823F0F0028368134363600D4648
:100BE8000446036813F0010F4DD04268012A05D16D
:100BF8004A4B1B6813F4003F0DD17EE0022A05D151
:100C0800464B1B6813F0007F05D178E0434B1B6807
:100C180013F0020F75D041494B6823F003031343C7
:100C28004B60FFF7E9FB06466368012B0ED106E02F
:100C3800FFF7E2FB801B41F28833984263D8374BB9
:100C48005B6803F00C03042BF2D11CE0022B15D1D6
:100C580006E0FFF7D1FB801B41F28833984254D855
:100C68002E4B5B6803F00C03082BF2D10BE0FFF767
:100C7800C3FB801B41F28833984248D8274B5B68F6
:100C880013F00C0FF3D1244B1B6803F007039D42AC
:100C98000AD2214A136823F007032B431360136811
:100CA80003F007039D4234D1236813F0040F06D0E4
:100CB8001A494B6823F4E062E36813434B602368E6
:100CC80013F0080F07D0154A536823F460532169BD
:100CD80043EAC1035360FFF71BFF104B5B68C3F384
:100CE80003130F4AD35CD8400E4B18600020FFF75F
:100CF8003FFB002070BD012070BD012070BD0120A8
:100D080070BD012070BD032070BD032070BD03209D
:100D180070BD012070BD00BF0020024000100240DD
:100D2800E82000081400002010B4036A046A24F0C4
:100D380001040462846924F0F00444EA021223F0F6
:100D48000A0319438261016210BC704710B4036A38
:100D580023F0100303628469036A24F4704444EAAC
:100D6800023223F0A00343EA01118261016210BC40
:100D7800704700BF836823F0700341F007010B43FD
:100D88008360704710B4846824F47F4442EA0323E4
:100D9800194344EA0103836010BC70470268D368B2
:100DA80043F00103D3600268136843F00103136042
:100DB8000020704790F83C30012B00F0838010B57C
:100DC8000446012380F83C30022380F83D30026855
:100DD800936823F47F4323F0770393600B68402BD9
:100DE8004CD00AD8102B58D002D8002B50D062E033
:100DF800202B57D0302B5AD05DE0702B12D004D85E
:100E0800502B27D0602B2FD055E0B3F5805F03D04F
:100E1800B3F5005F12D04EE00268936823F0070331
:100E2800936048E0CB684A6889680068FFF7AAFFC2
:100E38002268936843F0770393603CE0CB684A6884
:100E480089680068FFF79EFF2268936843F480432F
:100E5800936030E0CA6849680068FFF765FF502171
:100E68002068FFF787FF26E0CA6849680068FFF72F
:100E78006DFF60212068FFF77DFF1CE0CA684968A4
:100E88000068FFF751FF40212068FFF773FF12E069
:100E980000210068FFF76EFF0DE010210068FFF7E2
:100EA80069FF08E020210068FFF764FF03E03021B4
:100EB8000068FFF75FFF012384F83D30002084F8C5
:100EC8003C0010BD02207047704700BF704700BF4C
:100ED800704700BF704700BF10B5044603681A6921
:100EE80012F0020F17D0DA6812F0020F13D06FF069
:100EF80002021A610123037703689B6913F0030F49
:100F080002D0FFF7E3FF04E0FFF7DEFF2046FFF71C
:100F1800DFFF0023237723681A6912F0040F19D022
:100F2800DA6812F0040F15D06FF004021A61022378
:100F3800237723689B6913F4407F03D02046FFF78B
:100F4800C5FF05E02046FFF7BFFF2046FFF7C0FFBB
:100F58000023237723681A6912F0080F19D0DA687A
:100F680012F0080F15D06FF008021A6104232377D6
:100F78002368DB6913F0030F03D02046FFF7A6FFB1
:100F880005E02046FFF7A0FF2046FFF7A1FF00235A
:100F9800237723681A6912F0100F19D0DA6812F053
:100FA800100F15D06FF010021A61082323772368F9
:100FB800DB6913F4407F03D02046FFF787FF05E085
:100FC8002046FFF781FF2046FFF782FF00232377A3
:100FD80023681A6912F0010F09D0DA6812F0010FBC
:100FE80005D06FF001021A61204600F0FBFA236871
:100FF8001A6912F0800F09D0DA6812F0800F05D054
:101008006FF080021A61204600F0A0F823681A6980
:1010180012F0400F09D0DA6812F0400F05D06FF0D7
:1010280040021A612046FFF755FF23681A6912F03B
:10103800200F09D0DA6812F0200F05D06FF02002D7
:101048001A61204600F080F810BD00BF03681A4AF4
:1010580090420AD0B0F1804F07D0A2F59432904266
:1010680003D002F58062904203D123F070034A68EE
:101078001343114A90420AD0B0F1804F07D0A2F52D
:101088009432904203D002F58062904203D123F457
:101098004073CA68134323F080034A69134303600B
:1010A8008B68C3620B688362034B984201D10B695A
:1010B8000363012343617047002C0140B8B110B5A8
:1010C800044690F83D3013F0FF0F04D1002380F858
:1010D8003C3000F0CBFA022384F83D30211D206813
:1010E800FFF7B4FF012384F83D30002010BD012034
:1010F800704700BF90F83C30012B21D030B401225A
:1011080080F83C20022380F83D300468636823F0AF
:1011180070036360046865680B682B436360046848
:10112800A36823F08003A3600468A5684B682B4379
:10113800A36080F83D20002380F83C30184601E089
:101148000220704730BC7047704700BF704700BF2F
:10115800FEE700BF08B50D4B1B6813B90C4A0B4BD3
:101168001A600A4B1A68C31C23F003031344094985
:101178008B4206D900F0B4FA0C2303604FF0FF301D
:1011880008BD02490B60104608BD00BF940000204E
:1011980074010020004C002001230360014B0B6008
:1011A800704700BF0C0000200FB400B583B004AB3B
:1011B80053F8042B01938021064800F0D5FA002843
:1011C80003DD0146034800F039F803B05DF804EB8D
:1011D80004B070479C0000202DE9F04385B0044618
:1011E8000F46435613BB042528462146ABBE04468A
:1011F8001FE03546102E28BF1025002306E014F9FD
:10120800011B04AA1A4402F8101C0133AB42F6D39E
:1012180004AA1344002203F8102CE9464FF00408EE
:1012280040464946ABBE8046761B00E00E46002E7F
:10123800DFD1384605B0BDE8F08300BF08B5FFF739
:10124800CBFF08BD08B500F097F8024B024A9A6038
:1012580008BD00BF00ED00E00000000808B500F080
:10126800B1F808BDF8B504460D4617461E4626488F
:10127800FFF79AFF21682548FFF796FF6168244821
:10128800FFF792FFA1682348FFF78EFFE168224825
:10129800FFF78AFF21692148FFF786FF6169204827
:1012A800FFF782FFA1691F48FFF77EFFE1691E482B
:1012B800FFF77AFF1D48FFF777FF29461C48FFF71D
:1012C80073FF1C4CE16A1C48FFF76EFF216B1B483B
:1012D800FFF76AFFE16B1A48FFF766FF15F0800F0A
:1012E80003D039461748FFF75FFF15F4004F03D0C6
:1012F80031461548FFF758FF1448FFF755FF069980
:101308001348FFF751FFF8BDA01F0008B01F0008E1
:10131800C01F0008D01F0008E01F0008F01F0008C9
:1013280000200008102000082020000830200008B5
:101338003C20000800ED00E04C2000085C2000087C
:101348006C2000087C2000088C2000089C200008E5
:10135800A420000883691A888A4207D10268033AE0
:10136800012A05D8023383610120704700207047A5
:1013780000207047FEE700000F4B1A6842F0010298
:101388001A6059680D4A0A405A601A6822F0847235
:1013980022F480321A601A6822F480221A605A688D
:1013A80022F4FE025A604FF41F029A604FF0006266
:1013B800034B9A60704700BF001002400000FFF81E
:1013C80000ED00E01F4B5B6803F00C03042B06D014
:1013D800082B08D03BBB1C4A1C4B1A6026E01A4A53
:1013E8001A4B1A6022E0174A53685268C3F38343C2
:1013F800023312F4803F05D1154A02FB03F3134A66
:10140800136013E00F4A526812F4003F05D0104AE7
:1014180002FB03F30D4A136008E00B4A02FB03F3D7
:101428000A4A136002E0084A084B1A60054B5B68D9
:10143800C3F30313074AD15C044A1368CB40136013
:10144800704700BF0010024000127A00140000200C
:1014580000093D00E82000082DE9F04188B000248B
:101468000494059406940794204B9A6942F010025C
:101478009A619A6902F010020192019A9A6942F0FF
:1014880020029A619A6902F020020292029A9A69ED
:1014980042F004029A619B6903F004030393039BDF
:1014A800DFF8508022464FF400514046FFF710F90C
:1014B8000F4D22467E212846FFF70AF94FF40053C4
:1014C80004930127059706940226079604A9404627
:1014D800FFF712F87E23049305970694079604A94C
:1014E8002846FFF709F808B0BDE8F081001002406F
:1014F800000801400010014030B587B00024029474
:10150800039404940594009401940F4D4FF0804384
:101518002B6040F2DB236B60AC600C4B1B88EB60EC
:101528002C61AC612846FFF7C9FD4FF48053029344
:1015380002A92846FFF73EFC009401946946284614
:10154800FFF7D8FD07B030BD30010020240000208F
:1015580070B590B02822002106A800F0D2F8002427
:1015680001940294039404940594012506954FF47C
:10157800803307930A9502260D960E934FF4801335
:101588000F9306A8FFF7C4F80F230193029603945C
:101598004FF4806304930594294601A8FFF7F0FAF5
:1015A80010B070BD08B5FEF709FFFFF7D1FFFFF7D0
:1015B80053FFFFF7A1FF0948FFF7F0FB3220FEF7C2
:1015C80021FF074B1B88B3F5FA7FF7D90A3B9BB27B
:1015D800034A13804FF08042D362EFE730010020C6
:1015E8002400002008B50368B3F1804F13D10A4ADC
:1015F80013780A4931F813000949C8600133DBB28E
:101608001370052B02D90022034B1A704FF40051B6
:101618000448FFF763F808BD1C01002018000020EB
:10162800000801400010014082B00E4B9A6942F058
:1016380001029A619A6902F001020092009ADA693D
:1016480042F08052DA61DB6903F080530193019B19
:10165800054A536823F0E06343F00073536002B017
:10166800704700BF00100240000001400368B3F15A
:10167800804F17D100B583B003F50433DA6942F01F
:101688000102DA61DB6903F001030193019B002287
:1016980011461C20FEF7DCFE1C20FEF70BFF03B0F2
:1016A8005DF804FB704700BF704700BFFEE700BF4E
:1016B800FEE700BFFEE700BFFEE700BF704700BFC0
:1016C800704700BF704700BF08B5FEF789FE08BD28
:1016D80008B50248FFF700FC08BD00BF3001002034
:1016E800014B1868704700BF8800002010B5431EE2
:1016F8000A44914204D011F8014B03F8014FF8E76E
:1017080010BD03460244934202D003F8011BFAE7D6
:10171800704730B5141E05469BB0184604DA8B2373
:101728002B604FF0FF301DE04FF40273ADF80C3022
:101738000CBF234604F1FF33029305934FF6FF7362
:1017480000910491ADF80E3002461E9B694628466A
:1017580000F072F8431CBCBF8B232B6014B1009BB4
:1017680000221A701BB030BD07B5009313460A4615
:10177800014603480068FFF7CCFF03B05DF804FB9F
:10178800880000202DE9F0478E6882469E420C466C
:10179800914698463ED88A8912F4906F3AD02568C7
:1017A800096902236F1A656905EB450595FBF3F591
:1017B8007B1C43449D4238BF1D4653050FD529461F
:1017C80000F040FB064698B13A462169FFF78EFFC4
:1017D800A38923F4906343F08003A38113E02A468E
:1017E80000F08EFB064670B92169504600F0DEFA1B
:1017F8000C23CAF80030A3894FF0FF3043F04003B0
:10180800A381BDE8F08726613E44266046466561AF
:10181800ED1BA560464528BF464649463246206826
:1018280000F0A8FAA36800209B1BA36023681E444D
:101838002660BDE8F08700002DE9F04F9DB00393C6
:101848008B8980461C060D4616460DD50B695BB97B
:10185800402100F0F7FA2860286118B90C23C8F86D
:101868000030CDE040236B610023099320238DF8DD
:101878002930DFF89CB130238DF82A3037463C46B2
:1018880014F8013B1BB9B7EB060910D003E0252B70
:10189800F9D02746F3E74B46324629464046FFF73C
:1018A80071FF013000F0A780099B4B4409933B78F6
:1018B800002B00F0A08000234FF0FF320493079321
:1018C800059206938DF853301A9301260522217844
:1018D8004E4800F041FA671C049B38B14B4A3C461D
:1018E800801A06FA00F018430490EFE7D90644BFBF
:1018F80020228DF853201A0744BF2B228DF853203D
:1019080022782A2A03D0079A00210A200BE0039A9A
:10191800111D12680391002A10DA524243F00200A6
:10192800079204900BE027463B780134303B092BA3
:1019380003D800FB02320121F5E701B107923B7899
:101948002E2B1ED17B782A2B0AD1039B02371A1D16
:101958001B680392002BB8BF4FF0FF33059310E0CC
:10196800002319460593781C0A2407463A78013063
:10197800303A092A03D804FB01210123F5E703B112
:10198800059103223978224800F0E6F940B1402356
:10199800CBEB000003FA00F0049B013718430490D6
:1019A800397806221B487E1C8DF8281000F0D4F9DF
:1019B80088B1194B33B9039B073323F00703083366
:1019C800039314E003AB00932A46144B04A9404642
:1019D800AFF3008007E003AB00932A460F4B04A93E
:1019E800404600F093F8B0F1FF3F824603D0099BD0
:1019F8005344099342E7AB895B0601D4099801E097
:101A08004FF0FF301DB0BDE8F08F00BFF820000890
:101A1800FE20000802210008000000008D170008C1
:101A28002DE9F04791461F460A698B68064693429E
:101A3800B8BF1346C9F8003091F843200C46DDF8CA
:101A4800208012B10133C9F800302368990642BFDB
:101A5800D9F800300233C9F80030256815F00605BA
:101A680010D104F1190A07E00123524639463046DD
:101A7800C04701301AD00135E368D9F800209B1A15
:101A88009D42F1DB94F843302268003318BF0123EC
:101A980092060FD5E118302081F843005A1C94F8BB
:101AA80045102244023382F8431003E04FF0FF3020
:101AB800BDE8F08704F1430239463046C04701309B
:101AC800F4D02268D9F80050E36802F00602042A2C
:101AD80008BF5D1B2269A3680CBF25EAE5750025D0
:101AE8009342C4BF9B1AED184FF000091A344D45B4
:101AF80009D00123224639463046C0470130D5D0A7
:101B080009F10109F3E70020BDE8F0872DE9F0436A
:101B180017460A7E85B06E2A984606460C460C9BE8
:101B280001F1430E00F0AE8011D8632A22D009D803
:101B3800002A00F0BB80582A40F0CA8081F845206E
:101B4800834955E0642A1ED0692A1CD0C0E0732A54
:101B580000F0B08009D86F2A2ED0702A40F0B880E3
:101B68000A6842F020020A603EE0752A24D0782AEA
:101B78003AD0ADE01A6801F14205111D19601368E9
:101B880084F84230A8E021681A6811F0800F02D06A
:101B9800111D196008E011F0400F02F104011960ED
:101BA80002D0B2F9003000E01368002B3CDA2D2295
:101BB8005B4284F8432037E021681A6811F0800FEF
:101BC80002D0111D196007E011F0400F02F1040165
:101BD800196001D0138800E01368227E5C496F2ADF
:101BE80014BF0A2208221BE078225A4984F84520AB
:101BF8002268186812F0800F00F104051D6003D1F7
:101C0800550601D5038800E00368D00744BF42F0B9
:101C1800200222601BB9226822F0200222601022D2
:101C2800002084F8430001E049490A226568002D34
:101C3800A56008DB206820F0040020602BB9002D87
:101C48007DD175460CE0002B79D07546B3FBF2F0D8
:101C580002FB1033CB5C05F8013D03460028F5D1A3
:101C6800082A0BD12368DA0708D5236962689A42E3
:101C7800DEBF302305F8013C05F1FF35C5EB0E0347
:101C880023612EE008681A6810F0800F496903D0B4
:101C9800101D1860136808E010F0400F02F10400EE
:101CA8001860136801D0198000E0196000232361CF
:101CB800754616E01A68111D1960156800216268DA
:101CC800284600F049F808B1401B6060636804E0EA
:101CD80004F1420584F8422001232361002384F89B
:101CE8004330CDF800803B4603AA21463046FFF733
:101CF80097FE013002D14FF0FF3026E023692A46D3
:101D080039463046C0470130F5D023689B0710D5C7
:101D1800002504F1190907E001234A4639463046EF
:101D2800C0470130E7D00135E368039A9B1A9D420A
:101D3800F2DBE068039B9842B8BF184605E00B78D1
:101D480004F1420584F842308AE705B0BDE8F08323
:101D5800092100081A21000810B5C9B202449042AE
:101D6800034605D01C7801308C42F8D1184610BDC6
:101D7800002010BD884210B501EB020301D8421EB5
:101D88000BE09842FBD28118D21AD34204D013F840
:101D9800014D01F8014DF8E710BD994204D011F842
:101DA800014B02F8014FF8E710BD000038B50546B1
:101DB800002944D051F8043C0C1F002BB8BFE4188C
:101DC80000F0D4F81E4A1368114613B96360146012
:101DD80030E0A3420DD92268A018834201BF1868D9
:101DE8005B681218226063600C6023E0A24203D88B
:101DF80013465A68002AF9D118681918A1420BD15C
:101E08002168014458188242196013D11068526839
:101E1800014419605A600DE002D90C232B6009E0D7
:101E280021686018824201BF106852680918216051
:101E380062605C602846BDE8384000F098B838BD5C
:101E48002401002070B5CD1C25F0030508350C2DA4
:101E580038BF0C25002D064601DBA94202D90C2308
:101E6800336046E000F082F8234B1C681A4621468E
:101E7800A1B10B685B1B0ED40B2B03D90B60CC18DC
:101E8800CD501EE08C420BBF63684B6813606360E3
:101E980018BF0C4615E00C464968E9E7174C23685B
:101EA8001BB9304600F052F820602946304600F051
:101EB8004DF8431C18D0C41C24F00304A0420DD1D3
:101EC8002560304600F053F804F10B00231D20F084
:101ED8000700C31A0ED05A42E25070BD211A30468C
:101EE80000F034F80130EBD10C233360304600F0B9
:101EF8003EF8002070BD00BF240100202001002012
:101F0800F8B5074615460E4621B91146BDE8F84012
:101F1800FFF798BF1AB9FFF749FF2846F8BD00F048
:101F280027F885420ED929463846FFF78BFF044625
:101F380050B131462A46FFF7D9FB31463846FFF7FC
:101F480035FF01E03046F8BD2046F8BD38B5064CEF
:101F58000023054608462360FFF7FCF8431C02D11E
:101F6800236803B12B6038BD2C01002070477047EF
:101F780051F8040C0028BEBF091851F8043CC018D9
:101F88000438704702030405060708090A0B0C0DFC
:101F98000E0F101001020000537461636B2066720B
:101FA800616D653A0A000000205230203D2020254E
:101FB8003038580A00000000205231203D202025EA
:101FC8003038580A00000000205232203D202025D9
:101FD8003038580A00000000205233203D202025C8
:101FE8003038580A0000000020523132203D2025A8
:101FF8003038580A00000000204C52203D2020258F
:102008003038580A00000000205043203D20202589
:102018003038580A0000000020505352203D202537
:102028003038580A000000004653522F4641523AB1
:102038000A0000002043465352203D202025303816
:10204800580A00002048465352203D2020253038A9
:10205800580A00002044465352203D20202530389D
:10206800580A00002041465352203D202025303890
:10207800580A0000204D4D464152203D2025303859
:10208800580A00002042464152203D202025303881
:10209800580A00004D6973630A000000204C522F53
:1020A8004558435F52455455524E3D2025303858C7
:1020B8000A0000005B486172644661756C745D0AD1
:1020C800000000005B4275734661756C745D0A0020
:1020D8005B55736167654661756C745D0A00000045
:1020E80000000000000000000102030406070809C0
:1020F800232D302B2000686C4C00656667454647E9
:10210800003031323334353637383941424344456B
:1021180046003031323334353637383961626364DA
:03212800656600E9
:10212C00785634121000000001FFFFFF98000020C9
:10213C000000000000A24A041200420048000C00FB
:10214C0024003000F82AFFFF00000000000000000F
:10215C000000000000000000000000000000000073
:10216C000000000000000000000000000000000063
:10217C000000000000000000000000000000000053
:10218C000000000000000000000000000000000043
:10219C000000000000000000000000000000000033
:1021AC000000000000000000280000203254769847
:040000050800010DE1
:00000001FF
