:020000040800F2
:1000000000500020210200082524000829240008AF
:100010002D240008312400083524000800000000C9
:10002000000000000000000000000000392400086B
:100030003D24000800000000412400084524000879
:10004000411B0008411B0008411B0008411B000820
:10005000411B0008411B0008411B0008411B000810
:10006000411B0008411B0008411B0008411B000800
:10007000411B0008411B0008411B0008411B0008F0
:10008000411B0008411B0008411B0008411B0008E0
:10009000411B0008411B0008411B0008411B0008D0
:1000A000411B0008411B0008411B0008411B0008C0
:1000B0004D2400085D240008411B0008411B000876
:1000C000411B0008411B0008411B0008411B0008A0
:1000D000411B0008411B0008411B0008411B000890
:1000E000411B0008411B0008411B000800000000E4
:1000F0000000000000000000000000000000000000
:1001000000000000000000005FF808F100B583B0B7
:1001100001F07EFC304B314A1360314A1360314BA1
:10012000314A03E011681960043304322F498B42CD
:10013000F8D32A4B1A682E4B9A4204D1284B1A68DE
:100140002C4B9A4200D0FEE7234B2B4A13602B4ADC
:1001500013602B4B02E000221A600433294A9342B9
:10016000F9D3254B1B6813B9244B1B6803B1FEE779
:1001700001F05AFC694601A801F0F4FB224C234B24
:100180001C1BA410002504E01F4B53F82530984792
:100190000135AC42F8DC1E4C1E4B1C1BA410002584
:1001A00004E01B4B53F8253098470135AC42F8DC8E
:1001B0000099019801F080FE0546174C174B1C1B57
:1001C000A41004E0013C144B53F824309847002C51
:1001D000F8DC284601F0A2FBBABADECA0000002013
:1001E000A000002000000020AC330008A400002084
:1001F0007856341232547698A400002078060020F5
:10020000A40000207C060020780300087803000882
:1002100078030008780300087803000878030008D2
:1002200008B5FFF773FF00BF00BEFEE71EF0040F26
:100230000CBFEFF30880EFF309807146414A104785
:100240002DE9F04182B004468846134B5E6B9F6BEC
:100250009D6A1B6B13F0020F0DD00F4BDB6A002B56
:1002600009DA4BF6AB6101F05BFC20B14FF00042C4
:10027000094BDA620CE0094801F07CFBCDF8008004
:100280003B4632462946204601F0D2FB00BEFEE73F
:1002900002B0BDE8F08100BF00ED00E03C33000893
:1002A00000BEFEE71EF0040F0CBFEFF30880EFF373
:1002B00009807146244A10472DE9F04182B0044676
:1002C0008846084B5E6B9F6B9D6A074801F052FBA6
:1002D000CDF800803B4632462946204601F0A8FB77
:1002E00000BEFEE700ED00E04C3300081EF0040FF6
:1002F0000CBFEFF30880EFF309807146134A1047F3
:100300002DE9F04182B004468846084B5E6B9F6B36
:100310009D6A074801F02EFBCDF800803B4632462F
:100320002946204601F084FB00BEFEE700ED00E018
:100330005833000800BEFEE700BEFEE700BEFEE741
:100340007047000041020008B902000801030008DC
:10035000AC33000800000020A4000020AC330008EB
:100360000000001000000010A40000207C06002007
:08037000000000100000001065
:1003780010B504460E4B18784FF47A73B3FBF0F3BC
:100388000C4A1068B0FBF3F000F0A0F858B90F2C35
:100398000BD8002221464FF0FF3000F059F8064BE9
:1003A8001C60002010BD012010BD012010BD00BF41
:1003B80008000020140000200400002008B5074AA7
:1003C800136843F010031360032000F02FF8002097
:1003D800FFF7CEFF01F03AFF002008BD00200240E1
:1003E800034A1368034909780B441360704700BF38
:1003F8004001002008000020014B1868704700BF2A
:100408004001002038B50446FFF7F6FF0546B4F171
:10041800FF3F02D0044B1B781C44FFF7EDFF401B45
:100428008442FAD838BD00BF08000020074AD368C4
:1004380023F4E0631B041B0C000200F4E060184383
:1004480040F0BF6040F40030D060704700ED00E03D
:1004580030B4164BDB68C3F30223C3F10704042C42
:1004680028BF04241D1D062D01D9DD1E00E000252E
:10047800012303FA04F4013C2140A940AB40013BAD
:100488001A400A43002806DA00F00F001201D2B21F
:10049800074B1A5407E01201D2B200F1604000F590
:1004A800614080F8002330BC704700BF00ED00E0D9
:1004B80014ED00E0420900F01F00012303FA00F0E8
:1004C800014B43F82200704700E100E00138B0F129
:1004D800807F0AD2064B5860F021064A82F8231022
:1004E8000020986007221A6070470120704700BFFB
:1004F80010E000E000ED00E0F0B583B000263446DF
:10050800D5E00122A2400B6813409A4240F0CE8009
:100518004D68122D2DD00BD8022D27D003D85DB3EE
:10052800012D1ED035E0032D30D0112D1BD030E029
:10053800614FBD4220D008D8A7F58017BD421BD017
:1005480007F58037BD4224D116E05C4FBD4213D079
:1005580007F58037BD420FD0A7F58017BD4218D1E7
:100568000AE0CE6815E0CE68043612E0CE68083698
:100578000FE0CE680C360CE08D684DB1012D02D12C
:100588000261082605E04261082602E0002600E034
:100598000426FF2B01D8864601E000F1040EFF2B4C
:1005A80001D8A20002E0A4F108029200DEF800706F
:1005B8000F25954027EA050506FA02F22A43CEF8E8
:1005C80000204A6812F0805F70D03D4A956945F076
:1005D80001059561926902F001020192019AA7084A
:1005E800BD1C384A52F8255004F0030292004FF01F
:1005F8000F0E0EFA02FE25EA0E0E334DA8420DD05C
:1006080005F58065A8420BD005F58065A84209D09C
:1006180005F58065A84207D1032506E0002504E01A
:10062800012502E0022500E0042505FA02F24EEA5F
:1006380002020237234D45F827204A6812F4803F0A
:1006480005D005F580652A681A432A6004E01F4D25
:100658002A6822EA03022A604A6812F4003F04D09A
:100668001A4D6A681A436A6004E0184D6A6822EAFB
:1006780003026A604A6812F4801F04D0134DAA6806
:100688001A43AA6004E0114DAA6822EA0302AA608C
:100698004A6812F4001F04D00C4DEA681343EB605B
:1006A80004E00A4DEA6822EA0303EB6001340F2CE8
:1006B8007FF627AF03B0F0BD000021100000311015
:1006C8000010024000000140000801400004014001
:1006D8008368194201D0012070470020704700BF8D
:1006E8000AB101617047090401617047C368594044
:1006F800C1607047002867D0F0B587B0044690F80D
:10070800293413F0FF0F04D1002380F8283401F0B6
:1007180071FE032384F82934206801F0D7F82546B0
:1007280055F8107B6E460FCD0FC62B683360231D1E
:100738000ECB384601F0B8F80021206801F0D0F857
:10074800002310E004EB4312012182F8291082F8FB
:1007580028309386002182F82B109163D1639A1C6C
:100768005201A15001330E2BECD9002312E004EB07
:100778004312002182F8291282F82832938682F8DF
:100788002B12C2F83812C2F83C1203F112025201BD
:10079800A15001330E2BEAD9254655F8107B6E4639
:1007A8000FCD0FC62B683360231D0ECB384601F0E2
:1007B80099F8002584F82450012384F82934206806
:1007C80001F0A6F8284601E00120704707B0F0BD07
:1007D80082B0084B1B68084AA2FB03235B0A00FB94
:1007E80003F0019000BF019B5A1E0192002BF9D122
:1007F80002B0704714000020D34D621070B582B06B
:100808000446036813F0010F6BD0A84B5B6803F034
:100818000C03042B0AD0A54B5B6803F00C03082BD0
:100828000DD1A24B5B6813F4803F08D09F4B1B6827
:1008380013F4003F55D06368002B52D1B8E16368C8
:10084800B3F5803F05D1994A136843F480331360A8
:1008580026E063B903F1804303F504331A6822F4F0
:1008680080321A601A6822F480221A6018E0B3F500
:10087800A02F0CD103F18043A3F53C331A6842F44E
:1008880080221A601A6842F480321A6008E0874BA6
:100898001A6822F480321A601A6822F480221A60D8
:1008A80063687BB1FFF7A8FD054605E0FFF7A4FDE7
:1008B800401B642800F27E817C4B1B6813F4003FC8
:1008C800F4D00EE0FFF798FD054605E0FFF794FD2C
:1008D800401B642800F27081744B1B6813F4003FBE
:1008E800F4D1236813F0020F50D0704B5B6813F0FB
:1008F8000C0F0AD06D4B5B6803F00C03082B16D164
:100908006A4B5B6813F4803F11D1684B1B6813F086
:10091800020F03D02369012B40F05081634A13680A
:1009280023F0F803616943EAC10313602EE02369E9
:10093800D3B101225E4B1A60FFF75EFD054605E064
:10094800FFF75AFD401B022800F23A81574B1B68FB
:1009580013F0020FF4D0554A136823F0F8036169C5
:1009680043EAC103136011E00022514B1A60FFF7FC
:1009780043FD054605E0FFF73FFD401B022800F256
:1009880021814A4B1B6813F0020FF4D1236813F03E
:10099800080F29D0A369ABB10122464B1A60FFF7B3
:1009A8002BFD054605E0FFF727FD401B022800F256
:1009B8000B813E4B5B6A13F0020FF4D00120FFF766
:1009C80007FF11E000223B4B1A60FFF715FD0546B3
:1009D80005E0FFF711FD401B022800F2F780334BBA
:1009E8005B6A13F0020FF4D1236813F0040F00F0D0
:1009F80089802E4BDB6913F0805F0BD12B4BDA69B2
:100A080042F08052DA61DB6903F080530193019B65
:100A1800012500E00025284B1B6813F4807F13D1C3
:100A2800254A136843F480731360FFF7E5FC064614
:100A380005E0FFF7E1FC801B642800F2C9801E4B2B
:100A48001B6813F4807FF4D0E368012B05D1174AA3
:100A5800136A43F00103136222E063B903F1804390
:100A680003F504331A6A22F001021A621A6A22F0A4
:100A780004021A6214E0052B09D10C4B1A6A42F0E1
:100A880004021A621A6A42F001021A6208E0074B6D
:100A98001A6A22F001021A621A6A22F004021A6221
:100AA800E368CBB1FFF7A8FC06460FE00010024050
:100AB800000042428004424200700040FFF79CFC64
:100AC800801B41F28833984200F28480494B1B6AAC
:100AD80013F0020FF2D00FE0FFF78EFC064606E097
:100AE800FFF78AFC801B41F28833984274D8414B47
:100AF8001B6A13F0020FF3D125B13E4AD36923F0E4
:100B08008053D361E369002B68D03A4A526802F0F7
:100B18000C02082A64D0022B37D10022364B1A6007
:100B2800FFF76AFC054604E0FFF766FC401B022855
:100B380058D8304B1B6813F0007FF5D1236AB3F502
:100B4800803F06D12B494B6823F40032A368134336
:100B58004B602848436823F47411236A626A13437C
:100B68000B4343600122244B1A60FFF745FC0446FF
:100B780004E0FFF741FC001B022835D81D4B1B6819
:100B880013F0007FF5D0002031E000221A4B1A60E4
:100B9800FFF732FC044604E0FFF72EFC001B022896
:100BA80024D8144B1B6813F0007FF5D100201EE0F9
:100BB80001201CE003201AE0032018E0012016E0C1
:100BC800032014E0032012E0032010E003200EE0CD
:100BD80003200CE003200AE0032008E0002006E0E0
:100BE800012004E0032002E0032000E0032002B01B
:100BF80070BD00BF001002406000424230B486B0B1
:100C0800164D02AC28686968AA68EB680FC42B8A7D
:100C1800ADF80430124B5B6803F00C02082A19D1B6
:100C2800C3F3834206A90A4412F8100C13F4803F58
:100C38000CD00B4B5B68C3F340430B4413F8142CE4
:100C4800084B03FB00F0B0FBF2F004E0064B03FB9B
:100C580000F000E0034806B030BC70470C320008D2
:100C68000010024000127A0000093D0070B5654B83
:100C78001B6803F007038B420BD2624A136823F008
:100C880007030B431360136803F00703994240F00E
:100C9800A880036813F0020F17D013F0040F04D0D4
:100CA800594A536843F4E0635360036813F0080F2C
:100CB80004D0554A536843F460535360524C6368F8
:100CC80023F0F0028368134363600D46044603680B
:100CD80013F0010F4DD04268012A05D14A4B1B6819
:100CE80013F4003F0DD17EE0022A05D1464B1B6864
:100CF80013F0007F05D178E0434B1B6813F0020F17
:100D080075D041494B6823F0030313434B60FFF749
:100D180073FB06466368012B0ED106E0FFF76CFBF8
:100D2800801B41F28833984263D8374B5B6803F0E5
:100D38000C03042BF2D11CE0022B15D106E0FFF7BF
:100D48005BFB801B41F28833984254D82E4B5B687A
:100D580003F00C03082BF2D10BE0FFF74DFB801BCF
:100D680041F28833984248D8274B5B6813F00C0F40
:100D7800F3D1244B1B6803F007039D420AD2214A92
:100D8800136823F007032B431360136803F007036A
:100D98009D4234D1236813F0040F06D01A494B68DA
:100DA80023F4E062E36813434B60236813F0080FF1
:100DB80007D0154A536823F46053216943EAC103F5
:100DC8005360FFF71BFF104B5B68C3F303130F4A15
:100DD800D35CD8400E4B18600020FFF7C9FA0020FA
:100DE80070BD012070BD012070BD012070BD0120C3
:100DF80070BD032070BD032070BD032070BD0120AD
:100E080070BD00BF00200240001002406833000897
:100E18001400002070B582B00446036813F0010F77
:100E28005CD03E4BDB6913F0805F0BD13B4BDA693A
:100E380042F08052DA61DB6903F080530193019B31
:100E4800012600E00026364B1B6813F4807F12D180
:100E5800334A136843F480731360FFF7CDFA0546ED
:100E680004E0FFF7C9FA401B64284FD82C4B1B68D5
:100E780013F4807FF5D0294B1B6A13F4407321D0FB
:100E8800626802F4407293421CD0244A136A23F425
:100E98004070244901250D6000250D60106213F093
:100EA800010F0FD0FFF7A8FA054606E0FFF7A4FAEE
:100EB800401B41F2883398422AD8184B1B6A13F01A
:100EC800020FF3D015490B6A23F440726368134389
:100ED8000B621EB1CB6923F08053CB61236813F0FA
:100EE800020F06D00D494B6823F44042A368134310
:100EF8004B60236813F0100F0CD008494B6823F49B
:100F08008002E36813434B60002004E0032002E002
:100F1800032000E0002002B070BD00BF00100240B6
:100F2800007000404004424270B4036A23F0010399
:100F38000362036A4668826922F073020C6842EA17
:100F4800040523F002028B6813430C4CA04205D120
:100F580023F00803CA68134323F00403074CA04294
:100F680005D126F440764A6932438E6916434660B5
:100F780085614A684263036270BC7047002C014077
:100F880030B4036A23F480730362036A4568C26954
:100F980022F073020C68224323F400738C6843EA3E
:100FA80004230E4CA04206D123F40063CC6843EA24
:100FB800042323F48063094CA04207D125F440554B
:100FC8004C6945EA04158C6945EA04154560C26117
:100FD8004A68C263036230BC704700BF002C0140FE
:100FE80030B4036A23F480530362036A4468C26915
:100FF80022F4E6420D6842EA052223F400538D6884
:1010080043EA0533074DA84204D124F480444D69CE
:1010180044EA85144460C2614A680264036230BCD1
:10102800704700BF002C014010B4036A046A24F022
:1010380001040462846924F0F00444EA021223F0F3
:101048000A0319438261016210BC704710B4036A35
:1010580023F0100303628469036A24F4704444EAA9
:10106800023223F0A00343EA01118261016210BC3D
:10107800704700BF836823F0700341F007010B43FA
:101088008360704710B4846824F47F4442EA0323E1
:10109800194344EA0103836010BC70470268D368AF
:1010A80043F00103D3600268136843F0010313603F
:1010B80000207047704700BF90F83C30012B00F0CB
:1010C800838010B50446012380F83C30022380F861
:1010D8003D300268936823F47F4323F077039360DD
:1010E8000B68402B4CD00AD8102B58D002D8002BB4
:1010F80050D062E0202B57D0302B5AD05DE0702BB7
:1011080012D004D8502B27D0602B2FD055E0B3F540
:10111800805F03D0B3F5005F12D04EE00268936899
:1011280023F00703936048E0CB684A688968006841
:10113800FFF7A8FF2268936843F0770393603CE0C9
:10114800CB684A6889680068FFF79CFF2268936843
:1011580043F48043936030E0CA6849680068FFF749
:1011680063FF50212068FFF785FF26E0CA684968B9
:101178000068FFF76BFF60212068FFF77BFF1CE02A
:10118800CA6849680068FFF74FFF40212068FFF7E9
:1011980071FF12E000210068FFF76CFF0DE01021DD
:1011A8000068FFF767FF08E020210068FFF762FF8B
:1011B80003E030210068FFF75DFF012384F83D302C
:1011C800002084F83C0010BD02207047704700BF23
:1011D800704700BF704700BF10B5044603681A691E
:1011E80012F0020F17D0DA6812F0020F13D06FF066
:1011F80002021A610123037703689B6913F0030F46
:1012080002D000F0BBFE04E0FFF7E0FF2046FFF746
:10121800DFFF0023237723681A6912F0040F19D01F
:10122800DA6812F0040F15D06FF004021A61022375
:10123800237723689B6913F4407F03D0204600F08E
:101248009DFE05E02046FFF7C1FF2046FFF7C0FFDF
:101258000023237723681A6912F0080F19D0DA6877
:1012680012F0080F15D06FF008021A6104232377D3
:101278002368DB6913F0030F03D0204600F07EFEDD
:1012880005E02046FFF7A2FF2046FFF7A1FF002355
:10129800237723681A6912F0100F19D0DA6812F050
:1012A800100F15D06FF010021A61082323772368F6
:1012B800DB6913F4407F03D0204600F05FFE05E0B1
:1012C8002046FFF783FF2046FFF782FF002323779E
:1012D80023681A6912F0010F09D0DA6812F0010FB9
:1012E80005D06FF001021A61204600F011FF236853
:1012F8001A6912F0800F09D0DA6812F0800F05D051
:101308006FF080021A61204600F0CCFA23681A694F
:1013180012F0400F09D0DA6812F0400F05D06FF0D4
:1013280040021A612046FFF755FF23681A6912F038
:10133800200F09D0DA6812F0200F05D06FF02002D4
:101348001A61204600F0ACFA10BD00BF03681A4AC3
:1013580090420AD0B0F1804F07D0A2F59432904263
:1013680003D002F58062904203D123F070034A68EB
:101378001343114A90420AD0B0F1804F07D0A2F52A
:101388009432904203D002F58062904203D123F454
:101398004073CA68134323F080034A691343036008
:1013A8008B68C3620B688362034B984201D10B6957
:1013B8000363012343617047002C0140B8B110B5A5
:1013C800044690F83D3013F0FF0F04D1002380F855
:1013D8003C3000F05DFF022384F83D30211D206879
:1013E800FFF7B4FF012384F83D30002010BD012031
:1013F800704700BFB8B110B5044690F83D3013F0FF
:10140800FF0F04D1002380F83C30FFF753FE02237E
:1014180084F83D30211D2068FFF798FF012384F8E8
:101428003D30002010BD0120704700BF30B4036A72
:1014380023F010030362036A4468826922F4E642D7
:101448000D6842EA052223F020038D6843EA05135C
:101458000D4DA84206D123F08003CD6843EA051359
:1014680023F04003084DA84207D124F440644D6995
:1014780044EA85048D6944EA8504446082614A68C7
:101488008263036230BC7047002C014038B590F885
:101498003C30012B66D00D460446012380F83C30D1
:1014A800022380F83D300C2A55D8DFE802F00754B3
:1014B80054541A5454542E54545441000068FFF79D
:1014C80033FD2268936943F00803936122689369A6
:1014D80023F004039361226891692B690B4393619C
:1014E80039E00068FFF7A2FF2268936943F40063BC
:1014F80093612268936923F48063936122689369F6
:10150800296943EA0123936125E00068FFF738FD64
:101518002268D36943F00803D3612268D36923F0B2
:101528000403D3612268D1692B690B43D36112E0AC
:101538000068FFF755FD2268D36943F40063D3615F
:101548002268D36923F48063D3612268D369296947
:1015580043EA0123D361012384F83D30002084F855
:101568003C0038BD022038BD70B4046A24F0010480
:1015780004628469056A164EB0420CD0B0F1804FFF
:101588000BD0A6F59436B04209D006F58066B04275
:1015980007D1012606E0012604E0012602E0012623
:1015A80000E000261EB124F00304224301E044F0C9
:1015B800010222F0F0021B01DBB2134325F00A02FC
:1015C80001F00A0111438361016270BC704700BFDA
:1015D800002C014010B4012303FA01F4036A23EA42
:1015E80004030362036A8A401A43026210BC70470C
:1015F80010B5044601220068FFF7ECFF2368074A8C
:10160800934203D15A6C42F400425A642268136828
:1016180043F001031360002010BD00BF002C0140FF
:1016280010B5044600220068FFF7D4FF2368124A69
:1016380093420DD1196A41F21112114208D1196A67
:1016480040F24442114203D15A6C22F400425A64D7
:101658002368196A41F21112114208D1196A40F23D
:101668004442114203D11A6822F001021A60012390
:1016780084F83D30002010BD002C014010B4042334
:1016880003FA01F4036A23EA04030362036A8A4043
:101698001A43026210BC704700285AD070B588B04F
:1016A80004460E4690F83D3013F0FF0F04D1002396
:1016B80080F83C3000F01AFE022384F83D30211DEA
:1016C8002068FFF743FEB368032231682068FFF7FC
:1016D8004BFF2268936923F00C0393612268916998
:1016E80073680B4393612268536843F08003536027
:1016F8002268936823F0700393602268936843F02C
:10170800400393602268936823F00703936022687C
:10171800936843F0040393600025059506957023AC
:101728000193079504950395F368029301A920682E
:10173800FFF77CFE2268536823F070035360226829
:10174800536843F050035360012384F83D30284622
:1017580001E00120704708B070BD00BF10B5044615
:101768000268D36843F00203D360012200210068B5
:10177800FFF730FF2268136843F00103136000206D
:1017880010BD00BF10B5044604220068FFF776FFBD
:101798002268536C43F4004353642268136843F08F
:1017A80001031360002010BD10B504460022006834
:1017B800FFF764FF2368196A41F21112114208D138
:1017C800196A40F24442114203D15A6C22F4004291
:1017D8005A642368196A41F21112114208D1196A30
:1017E80040F24442114203D11A6822F001021A6001
:1017F800002010BD90F83C30012B25D0012380F843
:101808003C30CB6823F440728B68134323F4806226
:101818004B68134323F400620B68134323F480528C
:101828000B69134323F400524B69134323F4804399
:101838008A69134323F40043134302685364002363
:1018480080F83C30184670470220704790F83C30CA
:10185800012B21D030B4012280F83C20022380F8EB
:101868003D300468636823F070036360046865684A
:101878000B682B4363600468A36823F08003A360AC
:101888000468A5684B682B43A36080F83D200023BB
:1018980080F83C30184601E00220704730BC7047A1
:1018A800704700BF704700BF84B001A880E80E00F1
:1018B800002004B0704700BFB0F840309BB243F43A
:1018C8003F43A0F840300020704700BFB0F84030D8
:1018D80023F474535B045B0CA0F84030002070477D
:1018E8000020704784B038B505AC84E80E000123A9
:1018F800A0F840300024A0F84040A0F84440A0F8E8
:101908005040FFF7D9FF2046BDE8384004B0704783
:1019180000207047FEE700BF08B50D4B1B6813B9E0
:101928000C4A0B4B1A600A4B1A68C31C23F00303BA
:10193800134409498B4206D901F012F80C230360BD
:101948004FF0FF3008BD02490B60104608BD00BFCC
:10195800A80000207C060020004C00200123036022
:10196800014B0B60704700BF0C0000200FB400B59E
:1019780083B004AB53F8042B01938021064801F08F
:1019880033F8002803DD0146034800F039F803B0B6
:101998005DF804EB04B07047B00000202DE9F04377
:1019A80085B004460F46435613BB042528462146F6
:1019B800ABBE04461FE03546102E28BF1025002375
:1019C80006E014F9011B04AA1A4402F8101C01339A
:1019D800AB42F6D304AA1344002203F8102CE946BC
:1019E8004FF0040840464946ABBE8046761B00E0EF
:1019F8000E46002EDFD1384605B0BDE8F08300BFA3
:101A080008B5FFF7CBFF08BD08B500F097F8024B03
:101A1800024A9A6008BD00BF00ED00E0000000081F
:101A280008B500F0B1F808BDF8B504460D461746EC
:101A38001E462648FFF79AFF21682548FFF796FFBC
:101A480061682448FFF792FFA1682348FFF78EFFDB
:101A5800E1682248FFF78AFF21692148FFF786FFDE
:101A680061692048FFF782FFA1691F48FFF77EFFE1
:101A7800E1691E48FFF77AFF1D48FFF777FF2946FF
:101A88001C48FFF773FF1C4CE16A1C48FFF76EFF08
:101A9800216B1B48FFF76AFFE16B1A48FFF766FFE7
:101AA80015F0800F03D039461748FFF75FFF15F48C
:101AB800004F03D031461548FFF758FF1448FFF789
:101AC80055FF06991348FFF751FFF8BD203200086B
:101AD80030320008403200085032000860320008F6
:101AE800703200088032000890320008A0320008E6
:101AF800B0320008BC32000800ED00E0CC3200082B
:101B0800DC320008EC320008FC3200080C33000814
:101B18001C3300082433000883691A888A4207D1D5
:101B28000268033A012A05D802338361012070470D
:101B38000020704700207047FEE700000F4B1A682E
:101B480042F001021A6059680D4A0A405A601A6840
:101B580022F0847222F480321A601A6822F48022F9
:101B68001A605A6822F4FE025A604FF41F029A6003
:101B78004FF00062034B9A60704700BF00100240AC
:101B88000000FFF800ED00E01F4B5B6803F00C035A
:101B9800042B06D0082B08D03BBB1C4A1C4B1A60F0
:101BA80026E01A4A1A4B1A6022E0174A536852680C
:101BB800C3F38343023312F4803F05D1154A02FB75
:101BC80003F3134A136013E00F4A526812F4003FFC
:101BD80005D0104A02FB03F30D4A136008E00B4AD4
:101BE80002FB03F30A4A136002E0084A084B1A6032
:101BF800054B5B68C3F30313074AD15C044A1368B7
:101C0800CB401360704700BF0010024000127A00FA
:101C18001400002000093D006833000830B589B081
:101C2800002404940594069407941D4B9A6942F085
:101C380010029A619A6902F010020092009A9A6959
:101C480042F020029A619A6902F020020192019AF8
:101C58009A6942F004029A619A6902F004020292B7
:101C6800029A9A6942F008029A619B6903F0080394
:101C78000393039B0B4D22464FF400512846FEF771
:101C88002FFD4FF400530493012305930694022378
:101C9800079304A92846FEF72FFC09B030BD00BF02
:101CA800001002400010014030B587B000240294B3
:101CB800039404940594009401940C4D0C4B2B60F0
:101CC8007C236B60AC604FF6FF73EB602C61AC61FA
:101CD80002A92846FFF7E0FC5023009301946946C7
:101CE8002846FFF7B3FD07B030BD00BF5401002000
:101CF8000004004030B587B0002402940394049493
:101D0800059400940194104D4FF080432B6040F2ED
:101D1800E1436B60AC604FF6FF73EB602C6180238E
:101D2800AB612846FFF74AFB4FF48053029302A9A0
:101D38002846FFF7C1F90094019469462846FFF741
:101D480085FD07B030BD00BFD801002030B595B083
:101D5800002410941194129413940E940F940794E1
:101D6800089409940A940B940C940D94009401948B
:101D780002940394049405940694244D244B2B60F8
:101D880005236B602023AB60FF23EB602C616C6143
:101D9800AC612846FFF712FB4FF48053109310A94B
:101DA8002846FFF789F92846FFF724FB0E940F947D
:101DB8000EA92846FFF74AFD602307930894099463
:101DC8000A940B940C940D94224607A92846FFF711
:101DD8005DFB042207A92846FFF758FB082207A93C
:101DE8002846FFF753FB00940194029414230393AD
:101DF80004944FF400530593069469462846FFF768
:101E0800F9FC284600F0BCFA15B030BD9801002056
:101E1800002C014008B50848084B036008234360BC
:101E2800022383600323C36000238361C3610362C9
:101E3800FEF760FC08BD00BF18020020005C0040EF
:101E480070B594B0282200210DEB020000F099FD36
:101E58000024059406940794089409940194029424
:101E68000394049401250A954FF480330B930E953F
:101E78000226119612934FF4801313930AA8FEF7C3
:101E8800BDFC0F230593069607944FF480630893CF
:101E98000994294605A8FEF7E9FE102301934FF49B
:101EA8008003049301A8FEF7B5FF14B070BD00BF0E
:101EB80008B5FEF783FAFFF7C3FFFFF7AFFEFFF79A
:101EC800F3FEFFF743FFFFF7A5FFFFF713FF2648D1
:101ED8000268D36843F00103D360FFF73FFC23484F
:101EE800FFF7DCF8224B1B88B3F5C87F1FD9214BBD
:101EF8001B78E3B9204C00212046FFF791FB002115
:101F08002046FFF751FC04212046FFF789FB0421F6
:101F18002046FFF749FC08212046FFF781FB0821EE
:101F28002046FFF741FC0022124B1A7018E0124CB1
:101F380000212046FFF75CFB00212046FFF722FC2A
:101F480004212046FFF754FB04212046FFF71AFC22
:101F580008212046FFF74CFB08212046FFF712FC1A
:101F68006420FEF74FFABDE754010020D801002095
:101F78004A010020340100209801002038B5026889
:101F8800564B9A4240F0A8800124554B1C700368B8
:101F98005B6B544A1360544AA2FB0323C3F30F2319
:101FA800524A1168013B9BB2CB62013B9BB250493C
:101FB8000B80D3604F4D40212846FEF789FB4E4BDE
:101FC800187080212846FEF783FB4C4B1870214679
:101FD8004B48FEF77DFB4B4B187040212846FEF717
:101FE80077FB68B180212846FEF772FB40B921468D
:101FF8004348FEF76DFB18B10022434B1A7066E0A8
:1020080040213C48FEF764FB68B180213948FEF75F
:102018005FFB40B901213A48FEF75AFB18B9012283
:10202800394B1A7053E040213248FEF751FB68B132
:1020380080213048FEF74CFB40B101213048FEF7C3
:1020480047FB18B90222304B1A7040E0402129485A
:10205800FEF73EFB80B9802100F1804000F5843016
:10206800FEF736FB40B101212548FEF731FB18B9D0
:102078000322254B1A702AE040211E48FEF728FB50
:1020880080B9802100F1804000F58430FEF720FB04
:1020980040B101211A48FEF71BFB18B104221A4B64
:1020A8001A7014E040211348FEF712FB78B980211A
:1020B80000F1804000F58430FEF70AFB38B90121B1
:1020C8000F48FEF705FB10B105220F4B1A704FF4AD
:1020D80000510E48FEF70AFB38BD00BF000400405F
:1020E8003701002030010020CDCCCCCCD801002015
:1020F8005201002000080140500100204801002042
:10210800000C01409401002036010020001001401D
:102118000368B3F1804F79D12DE9F047434B1C7820
:10212800C4F11F03DFF820A11AF8030000F050FAE9
:102138003F4BD3F80090494600F0A2FA00F0F0FBBC
:10214800C5B21AF8040000F043FA0146484600F008
:1021580097FA00F0E5FBC0B2364B1B78052B45D843
:10216800DFE803F0030E18232F3A2F18FF43C7F3B5
:1021780046073D44EEB200EB06085FFA88F835E002
:102188002E18F643C6F346068719FFB23D445FFA98
:1021980085F82BE02E18F643C6F3460635445FFA59
:1021A80085F800EB0807FFB220E005EB00086FEAAE
:1021B8000808C8F3460800EB0806F6B23544EFB243
:1021C80014E005EB00086FEA0808C8F34608454420
:1021D800EFB2C619F6B209E02F18FF43C7F3460756
:1021E80000EB07085FFA88F84544EEB20134E4B220
:1021F8000E4B1C701F2C01D900221A700E4B1B6845
:10220800C3F834809F63DE63BDE8F0870B4A9342CE
:102218000BD10B4B1B7823B94FF0FF32094B1A60D7
:1022280070470022064B1A7070477047350100202E
:10223800180000203601002098010020000400400A
:1022480037010020300100201C00002082B00E4B16
:102258009A6942F001029A619A6902F001020092B9
:10226800009ADA6942F08052DA61DB6903F0805340
:102278000193019B054A536823F0E06343F0007320
:10228800536002B0704700BF0010024000000140D8
:1022980000B583B00368134A93420AD1124B9A6976
:1022A80042F400629A619B6903F400630093009B07
:1022B80015E0B3F1804F12D103F50433DA6942F027
:1022C8000102DA61DB6903F001030193019B00223B
:1022D80011461C20FEF7BCF81C20FEF7EBF803B0F3
:1022E8005DF804FB002C01400010024030B589B0B5
:1022F8000023049305930693079302681D4B9A42A3
:1023080035D103F50333DA6942F00202DA61DA699A
:1023180002F002020192019A9A6942F004029A615B
:102328009A6902F004020292029A9A6942F008023B
:102338009A619B6903F008030393039B08ADC023CC
:1023480045F8103D29460C48FEF7D6F801230493BA
:1023580000240594069429460848FEF7CDF822463D
:1023680021461D20FEF774F81D20FEF7A3F809B0DA
:1023780030BD00BF0004004000080140000C0140CF
:1023880010B586B000230293039304930593026863
:10239800154B9A4226D103F564439A6942F0080224
:1023A8009A619A6902F008020092009A9A6942F0CA
:1023B80004029A619B6903F004030193019B4FF4A3
:1023C8006043029302240394059402A90748FEF788
:1023D80093F84FF4E06302930394059402A9044828
:1023E800FEF78AF806B010BD002C0140000C014031
:1023F800000801400268084B9A420CD182B003F5EC
:10240800DA33DA6942F40002DA61DB6903F40003C3
:102418000193019B02B07047005C0040704700BF09
:10242800FEE700BFFEE700BFFEE700BFFEE700BF14
:10243800704700BF704700BF704700BF08B5FDF781
:10244800CFFF08BD08B50248FEF7C6FE08BD00BFAD
:10245800D801002008B50248FEF7BEFE08BD00BF3F
:102468005401002080F0004002E000BF81F00041EC
:1024780042001FBF5FEA410392EA030F7FEA226C22
:102488007FEA236C6AD04FEA1262D2EB1363C1BFB2
:10249800D218414048404140B8BF5B42192B88BF21
:1024A800704710F0004F40F4000020F07F4018BF44
:1024B800404211F0004F41F4000121F07F4118BF64
:1024C800494292EA030F3FD0A2F1010241FA03FC0C
:1024D80010EB0C00C3F1200301FA03F100F00043F4
:1024E80002D5494260EB4000B0F5000F13D3B0F1BC
:1024F800807F06D340084FEA310102F10102FE2A2B
:1025080051D2B1F1004F40EBC25008BF20F001009A
:1025180040EA03007047490040EB000010F4000F48
:10252800A2F10102EDD1B0FA80FCACF1080CB2EBDB
:102538000C0200FA0CF0AABF00EBC250524218433A
:10254800BCBFD0401843704792F0000F81F40001DF
:1025580006BF80F400000132013BB5E74FEA4103B2
:102568007FEA226C18BF7FEA236C21D092EA030F1E
:1025780004D092F0000F08BF0846704790EA010F98
:102588001CBF0020704712F07F4F04D1400028BFC5
:1025980040F00040704712F100723CBF00F50000A7
:1025A800704700F0004343F0FE4040F400007047DD
:1025B8007FEA226216BF08467FEA23630146420289
:1025C80006BF5FEA412390EA010F40F4800070479C
:1025D8004FF0000304E000BF10F0004348BF404242
:1025E8005FEA000C08BF704743F0964301464FF07E
:1025F80000001CE050EA010208BF70474FF00003DA
:102608000AE000BF50EA010208BF704711F000431A
:1026180002D5404261EB41015FEA010C02BF8446EA
:102628000146002043F0B64308BFA3F18053A3F549
:102638000003BCFA8CF2083AA3EBC25310DB01FA90
:1026480002FC634400FA02FCC2F12002BCF1004F14
:1026580020FA02F243EB020008BF20F001007047A5
:1026680002F1200201FA02FCC2F1200250EA4C00F9
:1026780021FA02F243EB020008BF20EADC7070473F
:102688004FF0FF0C1CEAD0521EBF1CEAD15392EA4D
:102698000C0F93EA0C0F6FD01A4480EA010C400229
:1026A80018BF5FEA41211ED04FF0006343EA501083
:1026B80043EA5111A0FB01310CF00040B1F5000FC5
:1026C8003EBF490041EAD3715B0040EA010062F174
:1026D8007F02FD2A1DD8B3F1004F40EBC25008BF5E
:1026E80020F00100704790F0000F0CF0004C08BF7C
:1026F80049024CEA502040EA51207F3AC2BFD2F149
:10270800FF0340EAC250704740F400004FF0000356
:10271800013A5DDC12F1190FDCBF00F00040704790
:10272800C2F10002410021FA02F1C2F1200200FACE
:1027380002FC5FEA310040F1000053EA4C0308BF95
:1027480020EADC70704792F0000F00F0004C02BFE6
:10275800400010F4000F013AF9D040EA0C0093F061
:10276800000F01F0004C02BF490011F4000F013BBB
:10277800F9D041EA0C018FE70CEAD15392EA0C0F29
:1027880018BF93EA0C0F0AD030F0004C18BF31F094
:10279800004CD8D180EA010000F00040704790F06A
:1027A800000F17BF90F0004F084691F0000F91F00E
:1027B800004F14D092EA0C0F01D142020FD193EAD4
:1027C8000C0F03D14B0218BF084608D180EA01005C
:1027D80000F0004040F0FE4040F40000704740F038
:1027E800FE4040F4400070474FF0FF0C1CEAD05206
:1027F8001EBF1CEAD15392EA0C0F93EA0C0F69D062
:10280800A2EB030280EA010C49024FEA402037D0CC
:102818004FF0805343EA111143EA10130CF00040C3
:102828008B4238BF5B0042F17D024FF4000C8B42B3
:1028380024BF5B1A40EA0C00B3EB510F24BFA3EB93
:10284800510340EA5C00B3EB910F24BFA3EB910363
:1028580040EA9C00B3EBD10F24BFA3EBD10340EABD
:10286800DC001B0118BF5FEA1C1CE0D1FD2A3FF603
:1028780050AF8B4240EBC25008BF20F001007047B8
:102888000CF0004C4CEA50207F32C2BFD2F1FF035B
:1028980040EAC250704740F400004FF00003013A8C
:1028A80037E792F0000F00F0004C02BF400010F430
:1028B800000F013AF9D040EA0C0093F0000F01F044
:1028C800004C02BF490011F4000F013BF9D041EA66
:1028D8000C0195E70CEAD15392EA0C0F08D1420299
:1028E8007FF47DAF93EA0C0F7FF470AF084676E76C
:1028F80093EA0C0F04D14B023FF44CAF08466EE745
:1029080030F0004C18BF31F0004CCAD130F0004212
:102918007FF45CAF31F000437FF43CAF5FE700BF6A
:1029280042000ED2B2F1FE4F0BD34FF09E03B3EB31
:10293800126209D44FEA002343F0004323FA02F05D
:1029480070474FF00000704712F1610F01D1420249
:1029580002D14FF0FF3070474FF00000704700BFC2
:10296800014B1868704700BF9C00002010B5431E3B
:102978000A44914204D011F8014B03F8014FF8E7DB
:1029880010BD03460244934202D003F8011BFAE744
:10299800704730B5141E05469BB0184604DA8B23E1
:1029A8002B604FF0FF301DE04FF40273ADF80C3090
:1029B8000CBF234604F1FF33029305934FF6FF73D0
:1029C80000910491ADF80E3002461E9B69462846D8
:1029D80000F072F8431CBCBF8B232B6014B1009B22
:1029E80000221A701BB030BD07B5009313460A4683
:1029F800014603480068FFF7CCFF03B05DF804FB0D
:102A08009C0000202DE9F0478E6882469E420C46C5
:102A1800914698463ED88A8912F4906F3AD0256834
:102A2800096902236F1A656905EB450595FBF3F5FE
:102A38007B1C43449D4238BF1D4653050FD529468C
:102A480000F040FB064698B13A462169FFF78EFF31
:102A5800A38923F4906343F08003A38113E02A46FB
:102A680000F08EFB064670B92169504600F0DEFA88
:102A78000C23CAF80030A3894FF0FF3043F040031D
:102A8800A381BDE8F08726613E442660464665611D
:102A9800ED1BA560464528BF464649463246206894
:102AA80000F0A8FAA36800209B1BA36023681E44BB
:102AB8002660BDE8F08700002DE9F04F9DB0039334
:102AC8008B8980461C060D4616460DD50B695BB9E9
:102AD800402100F0F7FA2860286118B90C23C8F8DB
:102AE8000030CDE040236B610023099320238DF84B
:102AF8002930DFF89CB130238DF82A3037463C4620
:102B080014F8013B1BB9B7EB060910D003E0252BDD
:102B1800F9D02746F3E74B46324629464046FFF7A9
:102B280071FF013000F0A780099B4B4409933B7863
:102B3800002B00F0A08000234FF0FF32049307938E
:102B4800059206938DF853301A93012605222178B1
:102B58004E4800F041FA671C049B38B14B4A3C468A
:102B6800801A06FA00F018430490EFE7D90644BF2C
:102B780020228DF853201A0744BF2B228DF85320AA
:102B880022782A2A03D0079A00210A200BE0039A08
:102B9800111D12680391002A10DA524243F0020014
:102BA800079204900BE027463B780134303B092B11
:102BB80003D800FB02320121F5E701B107923B7807
:102BC8002E2B1ED17B782A2B0AD1039B02371A1D84
:102BD8001B680392002BB8BF4FF0FF33059310E03A
:102BE800002319460593781C0A2407463A780130D1
:102BF800303A092A03D804FB01210123F5E703B180
:102C0800059103223978224800F0E6F940B14023C3
:102C1800CBEB000003FA00F0049B01371843049043
:102C2800397806221B487E1C8DF8281000F0D4F94C
:102C380088B1194B33B9039B073323F007030833D3
:102C4800039314E003AB00932A46144B04A94046AF
:102C5800AFF3008007E003AB00932A460F4B04A9AB
:102C6800404600F093F8B0F1FF3F824603D0099B3D
:102C78005344099342E7AB895B0601D4099801E004
:102C88004FF0FF301DB0BDE8F08F00BF783300086B
:102C98007E33000882330008000000000D2A000877
:102CA8002DE9F04791461F460A698B68064693420C
:102CB800B8BF1346C9F8003091F843200C46DDF838
:102CC800208012B10133C9F800302368990642BF49
:102CD800D9F800300233C9F80030256815F0060528
:102CE80010D104F1190A07E001235246394630464B
:102CF800C04701301AD00135E368D9F800209B1A83
:102D08009D42F1DB94F843302268003318BF012359
:102D180092060FD5E118302081F843005A1C94F828
:102D280045102244023382F8431003E04FF0FF308D
:102D3800BDE8F08704F1430239463046C047013008
:102D4800F4D02268D9F80050E36802F00602042A99
:102D580008BF5D1B2269A3680CBF25EAE57500253D
:102D68009342C4BF9B1AED184FF000091A344D4521
:102D780009D00123224639463046C0470130D5D014
:102D880009F10109F3E70020BDE8F0872DE9F043D8
:102D980017460A7E85B06E2A984606460C460C9B56
:102DA80001F1430E00F0AE8011D8632A22D009D871
:102DB800002A00F0BB80582A40F0CA8081F84520DC
:102DC800834955E0642A1ED0692A1CD0C0E0732AC2
:102DD80000F0B08009D86F2A2ED0702A40F0B88051
:102DE8000A6842F020020A603EE0752A24D0782A58
:102DF8003AD0ADE01A6801F14205111D1960136857
:102E080084F84230A8E021681A6811F0800F02D0D7
:102E1800111D196008E011F0400F02F1040119605A
:102E280002D0B2F9003000E01368002B3CDA2D2202
:102E38005B4284F8432037E021681A6811F0800F5C
:102E480002D0111D196007E011F0400F02F10401D2
:102E5800196001D0138800E01368227E5C496F2A4C
:102E680014BF0A2208221BE078225A4984F8452018
:102E78002268186812F0800F00F104051D6003D164
:102E8800550601D5038800E00368D00744BF42F027
:102E9800200222601BB9226822F020022260102240
:102EA800002084F8430001E049490A226568002DA2
:102EB800A56008DB206820F0040020602BB9002DF5
:102EC8007DD175460CE0002B79D07546B3FBF2F046
:102ED80002FB1033CB5C05F8013D03460028F5D111
:102EE800082A0BD12368DA0708D5236962689A4251
:102EF800DEBF302305F8013C05F1FF35C5EB0E03B5
:102F080023612EE008681A6810F0800F496903D021
:102F1800101D1860136808E010F0400F02F104005B
:102F28001860136801D0198000E01960002323613C
:102F3800754616E01A68111D196015680021626847
:102F4800284600F049F808B1401B6060636804E057
:102F580004F1420584F8422001232361002384F808
:102F68004330CDF800803B4603AA21463046FFF7A0
:102F780097FE013002D14FF0FF3026E023692A4640
:102F880039463046C0470130F5D023689B0710D535
:102F9800002504F1190907E001234A46394630465D
:102FA800C0470130E7D00135E368039A9B1A9D4278
:102FB800F2DBE068039B9842B8BF184605E00B783F
:102FC80004F1420584F842308AE705B0BDE8F08391
:102FD800893300089A33000810B5C9B202449042F8
:102FE800034605D01C7801308C42F8D1184610BD34
:102FF800002010BD884210B501EB020301D8421E23
:103008000BE09842FBD28118D21AD34204D013F8AD
:10301800014D01F8014DF8E710BD994204D011F8AF
:10302800014B02F8014FF8E710BD000038B505461E
:10303800002944D051F8043C0C1F002BB8BFE418F9
:1030480000F0D4F81E4A1368114613B9636014607F
:1030580030E0A3420DD92268A018834201BF186846
:103068005B681218226063600C6023E0A24203D8F8
:1030780013465A68002AF9D118681918A1420BD1C9
:103088002168014458188242196013D110685268A7
:10309800014419605A600DE002D90C232B6009E045
:1030A80021686018824201BF1068526809182160BF
:1030B80062605C602846BDE8384000F098B838BDCA
:1030C8003C01002070B5CD1C25F0030508350C2DFA
:1030D80038BF0C25002D064601DBA94202D90C2376
:1030E800336046E000F082F8234B1C681A462146FC
:1030F800A1B10B685B1B0ED40B2B03D90B60CC184A
:10310800CD501EE08C420BBF63684B681360636050
:1031180018BF0C4615E00C464968E9E7174C2368C8
:103128001BB9304600F052F820602946304600F0BE
:103138004DF8431C18D0C41C24F00304A0420DD140
:103148002560304600F053F804F10B00231D20F0F1
:103158000700C31A0ED05A42E25070BD211A3046F9
:1031680000F034F80130EBD10C233360304600F026
:103178003EF8002070BD00BF3C010020380100204F
:10318800F8B5074615460E4621B91146BDE8F84080
:10319800FFF798BF1AB9FFF749FF2846F8BD00F0B6
:1031A80027F885420ED929463846FFF78BFF044693
:1031B80050B131462A46FFF7D9FB31463846FFF76A
:1031C80035FF01E03046F8BD2046F8BD38B5064C5D
:1031D8000023054608462360FEF79EFB431C02D1E8
:1031E800236803B12B6038BD440100207047704745
:1031F80051F8040C0028BEBF091851F8043CC01847
:103208000438704702030405060708090A0B0C0D69
:103218000E0F101001020000537461636B20667278
:10322800616D653A0A000000205230203D202025BB
:103238003038580A00000000205231203D20202557
:103248003038580A00000000205232203D20202546
:103258003038580A00000000205233203D20202535
:103268003038580A0000000020523132203D202515
:103278003038580A00000000204C52203D202025FC
:103288003038580A00000000205043203D202025F7
:103298003038580A0000000020505352203D2025A5
:1032A8003038580A000000004653522F4641523A1F
:1032B8000A0000002043465352203D202025303884
:1032C800580A00002048465352203D202025303817
:1032D800580A00002044465352203D20202530380B
:1032E800580A00002041465352203D2020253038FE
:1032F800580A0000204D4D464152203D20253038C7
:10330800580A00002042464152203D2020253038EE
:10331800580A00004D6973630A000000204C522FC0
:103328004558435F52455455524E3D202530385834
:103338000A0000005B486172644661756C745D0A3E
:10334800000000005B4275734661756C745D0A008D
:103358005B55736167654661756C745D0A000000B2
:10336800000000000000000001020304060708092D
:10337800232D302B2000686C4C0065666745464756
:1033880000303132333435363738394142434445D9
:103398004600303132333435363738396162636448
:0333A80065660057
:1033AC00785634121000000001FFFFFFAC00002023
:1033BC000000000000A24A040000803F0009111A1E
:1033CC00222B333C444C555D656C747C838B9299F9
:1033DC009FA6ADB3B9BFC4CACFD4D8DD00000000DE
:1033EC0000000000000000000000000000000000D1
:1033FC0000000000000000000000000000000000C1
:10340C0000000000000000000000000000000000B0
:10341C0000000000000000000000000000000000A0
:10342C000000000000000000000000000000000090
:10343C000000000000000000000000003C00002024
:04344C0032547698E8
:040000050800010DE1
:00000001FF
