:020000040800F2
:100000000050002021020008A5330008A933000891
:10001000AD330008B1330008B5330008000000001C
:10002000000000000000000000000000B9330008DC
:10003000BD33000800000000C1330008C5330008CC
:10004000B12C0008B12C0008B12C0008B12C00081C
:10005000B12C0008B12C0008B12C0008B12C00080C
:10006000B12C0008B12C0008B12C0008B12C0008FC
:10007000B12C0008B12C0008B12C0008B12C0008EC
:10008000B12C0008B12C0008B12C0008B12C0008DC
:10009000CD330008B12C0008B12C0008B12C0008A9
:1000A000B12C0008B12C0008B12C0008B12C0008BC
:1000B000B12C0008DD330008B12C0008B12C000879
:1000C000B12C0008B12C0008B12C0008B12C00089C
:1000D000B12C0008B12C0008B12C0008B12C00088C
:1000E000B12C0008B12C0008B12C00080000000061
:1000F0000000000000000000000000000000000000
:1001000000000000000000005FF808F100B583B0B7
:1001100002F036FD304B314A1360314A1360314BE7
:10012000314A03E011681960043304322F498B42CD
:10013000F8D32A4B1A682E4B9A4204D1284B1A68DE
:100140002C4B9A4200D0FEE7234B2B4A13602B4ADC
:1001500013602B4B02E000221A600433294A9342B9
:10016000F9D3254B1B6813B9244B1B6803B1FEE779
:1001700002F012FD694601A802F0ACFC224C234BB0
:100180001C1BA410002504E01F4B53F82530984792
:100190000135AC42F8DC1E4C1E4B1C1BA410002584
:1001A00004E01B4B53F8253098470135AC42F8DC8E
:1001B0000099019802F0F0FE0546174C174B1C1BE6
:1001C000A41004E0013C144B53F824309847002C51
:1001D000F8DC284602F05AFCBABADECA0000002059
:1001E000D401002000000020B44D0008D8010020F8
:1001F0007856341232547698D80100206C150020BD
:10020000D80100207015002078030008780300084A
:1002100078030008780300087803000878030008D2
:1002200008B5FFF773FF00BF00BEFEE71EF0040F26
:100230000CBFEFF30880EFF309807146414A104785
:100240002DE9F04182B004468846134B5E6B9F6BEC
:100250009D6A1B6B13F0020F0DD00F4BDB6A002B56
:1002600009DA4BF6AB6102F013FD20B14FF000420A
:10027000094BDA620CE0094802F034FCCDF800804A
:100280003B4632462946204602F08AFC00BEFEE785
:1002900002B0BDE8F08100BF00ED00E0B44C000802
:1002A00000BEFEE71EF0040F0CBFEFF30880EFF373
:1002B00009807146244A10472DE9F04182B0044676
:1002C0008846084B5E6B9F6B9D6A074802F00AFCEC
:1002D000CDF800803B4632462946204602F060FCBD
:1002E00000BEFEE700ED00E0C44C00081EF0040F65
:1002F0000CBFEFF30880EFF309807146134A1047F3
:100300002DE9F04182B004468846084B5E6B9F6B36
:100310009D6A074802F0E6FBCDF800803B46324676
:100320002946204602F03CFC00BEFEE700ED00E05E
:10033000D04C000800BEFEE700BEFEE700BEFEE7B0
:100340007047000041020008B902000801030008DC
:10035000B44D000800000020D8010020B44D000872
:100360000000001000000010D801002070150020CF
:08037000000000100000001065
:1003780010B504460E4B18784FF47A73B3FBF0F3BC
:100388000C4A1068B0FBF3F000F0A0F858B90F2C35
:100398000BD8002221464FF0FF3000F059F8064BE9
:1003A8001C60002010BD012010BD012010BD00BF41
:1003B80008000020140000200400002008B5074AA7
:1003C800136843F010031360032000F02FF8002097
:1003D800FFF7CEFF02F028FF002008BD00200240F2
:1003E800034A1368034909780B441360704700BF38
:1003F8009004002008000020014B1868704700BFD7
:100408009004002038B50446FFF7F6FF0546B4F11E
:10041800FF3F02D0044B1B781C44FFF7EDFF401B45
:100428008442FAD838BD00BF08000020074AD368C4
:1004380023F4E0631B041B0C000200F4E060184383
:1004480040F0BF6040F40030D060704700ED00E03D
:1004580030B4164BDB68C3F30223C3F10704042C42
:1004680028BF04241D1D062D01D9DD1E00E000252E
:10047800012303FA04F4013C2140A940AB40013BAD
:100488001A400A43002806DA00F00F001201D2B21F
:10049800074B1A5407E01201D2B200F1604000F590
:1004A800614080F8002330BC704700BF00ED00E0D9
:1004B80014ED00E0420900F01F00012303FA00F0E8
:1004C800014B43F82200704700E100E00138B0F129
:1004D800807F0AD2064B5860F021064A82F8231022
:1004E8000020986007221A6070470120704700BFFB
:1004F80010E000E000ED00E0F0B583B000263446DF
:10050800D5E00122A2400B6813409A4240F0CE8009
:100518004D68122D2DD00BD8022D27D003D85DB3EE
:10052800012D1ED035E0032D30D0112D1BD030E029
:10053800614FBD4220D008D8A7F58017BD421BD017
:1005480007F58037BD4224D116E05C4FBD4213D079
:1005580007F58037BD420FD0A7F58017BD4218D1E7
:100568000AE0CE6815E0CE68043612E0CE68083698
:100578000FE0CE680C360CE08D684DB1012D02D12C
:100588000261082605E04261082602E0002600E034
:100598000426FF2B01D8864601E000F1040EFF2B4C
:1005A80001D8A20002E0A4F108029200DEF800706F
:1005B8000F25954027EA050506FA02F22A43CEF8E8
:1005C80000204A6812F0805F70D03D4A956945F076
:1005D80001059561926902F001020192019AA7084A
:1005E800BD1C384A52F8255004F0030292004FF01F
:1005F8000F0E0EFA02FE25EA0E0E334DA8420DD05C
:1006080005F58065A8420BD005F58065A84209D09C
:1006180005F58065A84207D1032506E0002504E01A
:10062800012502E0022500E0042505FA02F24EEA5F
:1006380002020237234D45F827204A6812F4803F0A
:1006480005D005F580652A681A432A6004E01F4D25
:100658002A6822EA03022A604A6812F4003F04D09A
:100668001A4D6A681A436A6004E0184D6A6822EAFB
:1006780003026A604A6812F4801F04D0134DAA6806
:100688001A43AA6004E0114DAA6822EA0302AA608C
:100698004A6812F4001F04D00C4DEA681343EB605B
:1006A80004E00A4DEA6822EA0303EB6001340F2CE8
:1006B8007FF627AF03B0F0BD000021100000311015
:1006C8000010024000000140000801400004014001
:1006D8008368194201D0012070470020704700BF8D
:1006E8000AB101617047090401617047C368594044
:1006F800C1607047002867D0F0B587B0044690F80D
:10070800293413F0FF0F04D1002380F8283402F0B5
:10071800F7FE032384F82934206801F0DFFC25461E
:1007280055F8107B6E460FCD0FC62B683360231D1E
:100738000ECB384601F0C0FC0021206801F0D8FC3F
:10074800002310E004EB4312012182F8291082F8FB
:1007580028309386002182F82B109163D1639A1C6C
:100768005201A15001330E2BECD9002312E004EB07
:100778004312002182F8291282F82832938682F8DF
:100788002B12C2F83812C2F83C1203F112025201BD
:10079800A15001330E2BEAD9254655F8107B6E4639
:1007A8000FCD0FC62B683360231D0ECB384601F0E2
:1007B800A1FC002584F82450012384F829342068FA
:1007C80001F0C0FF284601E00120704707B0F0BDE6
:1007D80090F82834012B10D010B50446012180F878
:1007E800281402F0D7FF206801F0AAFF206801F062
:1007F8006BFC002084F8280410BD0220704700BF5D
:1008080090F82834012B0DD010B50446012380F848
:10081800283480F82410006801F08CFF002084F848
:10082800280410BD0220704738B54DB2002D05DAF6
:1008380001F07F0464012834044405E001F07F04DA
:10084800640104F50A74044401F07F012170ED0F7E
:1008580065702261E37090F82834012B0BD00546AF
:10086800012380F828342146006801F059FC002053
:1008780085F8280438BD022038BD00BF4AB2002AD6
:1008880005DA01F07F035B012833034405E001F03A
:100898007F035B0103F50A73034401F07F011970BC
:1008A800D20F5A7090F82824012A0CD010B50446AB
:1008B800012280F828241946006801F0CFFD0020A5
:1008C80084F8280410BD0220704700BF70B501F0FD
:1008D8007F056C0104F50A7101440444C4F83C2204
:1008E80005F112025201861883500023736084F8C0
:1008F800293284F828521DB9006801F03FFF02E050
:10090800006801F03BFF002070BD00BF01F00F013F
:10091800123100EB41108088704700BF70B501F0BC
:100928007F056C0104F1280101440444E263AA1C18
:1009380052018618835000237360012384F82930FC
:1009480084F828501DB9006801F018FF02E000681B
:1009580001F014FF002070BD70B582B00546002379
:10096800ADF80630ADF8043016E2BDF8064014F0D4
:100978000F0440F0C880BDF8063003F010039BB2A6
:100988009BBB03889BB223F4E14323F070039BB223
:1009980003802968B1F850309AB295F8283002EBF4
:1009A800C303023301EB4303D3F80034C3F3090351
:1009B8006B64EA6B1344EB630021284602F0D2FD16
:1009C80095F8243013F0FF0F00F0E6812B6C002B14
:1009D80040F0E2812A6895F8243043F08003A2F8B9
:1009E8004C30002385F82430D6E103889BB2ADF85B
:1009F8000430BDF8043003F400639BB203B3B0F8CD
:100A080050309BB295F8282203EBC203063300EB63
:100A18004303D3F80034C3F30903C5F84432B5F8E7
:100A28002C2205F22C4102F01DF82A68138823F0C5
:100A380070031B051B0D1380284602F081FDABE1F6
:100A4800BDF8043013F4004F00F0A681038823F0AA
:100A580070031B051B0D03802868B0F850309BB24B
:100A680095F8282203EBC203063300EB4303D3F8BF
:100A78000034C3F30903C5F8443263B1B5F82C2236
:100A8800D5F83C1201F0EEFFD5F83C22D5F84432F7
:100A98001344C5F83C320021284602F059FD2A6863
:100AA800B2F850309BB2063302EB4303D5F8381244
:100AB8003E290ED9C1F34F1211F01F0F01D1013A8F
:100AC80092B26FEAC2626FEA524292B2C3F800244D
:100AD8000AE0C1F34F0211F0010F01D0013292B2C6
:100AE800920292B2C3F800242A6813889BB223F4B6
:100AF800804323F0700383F4405343F4004343F0EE
:100B08008003138048E130F824309BB2ADF80430FC
:100B1800BDF8043013F4004F00F0968030F824300C
:100B280023F070031B051B0D20F8243005EB44133C
:100B380093F83232E3B92868B0F850309BB205EB2D
:100B4800441292F8282203EBC203063300EB430356
:100B5800B3F80064C6F30906002E52D005EB441121
:100B68003346B1F82C22D1F83C1201F07BFF48E063
:100B7800286805EB441393F8281230F8213003F461
:100B880080439BB2B3B1B0F8502092B202EBC103DC
:100B9800023300EB4303B3F80064C6F30906FEB161
:100BA80005EB44113346B1F82E22D1F83C1201F07E
:100BB80059FF15E0B0F850309BB203EBC103063380
:100BC80000EB4303B3F80064C6F3090646B105EB2E
:100BD80044113346B1F83022D1F83C1201F042FFFB
:100BE8002A6805EB441393F8281232F8213023F0D1
:100BF800F0031B051B0D43F4004343F0C00322F828
:100C0800213004F112035B01E9184A6832444A6052
:100C180005EB4411D1F83C223244C1F83C22EB5890
:100C28001BB1D1F838128E4207D205EB441393F862
:100C38002812284602F08CFC06E005EB441191F8D6
:100C480028122846FFF742FEBDF8043003F080035F
:100C58009BB2002B00F0A0802A6832F824309BB2A7
:100C680023F4E14323F070039BB222F8243005EB10
:100C7800441393F83230EBB92868B0F850309BB27F
:100C880005EB441292F8282003EBC203023300EB71
:100C98004303D3F80034C3F30903A21C05EB421243
:100CA8005360002B51D005EB44118A8DC96B01F0BC
:100CB80051FD4AE0286805EB441393F8281030F8F2
:100CC800213003F040039BB2BBB1B0F8502092B280
:100CD80002EBC103023300EB4303D3F80034C3F340
:100CE8000903A21C05EB42125360EBB105EB44115A
:100CF800CA8DC96B01F02EFD16E0B0F850309BB2DA
:100D080003EBC103063300EB4303D3F80034C3F30A
:100D18000903A21C05EB421253602BB105EB4411E9
:100D28000A8EC96B01F016FD2A6805EB441393F887
:100D3800281032F8213023F0F0031B051B0D43F473
:100D4800404343F0800322F821302968B1F850303D
:100D58009AB205EB441090F8283002EBC303023333
:100D680001EB4303D3F80034C3F30903A11C490181
:100D78006A185360C26B1A44C2636B582BB990F857
:100D88002810284602F0EEFB06E005EB441494F820
:100D980028102846FFF7C2FD2868B0F844309BB2F7
:100DA800ADF8063013F4004F7FF4DFAD002002B039
:100DB80070BD00BF10B50446006801F0C5FC10F412
:100DC800004F02D02046FFF7C7FD206801F0BCFCA9
:100DD80010F4806F0FD02268B2F844309BB223F42D
:100DE80080639BB2A2F84430204602F0CBFB00217E
:100DF8002046FFF705FD206801F0A6FC10F4804F9F
:100E080008D02268B2F844309BB223F480439BB2E6
:100E1800A2F84430206801F097FC10F4005F08D075
:100E28002268B2F844309BB223F400539BB2A2F874
:100E38004430206801F088FC10F4805F1DD02268DF
:100E4800B2F840309BB223F004039BB2A2F84030C2
:100E58002268B2F840309BB223F008039BB2A2F894
:100E68004030204602F0AAFB2268B2F844309BB218
:100E780023F480539BB2A2F84430206801F064FC4C
:100E880010F4006F21D02268B2F840309BB243F0D2
:100E98000803A2F840302268B2F844309BB223F429
:100EA80000639BB2A2F844302268B2F840309BB28B
:100EB80043F00403A2F84030206801F045FC10F428
:100EC800805F02D1204602F069FB206801F03CFCFB
:100ED80010F4007F0BD02268B2F844309BB223F4A0
:100EE80000739BB2A2F84430204602F045FB20680C
:100EF80001F02AFC10F4807F08D02268B2F8443050
:100F08009BB223F480739BB2A2F8443010BD00BF9B
:100F180038B54AB2002A05DA01F07F035B012833AD
:100F2800034403E04B0103F50A73034401249C7056
:100F380001F07F041C70D20F5A7090F82824012AFF
:100F480011D00546012280F828241946006801F0CE
:100F58006DFB24B905F22C41286801F0F9FB00204B
:100F680085F8280438BD022038BD00BF10B54AB244
:100F7800002A05DA01F07F035B012833034403E00C
:100F88004B0103F50A73034400249C7001F07F01B0
:100F98001970D20F5A7090F82824012A0BD00446F1
:100FA800012280F828241946006801F077FB002008
:100FB80084F8280410BD022010BD00BF10B401F051
:100FC8008004A4B22CB101F07F0149012831014409
:100FD80003E0490101F50A71014412B98A728B8054
:100FE80004E001228A72CB801B0C0B81002010BC0C
:100FF800704700BF82B0084B1B68084AA2FB032356
:101008005B0A00FB03F0019000BF019B5A1E01928E
:10101800002BF9D102B0704714000020D34D6210A4
:1010280070B582B00446036813F0010F6BD0A84B6B
:101038005B6803F00C03042B0AD0A54B5B6803F034
:101048000C03082B0DD1A24B5B6813F4803F08D02A
:101058009F4B1B6813F4003F55D06368002B52D197
:10106800B8E16368B3F5803F05D1994A136843F442
:101078008033136026E063B903F1804303F504333A
:101088001A6822F480321A601A6822F480221A60E0
:1010980018E0B3F5A02F0CD103F18043A3F53C333E
:1010A8001A6842F480221A601A6842F480321A6080
:1010B80008E0874B1A6822F480321A601A6822F412
:1010C80080221A6063687BB1FFF796F9054605E050
:1010D800FFF792F9401B642800F27E817C4B1B6865
:1010E80013F4003FF4D00EE0FFF786F9054605E05B
:1010F800FFF782F9401B642800F27081744B1B686B
:1011080013F4003FF4D1236813F0020F50D0704B52
:101118005B6813F00C0F0AD06D4B5B6803F00C038F
:10112800082B16D16A4B5B6813F4803F11D1684BCA
:101138001B6813F0020F03D02369012B40F0508184
:10114800634A136823F0F803616943EAC103136033
:101158002EE02369D3B101225E4B1A60FFF74CF9E8
:10116800054605E0FFF748F9401B022800F23A81DE
:10117800574B1B6813F0020FF4D0554A136823F03D
:10118800F803616943EAC103136011E00022514B7F
:101198001A60FFF731F9054605E0FFF72DF9401B06
:1011A800022800F221814A4B1B6813F0020FF4D188
:1011B800236813F0080F29D0A369ABB10122464B6D
:1011C8001A60FFF719F9054605E0FFF715F9401B06
:1011D800022800F20B813E4B5B6A13F0020FF4D039
:1011E8000120FFF707FF11E000223B4B1A60FFF7D1
:1011F80003F9054605E0FFF7FFF8401B022800F257
:10120800F780334B5B6A13F0020FF4D1236813F0B5
:10121800040F00F089802E4BDB6913F0805F0BD13F
:101228002B4BDA6942F08052DA61DB6903F08053B4
:101238000193019B012500E00025284B1B6813F44E
:10124800807F13D1254A136843F480731360FFF736
:10125800D3F8064605E0FFF7CFF8801B642800F2B4
:10126800C9801E4B1B6813F4807FF4D0E368012B00
:1012780005D1174A136A43F00103136222E063B9E8
:1012880003F1804303F504331A6A22F001021A625B
:101298001A6A22F004021A6214E0052B09D10C4BD9
:1012A8001A6A42F004021A621A6A42F001021A62C9
:1012B80008E0074B1A6A22F001021A621A6A22F041
:1012C80004021A62E368CBB1FFF796F806460FE00E
:1012D8000010024000004242800442420070004078
:1012E800FFF78AF8801B41F28833984200F2848025
:1012F800494B1B6A13F0020FF2D00FE0FFF77CF89E
:10130800064606E0FFF778F8801B41F288339842DA
:1013180074D8414B1B6A13F0020FF3D125B13E4A32
:10132800D36923F08053D361E369002B68D03A4A2C
:10133800526802F00C02082A64D0022B37D100222E
:10134800364B1A60FFF758F8054604E0FFF754F8E3
:10135800401B022858D8304B1B6813F0007FF5D18A
:10136800236AB3F5803F06D12B494B6823F400323A
:10137800A36813434B602848436823F47411236A15
:10138800626A13430B4343600122244B1A60FFF740
:1013980033F8044604E0FFF72FF8001B022835D87D
:1013A8001D4B1B6813F0007FF5D0002031E00022B0
:1013B8001A4B1A60FFF720F8044604E0FFF71CF800
:1013C800001B022824D8144B1B6813F0007FF5D1AA
:1013D80000201EE001201CE003201AE0032018E092
:1013E800012016E0032014E0032012E0032010E09F
:1013F80003200EE003200CE003200AE0032008E0AD
:10140800002006E0012004E0032002E0032000E0C1
:10141800032002B070BD00BF0010024060004242CD
:1014280030B486B0164D02AC28686968AA68EB68C3
:101438000FC42B8AADF80430124B5B6803F00C0222
:10144800082A19D1C3F3834206A90A4412F8100CDA
:1014580013F4803F0CD00B4B5B68C3F340430B4441
:1014680013F8142C084B03FB00F0B0FBF2F004E077
:10147800064B03FB00F000E0034806B030BC7047A1
:10148800844B00080010024000127A0000093D0059
:1014980070B5654B1B6803F007038B420BD2624A99
:1014A800136823F007030B431360136803F0070363
:1014B800994240F0A880036813F0020F17D013F088
:1014C800040F04D0594A536843F4E0635360036837
:1014D80013F0080F04D0554A536843F4605353601F
:1014E800524C636823F0F0028368134363600D462F
:1014F8000446036813F0010F4DD04268012A05D154
:101508004A4B1B6813F4003F0DD17EE0022A05D137
:10151800464B1B6813F0007F05D178E0434B1B68EE
:1015280013F0020F75D041494B6823F003031343AE
:101538004B60FEF761FF06466368012B0ED106E09B
:10154800FEF75AFF801B41F28833984263D8374B25
:101558005B6803F00C03042BF2D11CE0022B15D1BD
:1015680006E0FEF749FF801B41F28833984254D8C1
:101578002E4B5B6803F00C03082BF2D10BE0FEF74F
:101588003BFF801B41F28833984248D8274B5B6861
:1015980013F00C0FF3D1244B1B6803F007039D4293
:1015A8000AD2214A136823F007032B4313601368F8
:1015B80003F007039D4234D1236813F0040F06D0CB
:1015C8001A494B6823F4E062E36813434B602368CD
:1015D80013F0080F07D0154A536823F460532169A4
:1015E80043EAC1035360FFF71BFF104B5B68C3F36B
:1015F80003130F4AD35CD8400E4B18600020FEF747
:10160800B7FE002070BD012070BD012070BD012013
:1016180070BD012070BD032070BD032070BD032084
:1016280070BD012070BD00BF0020024000100240C4
:10163800E04C00081400002070B582B0044603682E
:1016480013F0010F5CD03E4BDB6913F0805F0BD1C8
:101658003B4BDA6942F08052DA61DB6903F0805370
:101668000193019B012600E00026364B1B6813F40A
:10167800807F12D1334A136843F480731360FEF7F6
:10168800BBFE054604E0FEF7B7FE401B64284FD8B2
:101698002C4B1B6813F4807FF5D0294B1B6A13F47D
:1016A800407321D0626802F4407293421CD0244AED
:1016B800136A23F44070244901250D6000250D604C
:1016C800106213F0010F0FD0FEF796FE054606E0F4
:1016D800FEF792FE401B41F2883398422AD8184BF5
:1016E8001B6A13F0020FF3D015490B6A23F44072FA
:1016F800636813430B621EB1CB6923F08053CB613F
:10170800236813F0020F06D00D494B6823F44042BA
:10171800A36813434B60236813F0100F0CD00849DB
:101728004B6823F48002E36813434B60002004E015
:10173800032002E0032000E0002002B070BD00BFDB
:1017480000100240007000404004424270B4036A36
:1017580023F001030362036A4668826922F0730278
:101768000C6842EA040523F002028B6813430C4C10
:10177800A04205D123F00803CA68134323F00403E9
:10178800074CA04205D126F440764A6932438E6957
:101798001643466085614A684263036270BC7047BD
:1017A800002C014030B4036A23F480730362036A97
:1017B8004568C26922F073020C68224323F400735F
:1017C8008C6843EA04230E4CA04206D123F400633C
:1017D800CC6843EA042323F48063094CA04207D170
:1017E80025F440554C6945EA04158C6945EA041509
:1017F8004560C2614A68C263036230BC704700BF7B
:10180800002C014030B4036A23F480530362036A56
:101818004468C26922F4E6420D6842EA052223F4CC
:1018280000538D6843EA0533074DA84204D124F4D8
:1018380080444D6944EA85144460C2614A68026480
:10184800036230BC704700BF002C014010B4036A2B
:10185800046A24F001040462846924F0F00444EA70
:10186800021223F00A0319438261016210BC704717
:1018780010B4036A23F0100303628469036A24F432
:10188800704444EA023223F0A00343EA0111826162
:10189800016210BC704700BF836823F0700341F0F9
:1018A80007010B438360704710B4846824F47F44B5
:1018B80042EA0323194344EA0103836010BC7047DA
:1018C800704700BF90F83C30012B00F0838010B5C2
:1018D8000446012380F83C30022380F83D3002683A
:1018E800936823F47F4323F0770393600B68402BBE
:1018F8004CD00AD8102B58D002D8002B50D062E018
:10190800202B57D0302B5AD05DE0702B12D004D842
:10191800502B27D0602B2FD055E0B3F5805F03D034
:10192800B3F5005F12D04EE00268936823F0070316
:10193800936048E0CB684A6889680068FFF7B4FF9D
:101948002268936843F0770393603CE0CB684A6869
:1019580089680068FFF7A8FF2268936843F480430A
:10196800936030E0CA6849680068FFF76FFF50214C
:101978002068FFF791FF26E0CA6849680068FFF70A
:1019880077FF60212068FFF787FF1CE0CA68496875
:101998000068FFF75BFF40212068FFF77DFF12E03A
:1019A80000210068FFF778FF0DE010210068FFF7BD
:1019B80073FF08E020210068FFF76EFF03E0302185
:1019C8000068FFF769FF012384F83D30002084F8A0
:1019D8003C0010BD02207047704700BF704700BF31
:1019E800704700BF704700BF10B5044603681A6906
:1019F80012F0020F17D0DA6812F0020F13D06FF04E
:101A080002021A610123037703689B6913F0030F2D
:101A180002D001F0F9FA04E0FFF7E0FF2046FFF7F3
:101A2800DFFF0023237723681A6912F0040F19D007
:101A3800DA6812F0040F15D06FF004021A6102235D
:101A4800237723689B6913F4407F03D0204601F075
:101A5800DBFA05E02046FFF7C1FF2046FFF7C0FF8D
:101A68000023237723681A6912F0080F19D0DA685F
:101A780012F0080F15D06FF008021A6104232377BB
:101A88002368DB6913F0030F03D0204601F0BCFA8A
:101A980005E02046FFF7A2FF2046FFF7A1FF00233D
:101AA800237723681A6912F0100F19D0DA6812F038
:101AB800100F15D06FF010021A61082323772368DE
:101AC800DB6913F4407F03D0204601F09DFA05E05E
:101AD8002046FFF783FF2046FFF782FF0023237786
:101AE80023681A6912F0010F09D0DA6812F0010FA1
:101AF80005D06FF001021A612046FFF76DFF2368D9
:101B08001A6912F0800F09D0DA6812F0800F05D038
:101B18006FF080021A61204600F0CCFA23681A6937
:101B280012F0400F09D0DA6812F0400F05D06FF0BC
:101B380040021A612046FFF755FF23681A6912F020
:101B4800200F09D0DA6812F0200F05D06FF02002BC
:101B58001A61204600F0ACFA10BD00BF03681A4AAB
:101B680090420AD0B0F1804F07D0A2F5943290424B
:101B780003D002F58062904203D123F070034A68D3
:101B88001343114A90420AD0B0F1804F07D0A2F512
:101B98009432904203D002F58062904203D123F43C
:101BA8004073CA68134323F080034A6913430360F0
:101BB8008B68C3620B688362034B984201D10B693F
:101BC8000363012343617047002C0140B8B110B58D
:101BD800044690F83D3013F0FF0F04D1002380F83D
:101BE8003C3001F043FB022384F83D30211D20687E
:101BF800FFF7B4FF012384F83D30002010BD012019
:101C0800704700BFB8B110B5044690F83D3013F0E6
:101C1800FF0F04D1002380F83C30FFF751FE022368
:101C280084F83D30211D2068FFF798FF012384F8D0
:101C38003D30002010BD0120704700BF30B4036A5A
:101C480023F010030362036A4468826922F4E642BF
:101C58000D6842EA052223F020038D6843EA051344
:101C68000D4DA84206D123F08003CD6843EA051341
:101C780023F04003084DA84207D124F440644D697D
:101C880044EA85048D6944EA8504446082614A68AF
:101C98008263036230BC7047002C014038B590F86D
:101CA8003C30012B66D00D460446012380F83C30B9
:101CB800022380F83D300C2A55D8DFE802F007549B
:101CC80054541A5454542E54545441000068FFF785
:101CD8003DFD2268936943F0080393612268936984
:101CE80023F004039361226891692B690B43936184
:101CF80039E00068FFF7A2FF2268936943F40063A4
:101D080093612268936923F48063936122689369DD
:101D1800296943EA0123936125E00068FFF742FD42
:101D28002268D36943F00803D3612268D36923F09A
:101D38000403D3612268D1692B690B43D36112E094
:101D48000068FFF75FFD2268D36943F40063D3613D
:101D58002268D36923F48063D3612268D36929692F
:101D680043EA0123D361012384F83D30002084F83D
:101D78003C0038BD022038BD70B4046A24F0010468
:101D880004628469056A164EB0420CD0B0F1804FE7
:101D98000BD0A6F59436B04209D006F58066B0425D
:101DA80007D1012606E0012604E0012602E001260B
:101DB80000E000261EB124F00304224301E044F0B1
:101DC800010222F0F0021B01DBB2134325F00A02E4
:101DD80001F00A0111438361016270BC704700BFC2
:101DE800002C014010B4012303FA01F4036A23EA2A
:101DF80004030362036A8A401A43026210BC7047F4
:101E080010B5044601220068FFF7ECFF2368074A73
:101E1800934203D15A6C42F400425A642268136810
:101E280043F001031360002010BD00BF002C0140E7
:101E380010B5044600220068FFF7D4FF2368124A51
:101E480093420DD1196A41F21112114208D1196A4F
:101E580040F24442114203D15A6C22F400425A64BF
:101E68002368196A41F21112114208D1196A40F225
:101E78004442114203D11A6822F001021A60012378
:101E880084F83D30002010BD002C014010B404231C
:101E980003FA01F4036A23EA04030362036A8A402B
:101EA8001A43026210BC704700285AD070B588B037
:101EB80004460E4690F83D3013F0FF0F04D100237E
:101EC80080F83C3001F0E6F9022384F83D30211D0A
:101ED8002068FFF743FEB368032231682068FFF7E4
:101EE8004BFF2268936923F00C0393612268916980
:101EF80073680B4393612268536843F0800353600F
:101F08002268936823F0700393602268936843F013
:101F1800400393602268936823F007039360226864
:101F2800936843F004039360002505950695702394
:101F38000193079504950395F368029301A9206816
:101F4800FFF77CFE2268536823F070035360226811
:101F5800536843F050035360012384F83D3028460A
:101F680001E00120704708B070BD00BF10B50446FD
:101F78000268D36843F00203D3600122002100689D
:101F8800FFF730FF2268136843F001031360002055
:101F980010BD00BF10B5044604220068FFF776FFA5
:101FA8002268536C43F4004353642268136843F077
:101FB80001031360002010BD10B50446002200681C
:101FC800FFF764FF2368196A41F21112114208D120
:101FD800196A40F24442114203D15A6C22F4004279
:101FE8005A642368196A41F21112114208D1196A18
:101FF80040F24442114203D11A6822F001021A60E9
:10200800002010BD90F83C30012B25D0012380F82A
:102018003C30CB6823F440728B68134323F480620E
:102028004B68134323F400620B68134323F4805274
:102038000B69134323F400524B69134323F4804381
:102048008A69134323F4004313430268536400234B
:1020580080F83C30184670470220704790F83C30B2
:10206800012B21D030B4012280F83C20022380F8D3
:102078003D300468636823F0700363600468656832
:102088000B682B4363600468A36823F08003A36094
:102098000468A5684B682B43A36080F83D200023A3
:1020A80080F83C30184601E00220704730BC704789
:1020B800704700BF704700BF84B001A880E80E00D9
:1020C800002004B0704700BFB0F840309BB243F422
:1020D8003F43A0F840300020704700BFB0F84030C0
:1020E80023F474535B045B0CA0F840300020704765
:1020F8000020704784B038B505AC84E80E00012391
:10210800A0F840300024A0F84040A0F84440A0F8CF
:102118005040FFF7D9FF2046BDE8384004B070476B
:1021280010B4CB78032B35D8DFE803F002280F1B57
:102138000A7830F822309BB223F4EC4323F0700382
:1021480043F4007320F8223024E00A7830F8223073
:102158009BB223F4EC4323F070039BB220F82230A7
:1021680018E00A7830F822309BB223F4EC4323F0CD
:10217800700343F4C06320F822300BE00A7830F88B
:1021880022309BB223F4EC4323F0700343F48063C2
:1021980020F822300A7830F8223023F0F0031B05AB
:1021A8001B0D134343F4004343F0800320F822300F
:1021B8008B7A002B40F08B804B7883B3B0F850308B
:1021C8009BB20A7803EBC20300EB43038A885208E8
:1021D8005200C3F800240A7830F8223003F0400394
:1021E8009BB25BB130F8223023F0F0031B051B0DC6
:1021F80043F4004343F0C00320F822300A7830F853
:1022080022309BB223F4E04323F0400383F0200301
:1022180043F4004343F0800320F822301BE1B0F878
:1022280050309BB20A7803EBC203043300EB43033C
:102238008A8852085200C3F80024B0F850309BB284
:102248000A7803EBC203063300EB43030C693E2C08
:102258000ED9C4F34F1214F01F0F01D1013A92B2F4
:102268006FEAC2626FEA524292B2C3F800240AE0EF
:10227800C4F34F0214F0010F01D0013292B292025E
:1022880092B2C3F800240A7830F8223003F480436D
:102298009BB25BB130F8223023F0F0031B051B0D15
:1022A80043F4404343F0800320F822300A7830F8A2
:1022B80022309BB223F4804323F0700383F440530D
:1022C80043F4004343F0800320F82230C3E00A7847
:1022D80030F8223023F4F8731B051B0D43F4014337
:1022E80043F0800320F82230B0F850309BB20A78CF
:1022F80003EBC20300EB4303CA8852085200C3F839
:102308000024B0F850309BB20A7803EBC2030433C0
:1023180000EB43030A8952085200C3F800244B78A3
:10232800002B4DD10A7830F8223003F480439BB259
:102338005BB130F8223023F0F0031B051B0D43F48A
:10234800404343F0800320F822300A7830F82230E6
:1023580003F040039BB25BB130F8223023F0F00366
:102368001B051B0D43F4004343F0C00320F8223043
:102378000A7830F8223023F0F0031B051B0D43F4D4
:10238800004343F0C00320F822300C7830F82430A2
:102398009BB223F4804323F0700383F4405348F244
:1023A8008002134320F82430097830F821309BB29A
:1023B80023F4E04323F04003134320F821304AE09C
:1023C8000A7830F8223003F480439BB25BB130F8CE
:1023D800223023F0F0031B051B0D43F4404343F068
:1023E800800320F822300A7830F8223003F04003C6
:1023F8009BB25BB130F8223023F0F0031B051B0DB4
:1024080043F4004343F0C00320F822300A7830F840
:10241800223023F0F0031B051B0D43F4404343F027
:10242800800320F822300C7830F824309BB223F453
:10243800E04323F0400348F28002134320F824309D
:10244800097830F821309BB223F4804323F07003DD
:10245800134320F82130002010BC70478B7A002BE2
:1024680046D14B7813B30A7830F8223003F0400392
:102478009BB25BB130F8223023F0F0031B051B0D33
:1024880043F4004343F0C00320F822300A7830F8C0
:1024980022309BB223F4E04323F0400343F400438B
:1024A80043F0800320F82230002070470A7830F883
:1024B800223003F480439BB25BB130F8223023F022
:1024C800F0031B051B0D43F4404343F0800320F841
:1024D80022300A7830F822309BB223F4804323F06C
:1024E800700343F4004343F0800320F82230DBE715
:1024F80010B44B78002B4BD10A7830F8223003F413
:1025080080439BB25BB130F8223023F0F0031B0507
:102518001B0D43F4404343F0800320F822300A782F
:1025280030F8223003F040039BB25BB130F8223020
:1025380023F0F0031B051B0D43F4004343F0C003D5
:1025480020F822300A7830F8223023F0F0031B05F7
:102558001B0D43F4004343F0C00320F822300C78ED
:1025680030F824309BB223F4804323F0700348F200
:102578008002134320F82430097830F821309BB2C8
:1025880023F4E04323F04003134320F821304AE0CA
:102598000A7830F8223003F480439BB25BB130F8FC
:1025A800223023F0F0031B051B0D43F4404343F096
:1025B800800320F822300A7830F8223003F04003F4
:1025C8009BB25BB130F8223023F0F0031B051B0DE2
:1025D80043F4004343F0C00320F822300A7830F86F
:1025E800223023F0F0031B051B0D43F4404343F056
:1025F800800320F822300C7830F824309BB223F482
:10260800E04323F0400348F28002134320F82430CB
:10261800097830F821309BB223F4804323F070030B
:10262800134320F82130002010BC70470A788AB97B
:1026380030F822309BB223F4804323F0400383F424
:10264800805383F0100343F4004343F0800320F8E1
:10265800223020E04B787BB130F822309BB223F453
:10266800E04323F0400383F0100343F4004343F0B6
:10267800800320F822300EE030F822309BB223F499
:10268800804323F0700383F4805343F4004343F002
:10269800800320F822300020704700BF4B781BB31E
:1026A8000A7830F8223003F040039BB25BB130F86F
:1026B800223023F0F0031B051B0D43F4004343F0C5
:1026C800C00320F822300A7830F822309BB223F475
:1026D800E04323F0400383F0300343F4004343F026
:1026E800800320F8223022E00A7830F8223003F400
:1026F80080439BB25BB130F8223023F0F0031B0516
:102708001B0D43F4404343F0800320F822300A783D
:1027180030F822309BB223F4804323F0700383F413
:10272800405343F4004343F0800320F82230002054
:10273800704700BF11B98023A0F84C3000207047C3
:102748000020704700207047B0F8440080B27047FE
:102758000020704710B401335B1000EB420202F511
:10276800806207E00C78487844EA002422F8044B99
:102778000231013B002BF5D110BC704770B54A7887
:10278800012A40F0C2808E690B699E4203D9F61A6D
:102798008E611E4601E000238B610D4604468B7A4C
:1027A80083B9B3B28A884969FFF7D4FFB4F85030C7
:1027B8009BB22A7803EBC203023304EB4303C3F84A
:1027C800006491E0097830F8213003F040039BB2AF
:1027D8009BB322BBB0F850309BB203EBC10106316A
:1027E80000EB41013E2E0ED9C6F34F1316F01F0F12
:1027F80001D1013B9BB26FEAC3636FEA53439BB2BB
:10280800C1F8003417E0C6F34F0316F0010F01D0EA
:1028180001339BB29B029BB2C1F800340BE0012A42
:1028280009D1B0F850309BB203EBC103023300EB7F
:102838004303C3F800642A8932E022BBB0F8503061
:102848009BB203EBC101023100EB41013E2E0ED9D0
:10285800C6F34F1316F01F0F01D1013B9BB26FEA6D
:10286800C3636FEA53439BB2C1F8003417E0C6F361
:102878004F0316F0010F01D001339BB29B029BB2AC
:10288800C1F800340BE0012A09D1B0F850309BB2EE
:1028980003EBC103023300EB4303C3F80064EA8887
:1028A800B3B269692046FFF755FF6B786BB92A7890
:1028B80034F8223023F0F0031B051B0D43F40043CA
:1028C80043F0C00324F822300EE0012B0CD12A7803
:1028D80034F8223023F0F0031B051B0D43F440436A
:1028E80043F0800324F822302A7834F822309BB24F
:1028F80023F4E04323F0400383F0300343F4004320
:1029080043F0800324F82230AAE08B690C69A342C3
:1029180003D91B1B8B61234601E000248C618C7A50
:102928002CBBB0F8502092B20C7802EBC4020632ED
:1029380000EB42023E2B0ED9C3F34F1413F01F0FC6
:1029480001D1013CA4B26FEAC4646FEA5444A4B252
:10295800C2F8004474E0C3F34F0413F0010F01D030
:102968000134A4B2A402A4B2C2F8004468E02ABBAD
:10297800B0F8502092B20C7802EBC402023200EB9D
:1029880042023E2B0ED9C3F34F1413F01F0F01D18F
:10299800013CA4B26FEAC4646FEA5444A4B2C2F81A
:1029A800004418E0C3F34F0413F0010F01D00134C1
:1029B800A4B2A402A4B2C2F800440CE0012A0AD1CD
:1029C800B0F8502092B20C7802EBC402023200EB4D
:1029D8004202C2F800344A782ABBB0F8502092B2BA
:1029E8000C7802EBC402063200EB42023E2B0ED9F1
:1029F800C3F34F1413F01F0F01D1013CA4B26FEAC7
:102A0800C4646FEA5444A4B2C2F8004418E0C3F3A3
:102A18004F0413F0010F01D00134A4B2A402A4B2F0
:102A2800C2F800440CE0012A0AD1B0F8502092B252
:102A38000C7802EBC402023200EB4202C2F8003406
:102A48000A7830F822309BB223F4804323F07003D5
:102A580083F4405343F4004343F0800320F82230CA
:102A6800002070BD01335B1000EB420202F580626A
:102A780004E0106821F8020B013B0432002BF8D166
:102A8800704700BFFEE700BF08B50D4B1B6813B9C0
:102A98000C4A0B4B1A600A4B1A68C31C23F0030339
:102AA800134409498B4206D901F00EFC0C2303603C
:102AB8004FF0FF3008BD02490B60104608BD00BF4B
:102AC800DC01002070150020004C00200123036069
:102AD800014B0B60704700BF0C0000200FB400B51D
:102AE80083B004AB53F8042B01938021064801F00E
:102AF80037FC002803DD0146034800F039F803B02D
:102B08005DF804EB04B07047E40100202DE9F043C0
:102B180085B004460F46435613BB04252846214674
:102B2800ABBE04461FE03546102E28BF10250023F3
:102B380006E014F9011B04AA1A4402F8101C013318
:102B4800AB42F6D304AA1344002203F8102CE9463A
:102B58004FF0040840464946ABBE8046761B00E06D
:102B68000E46002EDFD1384605B0BDE8F08300BF21
:102B780008B5FFF7CBFF08BD08B500F097F8024B82
:102B8800024A9A6008BD00BF00ED00E0000000089E
:102B980008B500F0B1F808BDF8B504460D4617466B
:102BA8001E462648FFF79AFF21682548FFF796FF3B
:102BB80061682448FFF792FFA1682348FFF78EFF5A
:102BC800E1682248FFF78AFF21692148FFF786FF5D
:102BD80061692048FFF782FFA1691F48FFF77EFF60
:102BE800E1691E48FFF77AFF1D48FFF777FF29467E
:102BF8001C48FFF773FF1C4CE16A1C48FFF76EFF87
:102C0800216B1B48FFF76AFFE16B1A48FFF766FF65
:102C180015F0800F03D039461748FFF75FFF15F40A
:102C2800004F03D031461548FFF758FF1448FFF707
:102C380055FF06991348FFF751FFF8BD984B000858
:102C4800A84B0008B84B0008C84B0008D84B000830
:102C5800E84B0008F84B0008084C0008184C00081E
:102C6800284C0008344C000800ED00E0444C0008F3
:102C7800544C0008644C0008744C0008844C00084C
:102C8800944C00089C4C000883691A888A4207D132
:102C98000268033A012A05D802338361012070478C
:102CA8000020704700207047FEE700000F4B1A68AD
:102CB80042F001021A6059680D4A0A405A601A68BF
:102CC80022F0847222F480321A601A6822F4802278
:102CD8001A605A6822F4FE025A604FF41F029A6082
:102CE8004FF00062034B9A60704700BF001002402B
:102CF8000000FFF800ED00E01F4B5B6803F00C03D9
:102D0800042B06D0082B08D03BBB1C4A1C4B1A606E
:102D180026E01A4A1A4B1A6022E0174A536852688A
:102D2800C3F38343023312F4803F05D1154A02FBF3
:102D380003F3134A136013E00F4A526812F4003F7A
:102D480005D0104A02FB03F30D4A136008E00B4A52
:102D580002FB03F30A4A136002E0084A084B1A60B0
:102D6800054B5B68C3F30313074AD15C044A136835
:102D7800CB401360704700BF0010024000127A0079
:102D88001400002000093D00E04C000830B589B06F
:102D9800002404940594069407941D4B9A6942F004
:102DA80010029A619A6902F010020092009A9A69D8
:102DB80042F020029A619A6902F020020192019A77
:102DC8009A6942F004029A619A6902F00402029236
:102DD800029A9A6942F008029A619B6903F0080313
:102DE8000393039B0B4D22464FF400512846FDF7F1
:102DF80077FC4FF4005304930123059306940223B0
:102E0800079304A92846FDF777FB09B030BD00BF3A
:102E1800001002400010014030B587B00024029431
:102E2800039404940594009401940A4D0A4B2B6072
:102E38006C60AC60EC602C61AC6102A92846FFF7BD
:102E480033F850230093019469462846FFF706F9A2
:102E580007B030BD980400200004004070B594B05D
:102E6800002410941194129413940E940F940794C0
:102E7800089409940A940B940C940D94009401946A
:102E880002940394049405940694234D234B2B60D9
:102E980017236B60AC606326EE602C616C61AC61DB
:102EA8002846FEF793FE4FF48053109310A9284646
:102EB800FEF708FD2846FEF7A5FE0E940F940EA90E
:102EC8002846FFF7CBF860230793089609940A94DD
:102ED8000B940C940D94224607A92846FEF7DEFEB3
:102EE800042207A92846FEF7D9FE082207A9284682
:102EF800FEF7D4FE009401940294039404944FF4D2
:102F080000530593069469462846FFF77BF8284640
:102F180000F00AFA14B070BDD8040020002C01405B
:102F280070B594B0282200210DEB020001F0DDF904
:102F38000024059406940794089409940194029433
:102F48000394049401250A954FF480330B930E954E
:102F58000226119612934FF4801313930AA8FEF7D2
:102F68005FF80F230593069607944FF48063089340
:102F78000994294605A8FEF78BFA102301934FF40C
:102F88008003049301A8FEF757FB14B070BD00BF7F
:102F980008B5FDF713FAFFF7C3FFFFF7F7FE00F0D8
:102FA80021FAFFF739FFFFF759FF144C002120469B
:102FB800FEF726FF00212046FEF7ECFF04212046FD
:102FC800FEF71EFF04212046FEF7E4FF08212046F5
:102FD800FEF716FF08212046FEF7DCFF0848FEF73B
:102FE800C5FF064B1B68074A12685A639A63DA637F
:102FF8004FF47A70FDF706FAF3E700BFD804002013
:10300800980400201800002010B540218148FDF7E1
:103018005FFB18B380217F48FDF75AFBF0B9012107
:103028007D48FDF755FBC8B17C4C00212046FEF7D2
:10303800E7FE00212046FEF7BFFF04212046FEF7E9
:10304800F7FE04212046FEF7A5FF08212046FEF7DB
:10305800EFFE08212046FEF7AFFFD4E040216D487F
:10306800FDF736FB18B380216A48FDF731FBF0B94C
:1030780001216948FDF72CFBC8B9684C002120469E
:10308800FEF7BEFE00212046FEF796FF04212046EB
:10309800FEF7CEFE04212046FEF78EFF08212046CB
:1030A800FEF7C6FE08212046FEF774FFABE040217C
:1030B8005848FDF70DFB18B380215648FDF708FB6B
:1030C800F0B101215448FDF703FBC8B9534C002166
:1030D8002046FEF7ADFE00212046FEF76DFF0421D5
:1030E8002046FEF78DFE04212046FEF765FF0821E5
:1030F8002046FEF79DFE08212046FEF74BFF82E0A2
:1031080040214448FDF7E4FA30BB802100F18040BB
:1031180000F58430FDF7DCFAF0B101213E48FDF7F7
:10312800D7FAC8B93D4C00212046FEF781FE0021A0
:103138002046FEF72FFF04212046FEF761FE0421FA
:103148002046FEF739FF08212046FEF771FE0821C8
:103158002046FEF731FF56E040212E48FDF7B8FA29
:1031680030BB802100F1804000F58430FDF7B0FAD3
:10317800F0B101212848FDF7ABFAC8B1274C00216E
:103188002046FEF755FE00212046FEF703FF0421E6
:103198002046FEF74DFE04212046FEF70DFF0821CC
:1031A8002046FEF72DFE08212046FEF705FF2AE0FF
:1031B80040211848FDF78CFA28BB802100F1804097
:1031C80000F58430FDF784FAE8B901211248FDF7CB
:1031D8007FFAC0B1114C00212046FEF729FE0021DC
:1031E8002046FEF7E9FE04212046FEF721FE0421D1
:1031F8002046FEF7CFFE08212046FEF701FE0821F3
:103208002046FEF7D9FE4FF400510548FDF76EFA47
:1032180010BD00BF00080140000C0140D804002088
:1032280000100140704700BF82B00E4B9A6942F00F
:1032380001029A619A6902F001020092009ADA6921
:1032480042F08052DA61DB6903F080530193019BFD
:10325800054A536823F0E06343F00073536002B0FB
:10326800704700BF00100240000001400268084B90
:103278009A420CD182B003F564439A6942F4006221
:103288009A619B6903F400630193019B02B0704744
:10329800002C014030B589B00023049305930693B0
:1032A800079302681D4B9A4235D103F50333DA6957
:1032B80042F00202DA61DA6902F002020192019A2E
:1032C8009A6942F004029A619A6902F00402029231
:1032D800029A9A6942F008029A619B6903F008030E
:1032E8000393039B08ADC02345F8103D29460C48BD
:1032F800FDF702F901230493002405940694294656
:103308000848FDF7F9F8224621461D20FDF7A0F8E8
:103318001D20FDF7CFF809B030BD00BF0004004004
:1033280000080140000C014010B586B0002302934C
:103338000393049305930268154B9A4226D103F52B
:1033480064439A6942F008029A619A6902F0080295
:103358000092009A9A6942F004029A619B6903F00C
:1033680004030193019B4FF46043029302240394E6
:10337800059402A90748FDF7BFF84FF4E0630293EC
:103388000394059402A90448FDF7B6F806B010BDE9
:10339800002C0140000C014000080140704700BFAC
:1033A800FEE700BFFEE700BFFEE700BFFEE700BF85
:1033B800704700BF704700BF704700BF08B5FDF7F2
:1033C8000FF808BD08B50248FDF7F4FC08BD00BFBA
:1033D8000C0F002008B50248FEF706FB08BD00BF29
:1033E8009804002010B5094C00220949204600F035
:1033F80035FA0849204600F049FA0749204600F006
:103408001BFF204600F04AFA10BD00BF1805002037
:103418002C000020A40000201C0000200020704781
:103428000020704710B5064C00220649204600F0DF
:103438000BFF0549204600F00FFF002010BD00BF1C
:1034480018050020240B00203C070020094BD3F866
:103458001832D3F8143253B910B50A460146054C50
:10346800204600F0F1FE204600F0FCFE10BD0120D1
:10347800704700BF1805002070B588B0064603786D
:10348800632B19D8194A1360194B1B6802785A63C1
:1034980002789A630278DA6301AC164D0FCD0FC437
:1034A80095E8070003C4228001A800F026FF81B236
:1034B80001A8FFF7CBFF0EE001AC0F4D0FCD0FC4F5
:1034C80095E8070003C4228001A800F016FF81B226
:1034D80001A8FFF7BBFF094C3146204600F0BCFEAF
:1034E800204600F0D7FE002008B070BD180000206C
:1034F800D8040020F04C00080C4D000818050020E6
:1035080002680E4B9A4217D100B583B003F5DA333F
:10351800DA6942F40002DA61DB6903F4000301931B
:10352800019B002211461420FCF792FF1420FCF79F
:10353800C1FF03B05DF804FB704700BF005C0040AA
:1035480008B500F22C41D0F85C0400F0C3F908BDBE
:1035580008B500EB4113D3F83C22D0F85C0400F026
:10356800E7F908BD08B500EB4113DA6BD0F85C0445
:1035780000F012FA08BD00BF08B5D0F85C0400F0EE
:1035880095FA08BD10B504460121D0F85C0400F096
:1035980079FAD4F85C0400F055FA10BD10B5044669
:1035A800D0F85C0400F072FAA36923B1024A1369E7
:1035B80043F00603136110BD00ED00E008B5D0F834
:1035C8005C0400F06DFA08BD10B504461E48C0F84A
:1035D8005C44C4F820021D4B0360082343600223A7
:1035E80083600323C36000238361C3610362FDF723
:1035F80081F808B1FFF716FE182300221146D4F807
:103608002002FDF7DBFC582300228021D4F8200299
:10361800FDF7D4FCC02300228121D4F82002FDF755
:10362800CDFC4FF4887300220121D4F82002FDF765
:10363800C5FC4FF4807300228221D4F82002FDF7E4
:10364800BDFC002010BD00BF0C0F0020005C004036
:1036580008B5D0F82002FDF7BBF810B1022802D057
:1036680003E0002008BD012008BD022008BD00BFFE
:1036780010B51C4613462246D0F82002FDF7D4F8B0
:1036880010B1022802D003E0002010BD012010BDB7
:10369800022010BD08B5D0F82002FDF7EFF810B1F0
:1036A800022802D003E0002008BD012008BD022046
:1036B80008BD00BF08B5D0F82002FDF729FC10B1FD
:1036C800022802D003E0002008BD012008BD022026
:1036D80008BD00BF08B5D0F82002FDF747FC10B1BF
:1036E800022802D003E0002008BD012008BD022006
:1036F80008BD00BFD0F8202211F0800F06D001F0DD
:103708007F0302EB431191F82A00704701F07F0113
:1037180002EB411191F82A02704700BF08B5D0F8B2
:103728002002FDF76DF810B1022802D003E0002056
:1037380008BD012008BD022008BD00BF08B5D0F8AB
:103748002002FDF7EBF810B1022802D003E00020B8
:1037580008BD012008BD022008BD00BF08B5D0F88B
:103768002002FDF7B3F810B1022802D003E00020D0
:1037780008BD012008BD022008BD00BF08B5D0F86B
:103788002002FDF7C3F808BD004870476402002016
:10379800704700BF704700BF12230B800048704776
:1037A8004C00002004230B8000487047480000208C
:1037B80008B50A4620B90549054800F0E7FB03E0CB
:1037C8000249034800F0E2FB004808BD6C130020E2
:1037D800284D000810B5044C0A462146034800F05D
:1037E800D5FB204610BD00BF6C130020404D0008DB
:1037F80008B50A4620B90549054800F0C7FB03E0AB
:103808000249034800F0C2FB004808BD6C130020C1
:10381800544D000808B50A4620B90549054800F086
:10382800B5FB03E00249034800F0B0FB004808BDBF
:103838006C130020644D000808B50A4620B90549F4
:10384800054800F0A3FB03E00249034800F09EFB93
:10385800004808BD6C130020704D000898B108B5E9
:103868000346D0F8140210B10020C3F8140209B1BD
:10387800C3F810121846012380F8FC310270FFF7D4
:10388800A3FE002008BD0220704700BF19B1C0F890
:103898001412002070470220704700BF08B5FFF7D8
:1038A800D7FE002008BD00BF08B5D0F8143223B1F8
:1038B8001B68984718B1022008BD022008BD0020E7
:1038C80008BD00BF08B5D0F814325B6898470020DF
:1038D80008BD00BF38B5044600F50275284600F05B
:1038E8000BF90123C4F8F431B4F80E32C4F8F831F6
:1038F80094F8081201F01F03012B08D013B1022B12
:103908000AD00EE02946204600F072FA0EE0294659
:10391800204600F091FA09E02946204600F0A8FA6E
:1039280004E001F080012046FFF7C4FE002038BD06
:1039380010B5044611BB1346D0F8F421032A28D148
:10394800D0F80C11D0F8102191420AD9891AC0F880
:103958000C118A4228BF0A4692B2194600F05AFB57
:1039680017E0D0F814321B6923B190F8FC21032A20
:1039780000D19847204600F055FB0AE00A46D0F8E7
:1039880014329B692BB190F8FC11032901D111461F
:103998009847002010BD00BF10B50446002943D148
:1039A8001346D0F8F421022A36D1C169026A91423D
:1039B8000CD98A1AC26192B2194600F013FB00238F
:1039C8001A4619462046FFF7C9FE25E08169B1FB72
:1039D800F2F302FB131393B98A4210D8D0F8F831E6
:1039E80099420CD20022114600F0FCFA0021C4F8DA
:1039F800F8110B460A462046FFF7B0FE0CE0D4F853
:103A08001432DB682BB194F8FC21032A01D120463B
:103A18009847204600F012FB94F80032012B0ED193
:103A2800002384F800320AE00A46D0F814325B69B1
:103A38002BB190F8FC11032901D1114698470020B9
:103A480010BD00BF38B50446402300221146FFF7D9
:103A58000FFE4025C4F810512B4600228021204635
:103A6800FFF706FE2562012384F8FC31D4F81832EA
:103A78002BB1D4F814325B6821792046984700208E
:103A880038BD00BF01740020704700BF90F8FC31BA
:103A980080F8FD31042380F8FC310020704700BF16
:103AA80090F8FD3180F8FC310020704708B590F897
:103AB800FC31032B04D1D0F81432DB6903B19847E9
:103AC800002008BD0346002002E00130C0B20133E7
:103AD8001A78002AF9D170474B88012B0BD110B501
:103AE8000446C0F80432D0F814329B689847204640
:103AF80000F098FA10BD70470B7803704B7843704C
:103B08008B78CA7803EB022343800B794A7903EB5D
:103B1800022383808B79CA7903EB0223C380704721
:103B280010B504468021FFF7C5FD00212046FFF7A8
:103B3800C1FD10BD30B583B004460D464A88130A4E
:103B4800013B062B79D8DFE803F0040C2078785C79
:103B58006900D0F810321B680DF10601007C984707
:103B68006FE0037C43B9D0F814329B6A0DF106006C
:103B780098470223437064E0D0F81432DB6A0DF1F1
:103B880006009847022343705BE0D2B2052A34D876
:103B9800DFE802F0030B131B232BD0F810325B680D
:103BA8000DF10601007C98474BE0D0F810329B6875
:103BB8000DF10601007C984743E0D0F81032DB682D
:103BC8000DF10601007C98473BE0D0F810321B69E4
:103BD8000DF10601007C984733E0D0F810325B699C
:103BE8000DF10601007C98472BE0D0F810329B6954
:103BF8000DF10601007C984723E02946FFF790FF66
:103C08002DE0037C33B9D0F814325B6B0DF106005C
:103C1800984716E02946FFF783FF20E0037C43B965
:103C2800D0F814321B6B0DF1060098470723437038
:103C380007E02946FFF774FF11E02946FFF770FFF8
:103C48000DE0BDF8063053B1EA8842B19A4228BF68
:103C58001A46ADF806200146204600F0B5F903B033
:103C680030BD00BF38B504468B88E3B9CB88D3B9DB
:103C78008D7805F07F0590F8FC31032B02D1FFF712
:103C88004FFF38BD80F8FE512946FFF747FD204613
:103C980000F0C8F91DB1022384F8FC3138BD0123B6
:103CA80084F8FC3138BD2046FFF73AFF38BD00BF25
:103CB80038B504460D468978264B1970012903D971
:103CC8002946FFF72DFF38BD90F8FC31022B02D0B2
:103CD800032B15D039E081B14160032380F8FC3112
:103CE800FFF7E2FD022804D129462046FFF718FF16
:103CF80038BD204600F096F938BD00F093F938BD7C
:103D080049B9022380F8FC314160FFF7DBFD20460A
:103D180000F088F938BD4368994213D0D9B2FFF74B
:103D2800D1FD0C4B197861602046FFF7BDFD0228D4
:103D380004D129462046FFF7F3FE38BD204600F09F
:103D480071F938BD00F06EF938BD2946FFF7E8FE75
:103D580038BD00BF8404002008B5CB88012B02D0F1
:103D6800FFF7DEFE08BD90F8FC31022B02D0032BD2
:103D780008D00CE00146002341F8083F012200F07A
:103D880023F908BD0122011D00F01EF908BDFFF747
:103D9800C7FE08BD08B590F8FC31023B012B0CD8D2
:103DA8000123C360D0F804320BB10323C36002229D
:103DB80000F10C0100F008F908BDFFF7B1FE08BDDD
:103DC80010B5044690F8FC31023B012B0DD84B8806
:103DD800012B0CD10023C0F80432D0F814329B68B0
:103DE8009847204600F01EF910BDFFF799FE10BD58
:103DF80008B54B78092B1BD8DFE803F011171A1404
:103E08001A08051A0E0BFFF795FE13E0FFF72AFFB5
:103E180010E0FFF74DFF0DE0FFF79EFF0AE0FFF708
:103E2800B9FF07E0FFF758FE04E0FFF7C9FF01E01C
:103E3800FFF776FE002008BD38B504460D4690F819
:103E4800FC31032B0FD10B79012B09D8D0F8143290
:103E58009B689847EB8843B9204600F0E3F804E0F4
:103E6800FFF75EFE01E0FFF75BFE002038BD00BFF4
:103E780038B505460C468A880B7803F06003202B7A
:103E880004D1D0F814329B6898477DE0D1B26378AA
:103E9800012B26D0002B48D0032B75D190F8FC318C
:103EA800022B02D0032B07D017E000296CD0802901
:103EB8006AD0FFF7FFFB67E0638823B919B180294F
:103EC80001D0FFF7F7FBD5F814329B682146284646
:103ED8009847284600F0A6F856E02146FFF720FE4E
:103EE80052E090F8FC31022B02D0032B07D018E0E7
:103EF800002949D0802947D0FFF7DCFB44E06388DC
:103F0800002B41D111F07F0F07D0FFF7E3FBD5F865
:103F180014329B68214628469847284600F082F8C4
:103F280032E02146FFF7FCFD2EE090F8FC31022B31
:103F380002D0032B06D024E011F07F0F24D0FFF726
:103F4800B9FB21E012F0800F06D001F07F040134A4
:103F580000EB0414043405E001F07F04103400EB96
:103F6800041404342846FFF7C5FB10B1012323606D
:103F780001E00023236002222146284600F024F8AD
:103F880002E02146FFF7CCFD002038BDD0B170B566
:103F98000D4616460446FFF795FD0130400080B2F5
:103FA8003080287003236B70022307E05A1CD2B2BA
:103FB8000134E9540233DBB20021A95421780029E5
:103FC800F4D170BD704700BF10B513460222C0F887
:103FD800F4218361C3610A460021FFF7AFFB00208B
:103FE80010BD00BF08B513460A460021FFF7A6FB1F
:103FF800002008BD10B513460322C0F8F421C0F80C
:104008000831C0F80C310A460021FFF7A7FB002051
:1040180010BD00BF08B513460A460021FFF79EFBF6
:10402800002008BD08B50423C0F8F43100231A465F
:104038001946FFF783FB002008BD00BF08B505231C
:10404800C0F8F43100231A461946FFF787FB002011
:1040580008BD00BFD0F818321BB10020C3F8140205
:1040680070470220704700BF10B5D0F81842D0F84A
:104078001C325BB194F80002FF2807D09B6894F8C3
:10408800012221469847FF2384F80032002010BD02
:1040980043230380004870476000002043230380C7
:1040A800004870472C0100204323038000487047D4
:1040B800E80000200A23038000487047DC00002045
:1040C80038B50446D0F81852FFF758FBC5F80C026B
:1040D800D4F818324BB1D4F81C32DB6805F50371FB
:1040E800D5F804029847002038BD022038BD00BF2B
:1040F80070B505460C46D0F818620B7813F06002CC
:1041080024D0202A29D1CA88CAB113F0800F0BD035
:10411800D0F81C329B68314660789847E28831466F
:104128002846FFF751FF18E04B7886F80032CB8815
:1041380086F80132CA883146FFF75CFF0DE0D0F8F7
:104148001C329B6800224878984706E04B780A2B77
:1041580003D101220249FFF737FF002070BD00BFDD
:104168008504002010B504468121FFF793FA012148
:104178002046FFF78FFA82212046FFF78BFAD4F802
:10418800183253B1D4F81C325B689847D4F8180237
:10419800FFF7FEFA0023C4F81832002010BD00BF54
:1041A80038B50446037C6BB94FF4007302228121B1
:1041B800FFF75EFA4FF40073022201212046FFF751
:1041C80057FA0AE0402302228121FFF751FA4023DF
:1041D800022201212046FFF74BFA082303228221FD
:1041E8002046FFF745FA4FF40770FFF7CDFA05466A
:1041F800C4F81802E8B1D4F81C321B6898470023A9
:10420800C5F81432C5F81832237C4BB94FF4007343
:10421800D5F8042201212046FFF7A0FA002038BD76
:104228004023D5F8042201212046FFF797FA002001
:1042380038BD012038BD00BF19B1C0F81C120020DC
:1042480070470220704700BFD0F81832C3F8081230
:10425800C3F8102200207047D0F81832C3F80412AF
:1042680000207047D0F818227AB108B5D2F8143275
:104278006BB90123C2F81432B2F81032D2F808220E
:104288008121FFF75BFA002008BD0220704701205A
:1042980008BD00BFD0F818229AB108B5037C43B90D
:1042A8004FF40073D2F804220121FFF757FA0020D7
:1042B80008BD4023D2F804220121FFF74FFA00205D
:1042C80008BD0220704700BF014B1868704700BF47
:1042D800D001002010B5431E0A44914204D011F8C1
:1042E800014B03F8014FF8E710BD0346024493421F
:1042F80002D003F8011BFAE77047034613F8012BB5
:10430800002AFBD1181A0138704730B5141E05462B
:104318009BB0184604DA8B232B604FF0FF301DE06A
:104328004FF40273ADF80C300CBF234604F1FF3391
:10433800029305934FF6FF7300910491ADF80E3088
:1043480002461E9B6946284600F072F8431CBCBF13
:104358008B232B6014B1009B00221A701BB030BD58
:1043680007B5009313460A46014603480068FFF75D
:10437800CCFF03B05DF804FBD00100202DE9F04725
:104388008E6882469E420C46914698463ED88A8957
:1043980012F4906F3AD02568096902236F1A65698B
:1043A80005EB450595FBF3F57B1C43449D4238BF5F
:1043B8001D4653050FD5294600F040FB064698B127
:1043C8003A462169FFF786FFA38923F4906343F0F7
:1043D8008003A38113E02A4600F08EFB064670B9DD
:1043E8002169504600F0DEFA0C23CAF80030A38990
:1043F8004FF0FF3043F04003A381BDE8F08726610A
:104408003E44266046466561ED1BA560464528BFCB
:10441800464649463246206800F0A8FAA3680020BC
:104428009B1BA36023681E442660BDE8F08700003C
:104438002DE9F04F9DB003938B8980461C060D46ED
:1044480016460DD50B695BB9402100F0F7FA2860D4
:10445800286118B90C23C8F80030CDE040236B61FF
:104468000023099320238DF82930DFF89CB13023ED
:104478008DF82A3037463C4614F8013B1BB9B7EB98
:10448800060910D003E0252BF9D02746F3E74B4661
:10449800324629464046FFF771FF013000F0A780F9
:1044A800099B4B4409933B78002B00F0A080002324
:1044B8004FF0FF3204930793059206938DF853301B
:1044C8001A930126052221784E4800F041FA671C0C
:1044D800049B38B14B4A3C46801A06FA00F0184350
:1044E8000490EFE7D90644BF20228DF853201A071D
:1044F80044BF2B228DF8532022782A2A03D0079A0A
:1045080000210A200BE0039A111D12680391002A6A
:1045180010DA524243F00200079204900BE027465B
:104528003B780134303B092B03D800FB02320121D0
:10453800F5E701B107923B782E2B1ED17B782A2B09
:104548000AD1039B02371A1D1B680392002BB8BFC0
:104558004FF0FF33059310E0002319460593781CAC
:104568000A2407463A780130303A092A03D804FB6E
:1045780001210123F5E703B1059103223978224887
:1045880000F0E6F940B14023CBEB000003FA00F05D
:10459800049B013718430490397806221B487E1C77
:1045A8008DF8281000F0D4F988B1194B33B9039B62
:1045B800073323F007030833039314E003AB009396
:1045C8002A46144B04A94046AFF3008007E003AB2A
:1045D80000932A460F4B04A9404600F093F8B0F127
:1045E800FF3F824603D0099B5344099342E7AB89B6
:1045F8005B0601D4099801E04FF0FF301DB0BDE81B
:10460800F08F00BF804D0008864D00088A4D0008D5
:1046180000000000854300082DE9F04791461F4639
:104628000A698B6806469342B8BF1346C9F800303A
:1046380091F843200C46DDF8208012B10133C9F807
:1046480000302368990642BFD9F800300233C9F810
:104658000030256815F0060510D104F1190A07E0A5
:104668000123524639463046C04701301AD0013539
:10467800E368D9F800209B1A9D42F1DB94F8433097
:104688002268003318BF012392060FD5E1183020A5
:1046980081F843005A1C94F845102244023382F8EA
:1046A800431003E04FF0FF30BDE8F08704F1430208
:1046B80039463046C0470130F4D02268D9F8005056
:1046C800E36802F00602042A08BF5D1B2269A3689A
:1046D8000CBF25EAE57500259342C4BF9B1AED1867
:1046E8004FF000091A344D4509D0012322463946B6
:1046F8003046C0470130D5D009F10109F3E7002061
:10470800BDE8F0872DE9F04317460A7E85B06E2A8A
:10471800984606460C460C9B01F1430E00F0AE800D
:1047280011D8632A22D009D8002A00F0BB80582A61
:1047380040F0CA8081F84520834955E0642A1ED09C
:10474800692A1CD0C0E0732A00F0B08009D86F2A0B
:104758002ED0702A40F0B8800A6842F020020A6021
:104768003EE0752A24D0782A3AD0ADE01A6801F1E3
:104778004205111D1960136884F84230A8E02168C9
:104788001A6811F0800F02D0111D196008E011F0AD
:10479800400F02F10401196002D0B2F9003000E0C4
:1047A8001368002B3CDA2D225B4284F8432037E063
:1047B80021681A6811F0800F02D0111D196007E0F6
:1047C80011F0400F02F10401196001D0138800E0D4
:1047D8001368227E5C496F2A14BF0A2208221BE054
:1047E80078225A4984F845202268186812F0800F08
:1047F80000F104051D6003D1550601D5038800E0CA
:104808000368D00744BF42F0200222601BB9226827
:1048180022F0200222601022002084F8430001E0E8
:1048280049490A226568002DA56008DB206820F048
:10483800040020602BB9002D7DD175460CE0002BBB
:1048480079D07546B3FBF2F002FB1033CB5C05F868
:10485800013D03460028F5D1082A0BD12368DA0761
:1048680008D5236962689A42DEBF302305F8013C07
:1048780005F1FF35C5EB0E0323612EE008681A68C1
:1048880010F0800F496903D0101D1860136808E004
:1048980010F0400F02F104001860136801D019806D
:1048A80000E0196000232361754616E01A68111D9F
:1048B8001960156800216268284600F049F808B1B7
:1048C800401B6060636804E004F1420584F84220FC
:1048D80001232361002384F84330CDF800803B4650
:1048E80003AA21463046FFF797FE013002D14FF068
:1048F800FF3026E023692A4639463046C047013052
:10490800F5D023689B0710D5002504F1190907E0A5
:1049180001234A4639463046C0470130E7D00135C1
:10492800E368039A9B1A9D42F2DBE068039B984276
:10493800B8BF184605E00B7804F1420584F8423008
:104948008AE705B0BDE8F083914D0008A24D000844
:1049580010B5C9B202449042034605D01C78013014
:104968008C42F8D1184610BD002010BD884210B501
:1049780001EB020301D8421E0BE09842FBD28118DA
:10498800D21AD34204D013F8014D01F8014DF8E7CB
:1049980010BD994204D011F8014B02F8014FF8E715
:1049A80010BD000038B50546002944D051F8043C34
:1049B8000C1F002BB8BFE41800F0D4F81E4A136887
:1049C800114613B96360146030E0A3420DD9226820
:1049D800A018834201BF18685B68121822606360E0
:1049E8000C6023E0A24203D813465A68002AF9D182
:1049F80018681918A1420BD121680144581882423D
:104A0800196013D110685268014419605A600DE0AA
:104A180002D90C232B6009E021686018824201BF8B
:104A2800106852680918216062605C602846BDE819
:104A3800384000F098B838BD8C04002070B5CD1C03
:104A480025F0030508350C2D38BF0C25002D06462A
:104A580001DBA94202D90C23336046E000F082F85A
:104A6800234B1C681A462146A1B10B685B1B0ED468
:104A78000B2B03D90B60CC18CD501EE08C420BBF1A
:104A880063684B681360636018BF0C4615E00C46FA
:104A98004968E9E7174C23681BB9304600F052F81B
:104AA80020602946304600F04DF8431C18D0C41C3D
:104AB80024F00304A0420DD12560304600F053F8DD
:104AC80004F10B00231D20F00700C31A0ED05A4230
:104AD800E25070BD211A304600F034F80130EBD1B5
:104AE8000C233360304600F03EF8002070BD00BF54
:104AF8008C04002088040020F8B5074615460E46A9
:104B080021B91146BDE8F840FFF798BF1AB9FFF779
:104B180049FF2846F8BD00F027F885420ED92946F6
:104B28003846FFF78BFF044650B131462A46FFF757
:104B3800D1FB31463846FFF735FF01E03046F8BD76
:104B48002046F8BD38B5064C0023054608462360C4
:104B5800FDF79AFF431C02D1236803B12B6038BDCF
:104B6800940400207047704751F8040C0028BEBF19
:104B7800091851F8043CC0180438704702030405AA
:104B8800060708090A0B0C0D0E0F10100102000091
:104B9800537461636B206672616D653A0A000000A8
:104BA800205230203D2020253038580A00000000CF
:104BB800205231203D2020253038580A00000000BE
:104BC800205232203D2020253038580A00000000AD
:104BD800205233203D2020253038580A000000009C
:104BE80020523132203D20253038580A000000007C
:104BF800204C52203D2020253038580A0000000063
:104C0800205043203D2020253038580A000000005D
:104C180020505352203D20253038580A000000000B
:104C28004653522F4641523A0A0000002043465349
:104C380052203D2020253038580A0000204846538D
:104C480052203D2020253038580A00002044465381
:104C580052203D2020253038580A00002041465374
:104C680052203D2020253038580A0000204D4D465E
:104C78004152203D20253038580A00002042464144
:104C880052203D2020253038580A00004D697363B2
:104C98000A000000204C522F4558435F5245545596
:104CA800524E3D20253038580A0000005B4861729A
:104CB800644661756C745D0A000000005B427573A0
:104CC8004661756C745D0A005B5573616765466182
:104CD800756C745D0A000000000000000000000010
:104CE800010203040607080950574D2044757479DA
:104CF800204379636C65204368616E676564210DA4
:104D08000A000000496E76616C69642050574D2096
:104D180044757479204379636C65210D0A0000009D
:104D280053544D3332205669727475616C20436F49
:104D38006D506F727400000053544D6963726F6553
:104D48006C656374726F6E69637300003030303065
:104D580030303030303031410000000043444320CF
:104D6800436F6E666967000043444320496E74656B
:104D78007266616365000000232D302B2000686C8B
:104D88004C00656667454647003031323334353666
:104D9800373839414243444546003031323334359F
:0B4DA8003637383961626364656600CD
:104DB400785634121000000001FFFFFFE0010020CC
:104DC4000000000000A24A04630000002D34000823
:104DD400253400082934000881340008A13700086C
:104DE400AD370008DD370008B9370008F937000887
:104DF4001D380008413800080403090412010002A8
:104E04000202004083044057000201020301FFFF35
:104E140009024300020100C0320904000001020239
:104E240001000524001001052401000104240202EC
:104E34000524060001070582030800100904010087
:104E4400020A000000070501024000000705810274
:104E5400400000FFA94100086D410008F940000826
:104E640000000000714000085D400008C9400008CF
:104E7400000000000000000000000000A540000841
:104E840099400008B1400008BD4000080A0600022D
:104E9400000000400100FFFF09074300020104C0B5
:104EA400320904000001020201000524001001057A
:104EB40024010001042402020524060001070582DE
:104EC400030800FF09040100020A000000070501AD
:104ED4000240000007058102400000FF0902430070
:104EE400020100C03209040000010202010005248D
:104EF4000010010524010001042402020524060017
:104F0400010705820308001009040100020A0000D9
:104F1400000705010200020007058102000200FFEC
:104F2400000000000000000000000000000000007D
:104F3400000000000000000000000000000000006D
:104F4400000000000000000000000000000000005D
:104F5400000000000000000000000000000000004D
:104F6400000000000000000000000000000000003D
:104F7400000000000000000000000000000000002D
:084F8400700100203254769800
:040000050800010DE1
:00000001FF
